:100000000C9446000C94F3020C940A030C94210304
:100010000C9465000C9465000C9465000C946500CC
:100020000C9465000C9465000C9465000C946302BC
:100030000C9465000C9465000C9465000C946500AC
:100040000C9465000C9465000C9465000C9465009C
:100050000C9465000C9465000C9465000C9465008C
:100060000C9465000C9465000C9465000C9465007C
:100070000C9465000C9465000C9465000C9465006C
:100080000C9465000C9465000C94650011241FBE4F
:10009000CFEFD0E4DEBFCDBF11E0A0E0B1E0ECE0F7
:1000A000FAE100E00BBF02C007900D92A637B1073E
:1000B000D9F711E0A6E7B1E001C01D92AD3AB10752
:1000C000E1F70E9465060C94040D0C9400008093E7
:1000D0007E00EAE7F0E0808187608083ACE7B0E0F3
:1000E0008C9180648C938081806C80830895909142
:1000F0007C00907F90937C0090917C008770892B8E
:1001000080937C0080917A00806480937A00809153
:100110007A0086FDFCCF2091780030917900C901EA
:1001200008958093760190917701282F29272093B5
:100130007801922390937A01282320937901809368
:1001400077010895282F10927B0110927C01109264
:100150007D0180917A01982F82FF03C081E0809316
:100160007D0190FF05C021FF03C081E080937B01EA
:1001700091FF05C020FF03C081E080937C010895BA
:100180001F93182F0E949100812F0E94A2001F919F
:100190000895609386012093850180938A0140939E
:1001A00089010895609386016093850180938A0197
:1001B0008093890108951092860110928501109212
:1001C0008A01109289010895109286018093850119
:1001D00081E080938A01809389010895809386014C
:1001E0008093850110928A0181E0809389010895AE
:1001F000809386011092850181E080938A0180932B
:1002000089010895809386018093850181E0809320
:100210008A0110928901089584B1886784B984B5F0
:10022000816A84BD85B5816085BDE1EBF0E08081A8
:1002300087608083E0E7F0E0808181608083E9E689
:10024000F0E08081856080838DB383608DBB78947E
:10025000109286011092850110928A0110928901F4
:1002600008959093C5008093C400519A88E18093CB
:10027000C1008EE08093C20008958091C000881F65
:100280008827881F0895982F8091C00085FFFCCF94
:100290009093C6000895FC0107C08091C00085FFBF
:1002A000FCCF31969093C60090819923B1F70895C1
:1002B0008091C6000895FC0120E004C031932F5FB7
:1002C000203521F03091C6003D30C1F7FC01E20F2E
:1002D000F11D1082089502C08091C6008091C00077
:1002E00087FDFACF089594B1906B94B991E59CBDC8
:1002F000882319F08CB5806202C08CB58F7D8CBDCF
:100300000895982F662319F08DB5816002C08DB5D0
:100310008E7F8DBD9EBD0DB407FEFDCF08951F934A
:10032000CF93DF93EC01162F04C02196612F0E941A
:10033000810188818823C9F7DF91CF911F910895AA
:1003400080E485B98CBD08950DB407FEFDCF8EB550
:1003500008952F9820E931E040E951E0FA01319702
:10036000F1F721503040D1F70E944B012F9A80EDD8
:1003700097E020E931E0F9013197F1F70197D9F7DA
:10038000089580E091E00E94A90108958AE091E03B
:100390000E94A901089583E191E00E94A9010895B6
:1003A00084E191E00E94A9010895089A009A0895B5
:1003B00081E082B985E38A95F1F712B820E030E058
:1003C00040E050E01FC02F5F3F4F4F4F5F4F60E056
:1003D000019B08C02C368BE6380780E0480780E098
:1003E000580788F3DA01C9018C569B46A040B040FB
:1003F000C797A105B10520F420E030E040E050E0CF
:10040000662311F061E0E4CFCA01B90127E330E0CF
:1004100040E050E00E94A409CA01B9010895E0E853
:10042000F0E0808182628083E1E8F0E08081886191
:10043000808380818260808380E197E2909387004F
:100440008093860008959C01885E9340895E934066
:1004500038F4220F331F30938B0020938A000895C5
:1004600010928B0010928A000895282F332727FDC1
:100470003095432F532F63ED7FEF8FEF9FEF621B7C
:10048000730B840B950B28EE33E040E050E00E94A4
:1004900071092AE530E040E050E00E94C609C90138
:1004A0008053984F28513C4F295E334038F4880FD1
:1004B000991F90938B0080938A00089510928B006F
:1004C00010928A0008951F920F920FB60F92112476
:1004D0002F933F934F935F938F939F93209181012D
:1004E000309182011092820110928101409183012A
:1004F00050918401109284011092830180918501B2
:10050000882319F41092870123C08091850190E01F
:100510002817390770F4809187018F3F51F080913F
:100520008701882311F486E911C0809187018F5FCC
:100530000DC08091850190E08217930748F4809167
:100540008701882329F0809187018150809387015A
:1005500080918601882319F41092880123C080912C
:10056000860190E04817590770F4809188018F3F09
:1005700051F080918801882311F486E911C080919F
:1005800088018F5F0DC08091860190E084179507E8
:1005900048F480918801882329F080918801815056
:1005A0008093880180918901882311F02D9A01C0E0
:1005B0002D9880918701809587BD80918A0188233D
:1005C00011F02E9A01C02E9880918801809588BDE7
:1005D0009F918F915F914F913F912F910F900FBEFF
:1005E0000F901F9018951F920F920FB60F92112423
:1005F0008F939F93809181019091820101969093B6
:100600008201809381019F918F910F900FBE0F9077
:100610001F9018951F920F920FB60F9211248F936F
:100620009F9380918301909184010196909384011E
:10063000809383019F918F910F900FBE0F901F9019
:1006400018951F920F920FB60F9211248F939F93BC
:1006500080917F0191E0892780937F019F918F9105
:100660000F900FBE0F901F9018952F923F924F92B0
:100670005F926F927F928F929F92AF92BF92CF9232
:10068000DF92EF92FF920F931F93DF93CF93CDB73B
:10069000DEB73B014C0119012A016D897E898F89E2
:1006A000988D6A197B098C099D09621A730A840A5C
:1006B000950AA40193010E947109E218F308040944
:1006C0001509A80197010E94C6092A0D3B1D4C1D62
:1006D0005D1DB901CA01CF91DF911F910F91FF906C
:1006E000EF90DF90CF90BF90AF909F908F907F90D2
:1006F0006F905F904F903F902F9008952F923F9270
:100700004F925F926F927F928F929F92AF92BF9221
:10071000CF92DF92EF92FF920F931F93CF93DF93CD
:1007200080917E01882309F45CC0CBE8D1E0662487
:1007300077244301A8EE2A2EA3E03A2E412C512C17
:1007400000D000D0EDB7FEB72182328243825482BE
:10075000C401B30120E030E040E050E0F1E1EF2ED1
:10076000F12C012D112DE0EDAE2EE7E0BE2EC12CB7
:10077000D12C0E9435030F900F900F900F90CB015A
:10078000885E9340895E934038F4660F771F7093BC
:100790008B0060938A0004C010928B0010928A0034
:1007A0008CE291E0E0E9F1E03197F1F70197D1F7C0
:1007B0000E94D801699379930894611C711C811C73
:1007C000911C21E0CD3AD20709F0BACF10927E01F8
:1007D000EBE8F1E000E010E06EE070E0C1E0D0E0B6
:1007E00058C0CBEAD1E011E1612E712C812C912C03
:1007F000B8EE2B2EB3E03B2E412C512C00D000D074
:10080000EDB7FEB72182328243825482C401B30124
:1008100020E030E040E050E0A1E1EA2EF12C012D93
:10082000112DF0EDAF2EF7E0BF2EC12CD12C0E9480
:1008300035030F900F900F900F90CB01885E93407F
:10084000895E934038F4660F771F70938B00609336
:100850008A0004C010928B0010928A008CE291E012
:10086000E0E9F1E03197F1F70197D1F70E94D80163
:100870007983688308946108710881089108229738
:1008800021E0C938D20709F0B9CF81E080937E0119
:100890009FCF828193818F319105F0F42081318146
:1008A000DC011A96A217B307B8F0AC014A505040C9
:1008B0002417350788F084819581A817B90760F05F
:1008C0008417950748F0CE01062E02C0880F991FA5
:1008D0000A94E2F7082B192B6150704032968FEF83
:1008E0006F3F7807B1F6A801440F551F43FD05C0BF
:1008F000CA0180739070892B51F0809180018093A0
:1009000086018093850110928A0181E073C0CA013B
:1009100086709070892B29F0809180011092860159
:1009200064C051FD05C0CA0180709C70892B51F0D4
:1009300080918001809386018093850181E080937E
:100940008A011DC054FD05C0CA0180709076892BB4
:1009500039F080918001809386011092850147C013
:1009600046FD05C0CA0180789170892B59F08091AD
:100970008001809386018093850110928A011092F4
:1009800089013AC041155105B9F5ABE8B1E070E015
:1009900060E0E72FF0E0EE0FFF1FE557FE4F2D91CF
:1009A0003C911197808191812817390708F0762FA3
:1009B00012966F5F613169F7872F8650853028F472
:1009C000809180018093860110C0763038F4809148
:1009D0008001982F96959093860107C07B3060F038
:1009E000809180018093860186958093850181E0C6
:1009F00080938A0180938901CA01DF91CF911F9171
:100A00000F91FF90EF90DF90CF90BF90AF909F90AD
:100A10008F907F906F905F904F903F902F900895B0
:100A20000F931F93DF93CF93CDB7DEB728970FB601
:100A3000F894DEBF0FBECDBF00D000D000D0EDB720
:100A4000FEB731968E010F5F1F4FADB7BEB712963E
:100A50001C930E93119727E131E03383228399276A
:100A600087FD9095958384830E941D0A8DB79EB75C
:100A700006960FB6F8949EBF0FBE8DBFC8010E94A8
:100A8000A90128960FB6F894DEBF0FBECDBFCF9157
:100A9000DF911F910F9108950F931F93DF93CF93D1
:100AA00000D000D00F92CDB7DEB700D000D000D07C
:100AB000EDB7FEB731968E010F5F1F4FADB7BEB7D2
:100AC00012961C930E9311972FE131E0338322830A
:100AD000992787FD9095958384830E941D0A8DB781
:100AE0009EB706960FB6F8949EBF0FBE8DBFC80185
:100AF0000E94A9010F900F900F900F900F90CF912F
:100B0000DF911F910F9108950F931F93DF93CF9360
:100B100000D000D00F92CDB7DEB700D000D000D00B
:100B2000EDB7FEB731968E010F5F1F4FADB7BEB761
:100B300012961C930E93119726E231E033832283A1
:100B4000992787FD9095958384830E941D0A8DB710
:100B50009EB706960FB6F8949EBF0FBE8DBFC80114
:100B60000E94A9010F900F900F900F900F90CF91BE
:100B7000DF911F910F9108950F931F93DF93CF93F0
:100B8000CDB7DEB727970FB6F894DEBF0FBECDBF47
:100B900000D000D000D0EDB7FEB731968E010F5FC8
:100BA0001F4FADB7BEB712961C930E9311972FE24D
:100BB00031E033832283992787FD90959583848341
:100BC0000E941D0A8DB79EB706960FB6F8949EBF79
:100BD0000FBE8DBFC8010E94A90127960FB6F894D9
:100BE000DEBF0FBECDBFCF91DF911F910F91089552
:100BF0000F931F93162F042F279A0E94BC05812F55
:100C00000E948405802F0E944C051F910F9108952A
:100C1000DF92EF92FF920F931F93DD24EE24FF24C7
:100C2000870182E00E947700A0E0B0E0BC01CD0126
:100C300020E137E240E050E00E9471092FEF33E0FD
:100C400040E050E00E94C609E20EF31E041F151F8B
:100C5000D39424E6D21629F7C801B70124E630E080
:100C600040E050E00E94A40979018A01D801C7013F
:100C70008C579541A040B0408D569740A040B04061
:100C8000E8F4109286011092850110928A01109268
:100C9000890110928B0010928A000E94C6010E9466
:100CA000DF0820E931E088B1805888B988E893E10D
:100CB000F9013197F1F70197D9F7F5CFC7011F91E6
:100CC0000F91FF90EF90DF9008952F923F924F92F7
:100CD0005F926F927F928F929F92AF92BF92CF92CC
:100CE000DF92EF92FF920F931F93DF93CF93CDB7D5
:100CF000DEB7A4970FB6F894DEBF0FBECDBF198242
:100D00001A8211B88FEF87B9549A87E085B980911C
:100D10006900806280936900EA9A0E940C018CE06D
:100D20000E941609479A87E690E09093C500809349
:100D3000C400519A88E18093C1008EE08093C20084
:100D400080E690E061E048E00E94F80584E00E94BF
:100D500067000E940F02089A009A73E0272E312C38
:100D60002C0E3D1E63E1862E912C8C0E9D1E54E4AC
:100D7000452E51E0552E0E9408063C0183B10E9489
:100D8000C0008091C00087FF08C0C1010E945B01C4
:100D9000C1010E94E1098093800180917B01882339
:100DA00031F080918001823310F48F5F09C080910F
:100DB0007C01882339F080918001882319F08150CB
:100DC0008093800180917F01882309F425C10E94CE
:100DD0007E038C0119822DC0E981F0E0EE0FFF1F28
:100DE000E557FE4F808191816EE170E00E9490098D
:100DF000D62E1A82EE24FF24DA9411C08D2D8E197E
:100E000087FD03C088E391E002C08AE391E00E947D
:100E10004B018A818F5F8A830894E11CF11C8A81CF
:100E2000873060F38CE391E00E944B0189818F5FF2
:100E300089838981813180F28FE391E00E944B01A7
:100E4000812F992787FD90958827990F881F9927CB
:100E5000C09616FD04C020E3A22EB12C03C0B1E35E
:100E6000AB2EB12C15FD04C0A0E3CA2ED12C03C0BB
:100E7000F1E3CF2ED12C14FD04C0E0E3EE2EF12CD3
:100E800003C071E3E72EF12C13FD05C020E330E031
:100E90003CA32BA304C0A1E3B0E0BCA3ABA312FD11
:100EA00003C060E370E002C061E370E011FD03C0C5
:100EB00040E350E002C041E350E010FD03C020E3F6
:100EC00030E002C021E330E0EDB7FEB774970FB613
:100ED000F894FEBF0FBEEDBF3196ADB7BEB7129608
:100EE0009C928E9211975382428295838483B7821B
:100EF000A682D186C086F386E2868BA19CA19587C7
:100F0000848777876687518B408B338B228B0E9437
:100F10001D0AADB7BEB754960FB6F894BEBF0FBE4C
:100F2000ADBF80E060E00E94D308C4010E94FC08CD
:100F30000023802F992787FD90958827990F881F78
:100F40009927C09606FD04C050E3A52EB12C03C01E
:100F500041E3A42EB12C05FD04C030E3C32ED12CF7
:100F600003C021E3C22ED12C04FD04C010E3E12E06
:100F7000F12C03C0B1E3EB2EF12C03FD05C0E0E33F
:100F8000F0E0FCA3EBA304C021E330E03CA32BA3DF
:100F900002FD03C060E370E002C061E370E001FDA8
:100FA00003C040E350E002C041E350E000FD03C055
:100FB00020E330E002C021E330E0ADB7BEB7549784
:100FC0000FB6F894BEBF0FBEADBFEDB7FEB73196FA
:100FD00012969C928E9211975382428295838483BB
:100FE000B782A682D186C086F386E2868BA19CA1B9
:100FF0009587848777876687518B408B338B228BCD
:101000000E941D0AADB7BEB754960FB6F894BEBF86
:101010000FBEADBF88E03FC080E00E9435020E9455
:10102000D80170939C0160939B016E31710548F467
:10103000109286011092850110928A011092890106
:101040000BC0809180018093860180938501B1E07F
:10105000B0938A01B093890100D000D000D0EDB7E1
:10106000FEB73196ADB7BEB712969C928E9211978D
:1010700025E531E0338322838091800184831582CA
:101080000E941D0A8DB79EB706960FB6F8949EBFB4
:101090000FBE8DBF80E060E00E94D308C4010E94B3
:1010A000FC08ADB7BEB718970FB6F894BEBF0FBE19
:1010B000ADBFEDB7FEB7319612969C928E92119706
:1010C00028E631E0338322837582648280919B011C
:1010D00090919C01978386830E941D0A8DB79EB7CD
:1010E00008960FB6F8949EBF0FBE8DBF80E061E0FA
:1010F0000E94D308C4010E94FC083DCE282F66231D
:1011000011F0469A01C04698459887B18F6087B91B
:1011100098B1907F822F82958F70892B88B9449ADD
:1011200000C044982F70292B28B9449A00C04498D5
:101130009F6098B90895882311F0469A01C0469897
:10114000459A87B1807F87B9449A00C096B1449888
:1011500000C0449A00C086B18F709295907F4498E9
:10116000892B089580E00E949B0887FDFBCF88E0D3
:1011700090E00197F1F780E00E949B0808951F938B
:10118000182F0E94B208812F60E00E947E081F91F4
:1011900008951F93182F0E94B208812F61E00E94CA
:1011A0007E081F910895662311F4805801C0805471
:1011B0000E94BF0808950E94B20890E0089581E05F
:1011C0000E94BF08089582E00E94BF0808951F93FF
:1011D000182F0E94B2081A3049F4803410F080E0D1
:1011E00001C080E480580E94BF0804C0812F61E0E4
:1011F0000E947E081F910895CF93DF93EC0102C0F7
:101200000E94E70889918823D9F7DF91CF9108954B
:10121000CF93DF93EC0102C00E94E708FE01219604
:1012200084918823C9F7DF91CF9108951F93182FD8
:1012300087B18F6087B93E9A3D9A3C9A80E09AEFD9
:101240000197F1F7419A409A449A00C0449880E08F
:101250009EE40197F1F7449A00C0449880E091E041
:10126000FC013197F1F7449A00C04498FC01319792
:10127000F1F74098449A00C044980197F1F788E24A
:101280000E94BF0888E00E94BF080E94DF0886E035
:101290000E94BF08812F0E94BF081F9108950F93DD
:1012A0001F93DF93CF93CDB7DEB764970FB6F89453
:1012B000DEBF0FBECDBF8E010F5F1F4FB8014AE0EA
:1012C00050E00E94070AC8010E94FC0864960FB60D
:1012D000F894DEBF0FBECDBFCF91DF911F910F916C
:1012E0000895629FD001739FF001829FE00DF11D70
:1012F000649FE00DF11D929FF00D839FF00D749F90
:10130000F00D659FF00D9927729FB00DE11DF91F3B
:10131000639FB00DE11DF91FBD01CF011124089598
:10132000AA1BBB1B51E107C0AA1FBB1FA617B7070B
:1013300010F0A61BB70B881F991F5A95A9F7809527
:101340009095BC01CD010895A1E21A2EAA1BBB1BEA
:10135000FD010DC0AA1FBB1FEE1FFF1FA217B30781
:10136000E407F50720F0A21BB30BE40BF50B661F97
:10137000771F881F991F1A9469F76095709580955B
:1013800090959B01AC01BD01CF01089597FB092EFB
:1013900005260ED057FD04D0D7DF0AD0001C38F444
:1013A00050954095309521953F4F4F4F5F4F089591
:1013B000F6F790958095709561957F4F8F4F9F4F71
:1013C0000895FC0188279927E89421912032E9F3B8
:1013D000293010F02E30C8F32B3241F02D3239F481
:1013E000689404C00E94FF09820F911D219120532F
:1013F0002A30C0F31EF4909581959F4F08957AE0AE
:10140000979F902D879F802D910D11240895FB01AA
:101410009F01423074F0453264F4642F77270E94B4
:101420009009805D8A330CF0895D8193CB01009730
:10143000A1F71082C9010C946A0C0F931F93DF93DC
:10144000CF93CDB7DEB72E970FB6F894DEBF0FBEA1
:10145000CDBF0D891E8986E08C831A8309838FEFA7
:101460009FE79E838D839E01275E3F4FCE010196AD
:101470006F89788DA9010E944E0A2F813885020F4D
:10148000131FF80110822E960FB6F894DEBF0FBE20
:10149000CDBFCF91DF911F910F9108952F923F9271
:1014A0004F925F926F927F928F929F92AF92BF9274
:1014B000CF92DF92EF92FF920F931F93DF93CF9320
:1014C000CDB7DEB72B970FB6F894DEBF0FBECDBFFA
:1014D0003C012B015A01FC0117821682838181FD98
:1014E00003C06FEF7FEFC6C19AE0892E1E010894FA
:1014F000211C311CF3012381F20123FD859123FF7F
:1015000081912F01882309F4B2C1853239F423FD7A
:10151000859123FF81912F01853229F490E0B30159
:101520000E947A0CE7CF982FFF24EE249924FFE144
:10153000FF15D0F09B3269F09C3228F4903259F0BC
:10154000933291F40EC09D3249F0903369F441E03A
:1015500024C052E0F52A84E0F82A28C098E0F92A4D
:1015600025C0E0E1FE2A22C0F7FC29C0892F805364
:101570008A3070F4F6FE05C0989C902C1124980EC9
:1015800015C0E89CE02C1124E80EF0E2FF2A0EC002
:101590009E3229F4F6FC6BC140E4F42A07C09C3665
:1015A00019F450E8F52A02C0983649F4F20123FDF7
:1015B000959123FF91912F01992309F0B8CF892F9D
:1015C0008554833018F08052833038F444E050E082
:1015D000A40EB51E5FE359830FC0933631F09337E5
:1015E00079F0933509F056C020C0F50180818983D8
:1015F00042E050E0A40EB51E610101E010E012C00F
:10160000F501C080D180F6FC03C06FEF7FEF02C010
:10161000692D70E042E050E0A40EB51EC6010E94A4
:101620005F0C8C015FE7F52214C0F501C080D1800A
:10163000F6FC03C06FEF7FEF02C0692D70E042E05F
:1016400050E0A40EB51EC6010E94540C8C0150E857
:10165000F52AF3FE07C01AC080E290E0B3010E94B1
:101660007A0CEA948E2D90E008171907A8F30EC0A3
:10167000F601F7FC8591F7FE81916F0190E0B301CF
:101680000E947A0CE110EA940150104001151105F6
:1016900079F7EAC0943611F0993669F5F7FE08C07B
:1016A000F501208131814281538184E090E00AC0BC
:1016B000F501808191819C01442737FD4095542F8D
:1016C00082E090E0A80EB91E9FE6F92257FF09C0FC
:1016D00050954095309521953F4F4F4F5F4FE0E833
:1016E000FE2ACA01B901A1012AE030E00E94A60C3D
:1016F000D82ED21840C0953729F41F2D1F7E2AE01E
:1017000030E01DC01F2D197F9F3661F0903720F407
:10171000983509F0ACC00FC0903739F0983709F010
:10172000A6C004C028E030E00AC0106114FD1460B7
:1017300020E130E004C014FD166020E132E017FF24
:1017400008C0F501608171818281938144E050E09D
:1017500008C0F50180819181BC0180E090E042E009
:1017600050E0A40EB51EA1010E94A60CD82ED218DE
:101770008FE7F82EF122F6FE0BC05EEFF522D914AA
:1017800038F4F4FE07C0F2FC05C08FEEF82202C068
:101790001D2D01C0192DF4FE0DC0FE01ED0DF11D32
:1017A0008081803319F499EEF92208C01F5FF2FEA0
:1017B00005C003C08F2D867809F01F5F0F2DF3FC45
:1017C00014C0F0FE0FC01E1510F09D2C0BC09D2CF8
:1017D0009E0C911A1E2D06C080E290E0B3010E947B
:1017E0007A0C1F5F1E15C0F304C01E1510F4E11A19
:1017F00001C0EE2404FF0FC080E390E0B3010E941B
:101800007A0C02FF1DC001FD03C088E790E00EC006
:1018100088E590E00BC0802F867891F001FF02C030
:101820008BE201C080E2F7FC8DE290E0B3010E9400
:101830007A0C06C080E390E0B3010E947A0C9A947F
:10184000D914C0F3DA94F101ED0DF11D808190E01F
:10185000B3010E947A0CDD20A9F706C080E290E077
:10186000B3010E947A0CEA94EE20C1F743CEF30153
:1018700066817781CB012B960FB6F894DEBF0FBE41
:10188000CDBFCF91DF911F910F91FF90EF90DF902F
:10189000CF90BF90AF909F908F907F906F905F9010
:1018A0004F903F902F900895FC010590615070403B
:1018B0000110D8F7809590958E0F9F1F0895FC0119
:1018C0006150704001900110D8F7809590958E0F6F
:1018D0009F1F0895DC01FC01672F71917723E1F7C9
:1018E000329704C07C916D9370836291AE17BF07ED
:1018F000C8F308950F931F93CF93DF938C01EB01EF
:101900008B8181FF1BC082FF0DC02E813F818C81A6
:101910009D812817390764F4E881F9810193F983DF
:10192000E88306C0E885F985802F0995892B31F475
:101930008E819F8101969F838E8302C00FEF1FEFE0
:10194000C801DF91CF911F910F910895FA01AA2745
:10195000283051F1203181F1E8946F936E7F6E5FF2
:101960007F4F8F4F9F4FAF4FB1E03ED0B4E03CD0A0
:10197000670F781F891F9A1FA11D680F791F8A1F83
:10198000911DA11D6A0F711D811D911DA11D20D0EA
:1019900009F468943F912AE0269F11243019305DA4
:1019A0003193DEF6CF010895462F4770405D419395
:1019B000B3E00FD0C9F7F6CF462F4F70405D4A33E2
:1019C00018F0495D31FD4052419302D0A9F7EACFAA
:1019D000B4E0A6959795879577956795BA95C9F7D9
:1019E00000976105710508959B01AC010A2E0694CC
:1019F0005795479537952795BA95C9F7620F731F85
:0C1A0000841F951FA01D0895F894FFCFCF
:101A0C0041542B444641554C540041542B534C45A6
:101A1C004550000041540041542B4655256400416B
:101A2C00542B5025640041542B4325303364004122
:101A3C00542B4225643030002D0023000A0D000A7F
:101A4C000D0A0D0025632563256325632563256336
:101A5C00256325630053706565643A202530326434
:101A6C002020202020202000253035646D56202594
:061A7C00303364636D00CD
:00000001FF
