:100000000C9446000C9451020C9468020C947F02EC
:100010000C9465000C9465000C9465000C946500CC
:100020000C9465000C9465000C9465000C946500BC
:100030000C9465000C9465000C9465000C94BB0155
:100040000C9465000C9465000C9465000C9465009C
:100050000C9465000C9465000C9465000C9465008C
:100060000C9465000C9465000C9465000C9465007C
:100070000C9465000C9465000C9465000C9465006C
:100080000C9465000C9465000C94650011241FBE4F
:10009000CFEFD0E4DEBFCDBF11E0A0E0B1E0E4E0FF
:1000A000F8E200E00BBF02C007900D92AA36B1073C
:1000B000D9F711E0AAE6B1E001C01D92A13AB1075B
:1000C000E1F70E9464080C9400140C9400008093E3
:1000D0007E00EAE7F0E0808187608083ACE7B0E0F3
:1000E0008C9180648C938081806C80830895909142
:1000F0007C00907F90937C0090917C008770892B8E
:1001000080937C0080917A00806480937A00809153
:100110007A0086FDFCCF2091780030917900C901EA
:10012000089580936A0190916B01282F29272093CD
:100130006C01922390936E01282320936D0180938C
:100140006B010895282F10926F0110927001109288
:10015000710180916E01982F82FF03C081E080932E
:10016000710190FF02C021FD08C091FF05C020FF72
:1001700003C081E080937001089581E080936F0156
:10018000F4CF60937A012093790180937E014093AC
:100190007D01089560937A016093790180937E01D7
:1001A00080937D01089510927A0110927901109246
:1001B0007E0110927D01089580937A0180937901E8
:1001C00010927E0181E080937D01089580937A01F1
:1001D0008093790181E080937E0110927D010895E2
:1001E00084B1886784B984B5816A84BDE0E8F0E0B1
:1001F000808181608083E1E8F0E080818860808395
:1002000085B5816085BD8081856080837894EFE6C7
:10021000F0E0808181608083E9E6F0E080818560A4
:1002200080838DB383608DBB10927A011092790127
:1002300010927E0110927D0108959093C5008093E5
:10024000C400519A88E18093C1008EE08093C2007F
:1002500008958091C000881F8827881F0895982FCF
:100260008091C00085FFFCCF9093C6000895FC01EB
:100270009081992351F031968091C00085FFFCCF89
:100280009093C60090819923B1F708958091C000A2
:1002900087FFFCCF8091C6000895AC01FC0120E0EF
:1002A0008091C00087FFFCCF8091C6008D3021F087
:1002B00081932F5F2035A1F7FA01E20FF11D108223
:1002C000842F08958091C00087FF06C08091C600EA
:1002D0008091C00087FDFACF089594B1906B94B9D6
:1002E00091E59CBD882321F48CB58F7D8CBD08954C
:1002F0008CB580628CBD0895982F662341F08DB532
:1003000081608DBD9EBD0DB407FEFDCF08958DB5F6
:100310008E7F8DBDF7CF80E485B98CBD08950DB477
:1003200007FEFDCF8EB50895089A009A089581E0E2
:1003300082B985E38A95F1F712B8019BFECF60E0A0
:1003400070E080E090E008C0603F25E5720720E0A3
:10035000820720E0920731F06F5F7F4F8F4F9F4FF2
:100360000199F2CF27E330E040E050E00E94CD1049
:10037000CA01B90108951F920F920FB60F9211246E
:100380002F933F934F935F938F939F93209175018A
:1003900030917601109276011092750140917701AB
:1003A0005091780110927801109277018091790133
:1003B000882331F510927B0180917A01882309F01E
:1003C00044C010927C0180917D01882379F12D9A9F
:1003D00080917B01809587BD80917E01882379F58E
:1003E0002E9880917C01809588BD9F918F915F911F
:1003F0004F913F912F910F900FBE0F901F90189526
:100400008091790190E028173907B8F1809179013E
:1004100090E08217930780F680917B01882361F238
:1004200080917B01815080937B01C6CF2D98809174
:100430007B01809587BD80917E01882389F22E9A69
:1004400080917C01809588BDD0CF80917A0190E029
:1004500048175907E0F080917A0190E084179507DA
:1004600008F0B1CF80917C01882309F4ACCF809152
:100470007C01815080937C01A6CF80917B018F3FCE
:1004800029F280917B018F5F80937B0195CF8091D2
:100490007C018F3F01F380917C018F5F80937C0111
:1004A00092CF1F920F920FB60F9211248F939F93AA
:1004B00080917501909176010196909376018093D9
:1004C00075019F918F910F900FBE0F901F901895FF
:1004D0001F920F920FB60F9211248F939F938091CA
:1004E000770190917801019690937801809377013C
:1004F0009F918F910F900FBE0F901F9018951F9294
:100500000F920FB60F9211248F939F9380917301D6
:1005100091E08927809373019F918F910F900FBE77
:100520000F901F901895FC019081992369F0662324
:1005300061F08DB581608DBD9EBD0DB407FEFDCF10
:1005400031969081992399F708958DB58E7F8DBD51
:10055000F3CFFC012F9820E030E040E951E0CA01E0
:100560000197F1F72F5F3F4F81E020393807B9F746
:100570009081992351F031968091C00085FFFCCF86
:100580009093C60090819923B1F72F9A20E030E034
:1005900040E951E0CA010197F1F72F5F3F4F87E033
:1005A000203D3807B9F70895282F80936A0180917C
:1005B0006B01922F982790936C01892380936E0191
:1005C000922390936D0120936B0110926F01109212
:1005D000700110927101982F82FF03C081E0809317
:1005E000710190FF02C021FD08C091FF05C020FFEE
:1005F00003C081E080937001089581E080936F01D2
:10060000F4CFCF92DF92EF92FF920F931F93CF938D
:10061000DF9380917201882309F4D5C14FE7E42E5E
:1006200041E0F42E0EE010E0C0E9D1E0DD24D394E7
:1006300035E3C32E10938B0000938A0020E030E056
:10064000CE010197F1F72F5F3F4F82E02835380741
:10065000B9F7D2B88C2D8A95F1F712B8019BFECF6D
:1006600060E070E080E090E008C0603FE5E57E0774
:10067000E0E08E07E0E09E0731F06F5F7F4F8F4F25
:100680009F4F0199F2CF27E330E040E050E00E9415
:10069000CD10F701219331937F010F5F1F4F0F3171
:1006A000110541F6109272018091740190E0059657
:1006B000880F991F609181017091820186179707B9
:1006C00050F020917F0130918001FB013A96E217B2
:1006D000F30708F0C3C140E050E0E0918301F091DE
:1006E00084018E179F07A8F0EF012A96C617D70737
:1006F00080F0DF011A976A177B0758F02091850177
:1007000030918601C217D30720F02A173B0708F063
:100710005062609185017091860186179707A8F055
:10072000EB012A96CE17DF0780F0DB011A97EA1754
:10073000FB0758F02091870130918801C217D30739
:1007400020F02A173B0708F05061E0918701F091F3
:1007500088018E179F07A8F0EF012A96C617D707C2
:1007600080F0DF011A976A177B0758F02091890102
:1007700030918A01C217D30720F02A173B0708F0EF
:1007800058606091890170918A0186179707A8F0D7
:10079000EB012A96CE17DF0780F0DB011A97EA17E4
:1007A000FB0758F020918B0130918C01C217D307C1
:1007B00020F02A173B0708F05460E0918B01F0917C
:1007C0008C018E179F07A8F0EF012A96C617D7074E
:1007D00080F0DF011A976A177B0758F020918D018E
:1007E00030918E01C217D30720F02A173B0708F07B
:1007F000526060918D0170918E0186179707A8F065
:10080000EB012A96CE17DF0780F0DB011A97EA1773
:10081000FB0758F020918F0130919001C217D30748
:1008200020F02A173B0708F05160E0918F01F0910A
:1008300090018E179F07A8F0EF012A96C617D707D9
:1008400080F0DF011A976A177B0758F02091910119
:1008500030919201C217D30720F02A173B0708F006
:100860004068609191017091920186179707A8F0F6
:10087000EB012A96CE17DF0780F0DB011A97EA1703
:10088000FB0758F02091930130919401C217D307D0
:1008900020F02A173B0708F04064E0919301F091A3
:1008A00094018E179F07A8F0EF012A96C617D70765
:1008B00080F0DF011A976A177B0758F020919501A5
:1008C00030919601C217D30720F02A173B0708F092
:1008D0004062609195017091960186179707A8F084
:1008E000EB012A96CE17DF0780F0DB011A97EA1793
:1008F000FB0758F02091970130919801C217D30758
:1009000020F02A173B0708F04061E0919701F09131
:1009100098018E179F07A8F0EF012A96C617D707F0
:1009200080F0DF011A976A177B0758F02091990130
:1009300030919A01C217D30720F02A173B0708F01D
:1009400048606091990170919A0186179707A8F005
:10095000EB012A96CE17DF0780F0DB011A97EA1722
:10096000FB0758F020919B0130919C01C217D307DF
:1009700020F02A173B0708F0446020919B0130913A
:100980009C0182179307A8F0F9013A96E617F7073A
:1009900080F0C9010A976817790758F020919D01E6
:1009A00030919E01E217F30720F02817390708F06D
:1009B0004260CA01DF91CF911F910F91FF90EF909C
:1009C000DF90CF90089591EAE92E91E0F92E0FE1A2
:1009D00010E0C0E9D1E0DD24D39485E3C82E109364
:1009E0008B0000938A0020E030E0CE010197F1F700
:1009F0002F5F3F4FF2E028353F07B9F7D2B88C2D73
:100A00008A95F1F712B8019BFECF60E070E080E0BC
:100A100090E008C0603F25E5720720E0820720E0F3
:100A2000920731F06F5F7F4F8F4F9F4F0199F2CF49
:100A300027E330E040E050E00E94CD10F701318321
:100A40002083015010408EEF9FEFE80EF91E0E300C
:100A5000110529F681E08093720126CEAB014A5040
:100A600050402417350708F436CE20918301309189
:100A70008401E217F30708F42ECE2417350708F493
:100A80002ACE40E050E429CE2F9820E030E040E923
:100A900051E0CA010197F1F72F5F3F4F81E0203904
:100AA0003807B9F7E0E0F1E091E431968091C000B9
:100AB00085FFFCCF9093C60090819923B1F72F9AC0
:100AC00020E030E040E951E0CA010197F1F72F5FE3
:100AD0003F4F87E0203D3807B9F708952F9820E071
:100AE00030E040E951E0CA010197F1F72F5F3F4F35
:100AF00081E020393807B9F7EAE0F1E091E4319676
:100B00008091C00085FFFCCF9093C600908199230F
:100B1000B1F72F9A20E030E040E951E0CA01019797
:100B2000F1F72F5F3F4F87E0203D3807B9F7089571
:100B30002F9820E030E040E951E0CA010197F1F739
:100B40002F5F3F4F81E020393807B9F72F9A20E017
:100B500030E040E951E0CA010197F1F72F5F3F4FC4
:100B600087E0203D3807B9F708952F9820E030E05E
:100B700040E951E0CA010197F1F72F5F3F4F81E053
:100B800020393807B9F7E3E1F1E091E4319680913B
:100B9000C00085FFFCCF9093C60090819923B1F7E8
:100BA0002F9A20E030E040E951E0CA010197F1F7C7
:100BB0002F5F3F4F87E0203D3807B9F708950F9327
:100BC0001F93DF93CF93CDB7DEB728970FB6F89476
:100BD000DEBF0FBECDBF00D000D000D0EDB7FEB756
:100BE00031968E010F5F1F4FADB7BEB712961C93A3
:100BF0000E93119726E131E033832283992787FDF5
:100C00009095958384830E9405112F9820E030E011
:100C10008DB79EB706960FB6F8949EBF0FBE8DBFD8
:100C200040E951E0CA010197F1F72F5F3F4F91E092
:100C300020393907B9F79981992359F0F80131968C
:100C40008091C00085FFFCCF9093C60090819923CE
:100C5000B1F72F9A20E030E040E951E0CA01019756
:100C6000F1F72F5F3F4FA7E0203D3A07B9F72896ED
:100C70000FB6F894DEBF0FBECDBFCF91DF911F91AD
:100C80000F9108950F931F93DF93CF9300D000D05F
:100C90000F92CDB7DEB700D000D000D0EDB7FEB7D1
:100CA00031968E010F5F1F4FADB7BEB712961C93E2
:100CB0000E9311972EE131E033832283992787FD2C
:100CC0009095958384830E9405112F9820E030E051
:100CD0008DB79EB706960FB6F8949EBF0FBE8DBF18
:100CE00040E951E0CA010197F1F72F5F3F4F91E0D2
:100CF00020393907B9F79981992359F0F8013196CC
:100D00008091C00085FFFCCF9093C600908199230D
:100D1000B1F72F9A20E030E040E951E0CA01019795
:100D2000F1F72F5F3F4FA7E0203D3A07B9F70F904B
:100D30000F900F900F900F90CF91DF911F910F9117
:100D400008950F931F93DF93CF9300D000D00F929D
:100D5000CDB7DEB700D000D000D0EDB7FEB73196EA
:100D60008E010F5F1F4FADB7BEB712961C930E9347
:100D7000119725E231E033832283992787FD9095EF
:100D8000958384830E9405112F9820E030E08DB771
:100D90009EB706960FB6F8949EBF0FBE8DBF40E972
:100DA00051E0CA010197F1F72F5F3F4F91E02039E1
:100DB0003907B9F79981992359F0F8013196809153
:100DC000C00085FFFCCF9093C60090819923B1F7B6
:100DD0002F9A20E030E040E951E0CA010197F1F795
:100DE0002F5F3F4FA7E0203D3A07B9F70F900F90D4
:100DF0000F900F900F90CF91DF911F910F91089559
:100E00000F931F93DF93CF93CDB7DEB727970FB61E
:100E1000F894DEBF0FBECDBF00D000D000D0EDB73C
:100E2000FEB731968E010F5F1F4FADB7BEB712965A
:100E30001C930E9311972EE231E03383228399277E
:100E400087FD9095958384830E9405112F9820E05B
:100E500030E08DB79EB706960FB6F8949EBF0FBED2
:100E60008DBF40E951E0CA010197F1F72F5F3F4F75
:100E700091E020393907B9F79981992359F0F801A0
:100E800031968091C00085FFFCCF9093C600908181
:100E90009923B1F72F9A20E030E040E951E0CA01F0
:100EA0000197F1F72F5F3F4FA7E0203D3A07B9F7D1
:100EB00027960FB6F894DEBF0FBECDBFCF91DF915E
:100EC0001F910F910895EF92FF920F931F93DF935D
:100ED000CF93CDB7DEB72C970FB6F894DEBF0FBE19
:100EE000CDBFF62EE42E279A00D000D000D0EDB76B
:100EF000FEB731968E010A5F1F4FADB7BEB712968F
:100F00001C930E9311972EE231E0338322839927AD
:100F100087FD9095958384830E9405112F9820E08A
:100F200030E08DB79EB706960FB6F8949EBF0FBE01
:100F30008DBF40E951E0CA010197F1F72F5F3F4FA4
:100F400091E020393907B9F79E81992359F0F801CA
:100F500031968091C00085FFFCCF9093C6009081B0
:100F60009923B1F72F9A20E030E040E951E0CA011F
:100F70000197F1F72F5F3F4FA7E0203D3A07B9F700
:100F800000D000D000D0EDB7FEB731968E010F5FD4
:100F90001F4FADB7BEB712961C930E93119785E203
:100FA00091E0938382838F2D992787FD9095958378
:100FB00084830E9405112F9820E030E08DB79EB702
:100FC00006960FB6F8949EBF0FBE8DBF40E951E064
:100FD000CA010197F1F72F5F3F4F91E020393907A0
:100FE000B9F79981992359F0F80131968091C000A1
:100FF00085FFFCCF9093C60090819923B1F72F9A7B
:1010000020E030E040E951E0CA010197F1F72F5F9D
:101010003F4FA7E0203D3A07B9F700D000D000D0FD
:10102000EDB7FEB73196ADB7BEB712961C930E93CF
:1010300011978EE191E0938382838E2D992787FD0E
:101040009095958384830E9405112F9820E030E0CD
:101050008DB79EB706960FB6F8949EBF0FBE8DBF94
:1010600040E951E0CA010197F1F72F5F3F4F91E04E
:1010700020393907B9F79981992359F0F801319648
:101080008091C00085FFFCCF9093C600908199238A
:10109000B1F72F9A20E030E040E951E0CA01019712
:1010A000F1F72F5F3F4FA7E0203D3A07B9F72C96A5
:1010B0000FB6F894DEBF0FBECDBFCF91DF911F9169
:1010C0000F91FF90EF9008952F923F924F925F9271
:1010D0006F927F928F929F92AF92BF92CF92DF9248
:1010E000EF92FF920F931F93DF93CF93CDB7DEB7AD
:1010F0006E970FB6F894DEBF0FBECDBF11B88FEF5D
:1011000087B9549A87E085B9809180008062809386
:10111000800087E190E090938B0080938A0080911B
:101120006900806280936900EA9A84B1886784B913
:1011300084B5816A84BD8091800081608093800045
:101140008091810088608093810085B5816085BD34
:1011500080918100856080938100789480916F00F8
:10116000816080936F008091690085608093690041
:101170008DB383608DBB10927A0110927901109229
:101180007E0110927D018CE00E94C60E479A87E690
:1011900090E09093C5008093C400519A88E18093B9
:1011A000C1008EE08093C200279A00D000D000D00A
:1011B000EDB7FEB731968E010A5F1F4FADB7BEB7D0
:1011C00012961C930E9311978EE291E09383828383
:1011D00080E690E0958384830E9405112F9820E09B
:1011E00030E0EDB7FEB736960FB6F894FEBF0FBEEF
:1011F000EDBF40E951E0CA010197F1F72F5F3F4F82
:10120000F1E020393F07B9F79E81992359F0F801A1
:1012100031968091C00085FFFCCF9093C6009081ED
:101220009923B1F72F9A80E090E020E931E0F901AD
:101230003197F1F7019647E0803D9407C1F700D060
:1012400000D000D0EDB7FEB731968E010F5F1F4F73
:10125000ADB7BEB712961C930E93119785E291E03D
:101260009383828381E090E0958384830E940511BB
:101270002F9820E030E0EDB7FEB736960FB6F89421
:10128000FEBF0FBEEDBF40E951E0CA010197F1F783
:101290002F5F3F4FF1E020393F07B9F7998199233C
:1012A00059F0F80131968091C00085FFFCCF9093F2
:1012B000C60090819923B1F72F9A80E090E020E951
:1012C00031E0F9013197F1F7019647E0803D94074D
:1012D000C1F700D000D000D0EDB7FEB73196ADB762
:1012E000BEB712961C930E9311978EE191E09383F3
:1012F000828381E090E0958384830E9405112F987A
:1013000020E030E0EDB7FEB736960FB6F894FEBF9A
:101310000FBEEDBF40E951E0CA010197F1F72F5F21
:101320003F4FF1E020393F07B9F79981992359F0F0
:10133000F80131968091C00085FFFCCF9093C600E4
:1013400090819923B1F72F9A80E090E020E931E075
:10135000F9013197F1F7019647E0803D9407C1F715
:10136000089A009A8DE0C82ED12CCC0EDD1E07E322
:10137000402E01E0502E1BE4212E11E0312E772467
:101380007394B5E36B2E23B120936A0180916B01B6
:10139000982F922790936C01892380936E0192235A
:1013A00090936D0120936B0110926F011092700168
:1013B0001092710182FF02C07092710180FF04C01F
:1013C00021FF02C070926F0181FF04C020FF02C0A4
:1013D0007092700180916F01882309F4B0C08091F0
:1013E0007401823308F0ABC08F5F809374018091E9
:1013F0007301882309F0B5C0E7E1F0E0F0938B00BA
:10140000E0938A0072B8862D8A95F1F712B8019B95
:10141000FECF60E070E080E090E008C0603FF5E55E
:101420007F07F0E08F07F0E09F0731F06F5F7F4F9D
:101430008F4F9F4F0199F2CF27E330E040E050E01B
:101440000E94CD103093900120938F014091740140
:10145000642F70E0CB010596880F991F2817390774
:1014600008F084C110927A011092790110927E01E5
:1014700010927D0100D000D000D0EDB7FEB73196BC
:10148000ADB7BEB71296DC92CE921197338222820C
:10149000758364830E940511EDB7FEB736960FB6CB
:1014A000F894FEBF0FBEEDBF80E061E00E94FE0F2A
:1014B000C6010E94BC0D00D000D000D0EDB7FEB731
:1014C0003196ADB7BEB71296DC92CE92119727E552
:1014D00031E03383228380918F0190919001958335
:1014E00084830E9405119D854DB75EB74A5F5F4FAB
:1014F0000FB6F8945EBF0FBE4DBF992359F0F601A9
:1015000031968091C00085FFFCCF9093C6009081FA
:101510009923B1F7E8E4F1E09AE031968091C000B8
:1015200085FFFCCF9093C60090819923B1F780E0AE
:1015300060E00E94FE0FC6010E94BC0D24CF809186
:101540007001882309F453CF80917401882309F432
:101550004ECF81508093740180917301882309F4E8
:101560004BCF0E9401038C019C012070317090FDD3
:1015700006C184729070892B09F046C1C801807041
:101580009874892B09F0FBC08091740180937A01D3
:101590008093790170927E0170927D01812F99274D
:1015A00087FD90958827990F881F9927C09616FD6B
:1015B0000DC1F0E38F2E912C15FDECC070E3A72E2A
:1015C000B12C14FDECC050E3E52EF12C13FDECC062
:1015D000A0E3B0E0BE8FAD8F12FDECC060E370E021
:1015E00011FDECC040E350E0232B09F0ECC020E3F8
:1015F00030E0ADB7BEB754970FB6F894BEBF0FBE7C
:10160000ADBFEDB7FEB731961296DC92CE92119730
:10161000538242829583848397828682B186A08694
:10162000F386E2868D8D9E8D958784877787668782
:10163000518B408B338B228B0E9405119D85ADB75A
:10164000BEB754960FB6F894BEBF0FBEADBF992378
:1016500059F0F60131968091C00085FFFCCF909340
:10166000C60090819923B1F780E060E00E94FE0FF0
:10167000C6010E94BC0D0023802F992787FD9095FD
:101680008827990F881F9927C09606FDB9C0B0E337
:101690008B2E912C05FDB0C0F0E3AF2EB12C04FDD4
:1016A000A7C070E3E72EF12C03FD9DC0E0E3F0E05E
:1016B000FE8FED8F02FD94C060E370E001FD8DC0F0
:1016C00040E350E000FD86C020E330E0ADB7BEB798
:1016D00054970FB6F894BEBF0FBEADBFEDB7FEB7BF
:1016E00031961296DC92CE92119753824282958364
:1016F000848397828682B186A086F386E2868D8D6A
:101700009E8D9587848777876687518B408B338B37
:10171000228B0E9405119D85ADB7BEB754960FB6BA
:10172000F894BEBF0FBEADBF992359F0F6013196B4
:101730008091C00085FFFCCF9093C60090819923D3
:10174000B1F7E8E4F1E09AE031968091C00085FFBE
:10175000FCCF9093C60090819923B1F788E060E0B8
:101760000E94FE0FC6010E94BC0D0DCE40937A016F
:101770004093790170927E0170927D017BCE8091C1
:10178000740180937A018093790170927E011092A6
:101790007D0104CF61E3A62EB12C14FF14CF41E3E9
:1017A000E42EF12C13FF14CFE1E3F0E0FE8FED8F78
:1017B00012FF14CF61E370E011FF14CF41E350E05A
:1017C000232B09F414CF21E330E013CFE1E38E2E75
:1017D000912CF2CE21E330E079CF41E350E072CF9B
:1017E00061E370E06BCF21E330E03E8F2D8F62CF5D
:1017F00061E3E62EF12C58CFE1E3AE2EB12C4FCFB2
:10180000A1E38A2E912C46CF8091740180937A01B6
:101810008093790110927E0170927D01BFCE282FB6
:101820004698459A87B1807F87B9449A00C086B1AF
:10183000449800C0449A00C096B1449883FDF0CF0C
:1018400088E090E00197F1F74698459A87B1807F4C
:1018500087B9449A00C086B1449800C0449A00C039
:1018600086B14498469A459887B18F6087B998B1F8
:10187000907F822F82958F70892B88B9449A00C0FF
:1018800044982F70292B28B9449A00C044989F602F
:1018900098B90895282F4698459A87B1807F87B9CF
:1018A000449A00C086B1449800C0449A00C096B1E2
:1018B000449883FDF0CF88E090E00197F1F74698D7
:1018C000459A87B1807F87B9449A00C086B1449811
:1018D00000C0449A00C086B144984698459887B1A4
:1018E0008F6087B998B1907F822F82958F70892BF6
:1018F00088B9449A00C044982F70292B28B9449A7B
:1019000000C044989F6098B908954698459A87B159
:10191000807F87B9449A00C086B1449800C0449A39
:1019200000C096B1449883FDF0CF88E090E0019725
:10193000F1F74698459A87B1807F87B9449A00C0ED
:1019400086B1449800C0449A00C096B18295807FC9
:101950009F704498892B90E008950F931F93DF9315
:10196000CF93CDB7DEB764970FB6F894DEBF0FBE46
:10197000CDBF8E010F5F1F4FB8014AE050E00E94BB
:10198000EF10F80148E050E02191222309F463C0F0
:101990004698459A87B1807F87B9449A00C086B13E
:1019A000449800C0449A00C096B1449883FDF0CF9B
:1019B000CA010197F1F74698459A87B1807F87B9A8
:1019C000449A00C096B1449800C0449A00C086B1C1
:1019D00044982A3009F04AC09295907F8F70982BD6
:1019E000903408F45BC028E04698459A87B1807F20
:1019F00087B9449A00C086B1449800C0449A00C098
:101A000096B1449883FDF0CFCA010197F1F746984B
:101A1000459A87B1807F87B9449A00C086B14498BF
:101A200000C0449A00C086B144984698459887B152
:101A30008F6087B988B1807F282B28B9449A00C06D
:101A4000449888B9449A00C044988F6088B921911D
:101A5000222309F09DCF64960FB6F894DEBF0FBE27
:101A6000CDBFCF91DF911F910F910895469A459870
:101A700087B18F6087B998B1907F822F82958F70E0
:101A8000892B88B9449A00C044982F70292B28B913
:101A9000449A00C044989F6098B976CF2CE0A4CFB8
:101AA0004698459A87B1807F87B9449A00C086B12D
:101AB000449800C0449A00C096B1449883FDF0CF8A
:101AC00088E090E00197F1F74698459A87B1807FCA
:101AD00087B9449A00C086B1449800C0449A00C0B7
:101AE00086B144984698459887B18F6087B988B188
:101AF000807F88B9449A00C04498982F916098B923
:101B0000449A00C044988F6088B908954698459AD1
:101B100087B1807F87B9449A00C086B1449800C0DD
:101B2000449A00C096B1449883FDF0CF88E090E0DD
:101B30000197F1F74698459A87B1807F87B9449A13
:101B400000C086B1449800C0449A00C086B1449851
:101B50004698459887B18F6087B988B1807F88B9EA
:101B6000449A00C04498982F926098B9449A00C053
:101B700044988F6088B90895FC0148E050E02191B5
:101B8000222309F463C04698459A87B1807F87B9BC
:101B9000449A00C086B1449800C0449A00C096B1EF
:101BA000449883FDF0CFCA010197F1F74698459A12
:101BB00087B1807F87B9449A00C096B1449800C02D
:101BC000449A00C086B144982A3009F040C09295EA
:101BD000907F8F70982B903408F451C028E046987D
:101BE000459A87B1807F87B9449A00C086B14498EE
:101BF00000C0449A00C096B1449883FDF0CFCA015A
:101C00000197F1F74698459A87B1807F87B9449A42
:101C100000C086B1449800C0449A00C086B1449880
:101C20004698459887B18F6087B988B1807F282B07
:101C300028B9449A00C0449888B9449A00C044988E
:101C40008F6088B92191222309F09DCF0895469A8B
:101C5000459887B18F6087B998B1907F822F829520
:101C60008F70892B88B9449A00C044982F70292B13
:101C700028B9449A00C044989F6098B980CF2CE05E
:101C8000AECFAC0168E070E0FA014F5F5F4F249186
:101C9000222309F47AC04698459A87B1807F87B994
:101CA000449A00C086B1449800C0449A00C096B1DE
:101CB000449883FDF0CFCB010197F1F74698459A00
:101CC00087B1807F87B9449A00C096B1449800C01C
:101CD000449A00C086B144982A3009F03CC09295DD
:101CE000907F8F70982B903408F44DC028E0469870
:101CF000459A87B1807F87B9449A00C086B14498DD
:101D000000C0449A00C096B1449883FDF0CFCB0147
:101D10000197F1F74698459A87B1807F87B9449A31
:101D200000C086B1449800C0449A00C086B144986F
:101D30004698459887B18F6087B988B1807F282BF6
:101D400028B9449A00C0449888B9449A00C044987D
:101D50008F6088B999CF469A459887B18F6087B9C7
:101D600098B1907F822F82958F70892B88B9449A81
:101D700000C044982F70292B28B9449A00C0449879
:101D80009F6098B981CF2CE0B2CF0895282F87B1FA
:101D90008F6087B93E9A3D9A3C9A80E09AEF01970E
:101DA000F1F7419A409A449A00C0449880E09EE43A
:101DB0000197F1F7449A00C0449880E091E0FC015B
:101DC0003197F1F7449A00C04498FC013197F1F73C
:101DD0004098449A00C044980197F1F74698459A74
:101DE00087B1807F87B9449A00C086B1449800C00B
:101DF000449A00C096B1449883FDF0CF88E090E00B
:101E00000197F1F74698459A87B1807F87B9449A40
:101E100000C086B1449800C0449A00C086B144987E
:101E20004698459887B18F6087B998B1907F892F80
:101E3000826088B9449A00C04498892F886088B924
:101E4000449A00C044989F6098B94698459A87B1D3
:101E5000807F87B9449A00C086B1449800C0449AF4
:101E600000C096B1449883FDF0CF88E090E00197E0
:101E7000F1F74698459A87B1807F87B9449A00C0A8
:101E800086B1449800C0449A00C086B144984698F0
:101E9000459887B18F6087B988B1807F88B9449AA7
:101EA00000C04498982F986098B9449A00C044980C
:101EB0008F6088B94698459A87B1807F87B9449AE0
:101EC00000C086B1449800C0449A00C096B14498BE
:101ED00083FDF0CF88E090E00197F1F74698459AAE
:101EE00087B1807F87B9449A00C086B1449800C00A
:101EF000449A00C086B144984698459887B18F604F
:101F000087B988B1807F88B9449A00C04498982FD7
:101F1000916098B9449A00C044988F6088B94698F7
:101F2000459A87B1807F87B9449A00C086B14498AA
:101F300000C0449A00C096B1449883FDF0CF88E079
:101F400090E00197F1F74698459A87B1807F87B96D
:101F5000449A00C086B1449800C0449A00C086B13B
:101F600044984698459887B18F6087B988B1807F3B
:101F700088B9449A00C04498982F966098B9449ABA
:101F800000C044988F6088B94698459A87B1807F91
:101F900087B9449A00C086B1449800C0449A00C0F2
:101FA00096B1449883FDF0CF88E090E00197F1F777
:101FB0004698459A87B1807F87B9449A00C086B118
:101FC000449800C0449A00C086B144984698459809
:101FD00087B18F6087B998B1907F822F82958F707B
:101FE000892B88B9449A00C044982F70292B28B9AE
:101FF000449A00C044989F6098B90895662309F4F4
:102000003CC0282F20544698459A87B1807F87B9D5
:10201000449A00C086B1449800C0449A00C096B16A
:10202000449883FDF0CF88E090E00197F1F746985F
:10203000459A87B1807F87B9449A00C086B1449899
:1020400000C0449A00C086B144984698459887B12C
:102050008F6087B998B1907F822F82958F70892B7E
:1020600088B9449A00C044982F70292B28B9449A03
:1020700000C044989F6098B90895282F205846982A
:10208000459A87B1807F87B9449A00C086B1449849
:1020900000C0449A00C096B1449883FDF0CFC3CFEE
:1020A000282F4698459A87B1807F87B9449A00C007
:1020B00086B1449800C0449A00C096B1449883FD0C
:1020C000F0CF88E090E00197F1F74698459A87B104
:1020D000807F87B9449A00C096B1449800C0449A62
:1020E00000C086B144982A3009F03DC09295907F97
:1020F0008F70982B903408F44EC028E04698459A8B
:1021000087B1807F87B9449A00C086B1449800C0E7
:10211000449A00C096B1449883FDF0CF88E090E0E7
:102120000197F1F74698459A87B1807F87B9449A1D
:1021300000C086B1449800C0449A00C086B144985B
:102140004698459887B18F6087B988B1807F282BE2
:1021500028B9449A00C0449888B9449A00C0449869
:102160008F6088B90895469A459887B18F6087B97E
:1021700098B1907F822F82958F70892B88B9449A6D
:1021800000C044982F70292B28B9449A00C0449865
:102190009F6098B908952CE0B1CFA1E21A2EAA1B36
:1021A000BB1BFD010DC0AA1FBB1FEE1FFF1FA21707
:1021B000B307E407F50720F0A21BB30BE40BF50B04
:1021C000661F771F881F991F1A9469F7609570958D
:1021D000809590959B01AC01BD01CF010895FB0155
:1021E0009F01423074F0453264F4642F77270E94D7
:1021F000EC13805D8A330CF0895D8193CB010097ED
:10220000A1F71082C9010C9452130F931F93DF930F
:10221000CF93CDB7DEB72E970FB6F894DEBF0FBEC3
:10222000CDBF0D891E8986E08C831A8309838FEFC9
:102230009FE79E838D839E01275E3F4FCE010196CF
:102240006F89788DA9010E9436112F813885020F80
:10225000131FF80110822E960FB6F894DEBF0FBE42
:10226000CDBFCF91DF911F910F9108952F923F9293
:102270004F925F926F927F928F929F92AF92BF9296
:10228000CF92DF92EF92FF920F931F93DF93CF9342
:10229000CDB7DEB72B970FB6F894DEBF0FBECDBF1C
:1022A0003C012B015A01FC0117821682838181FDBA
:1022B00003C06FEF7FEFC6C19AE0892E1E0108941C
:1022C000211C311CF3012381F20123FD859123FFA1
:1022D00081912F01882309F4B2C1853239F423FD9D
:1022E000859123FF81912F01853229F490E0B3017C
:1022F0000E946213E7CF982FFF24EE249924FFE178
:10230000FF15D0F09B3269F09C3228F4903259F0DE
:10231000933291F40EC09D3249F0903369F441E05C
:1023200024C052E0F52A84E0F82A28C098E0F92A6F
:1023300025C0E0E1FE2A22C0F7FC29C0892F805386
:102340008A3070F4F6FE05C0989C902C1124980EEB
:1023500015C0E89CE02C1124E80EF0E2FF2A0EC024
:102360009E3229F4F6FC6BC140E4F42A07C09C3687
:1023700019F450E8F52A02C0983649F4F20123FD19
:10238000959123FF91912F01992309F0B8CF892FBF
:102390008554833018F08052833038F444E050E0A4
:1023A000A40EB51E5FE359830FC0933631F0933707
:1023B00079F0933509F056C020C0F50180818983FA
:1023C00042E050E0A40EB51E610101E010E012C031
:1023D000F501C080D180F6FC03C06FEF7FEF02C033
:1023E000692D70E042E050E0A40EB51EC6010E94C7
:1023F00047138C015FE7F52214C0F501C080D1803E
:10240000F6FC03C06FEF7FEF02C0692D70E042E081
:1024100050E0A40EB51EC6010E943C138C0150E88A
:10242000F52AF3FE07C01AC080E290E0B3010E94D3
:102430006213EA948E2D90E008171907A8F30EC0D6
:10244000F601F7FC8591F7FE81916F0190E0B301F1
:102450000E946213E110EA94015010400115110529
:1024600079F7EAC0943611F0993669F5F7FE08C09D
:10247000F501208131814281538184E090E00AC0DE
:10248000F501808191819C01442737FD4095542FAF
:1024900082E090E0A80EB91E9FE6F92257FF09C01E
:1024A00050954095309521953F4F4F4F5F4FE0E855
:1024B000FE2ACA01B901A1012AE030E00E948E1370
:1024C000D82ED21840C0953729F41F2D1F7E2AE040
:1024D00030E01DC01F2D197F9F3661F0903720F42A
:1024E000983509F0ACC00FC0903739F0983709F033
:1024F000A6C004C028E030E00AC0106114FD1460DA
:1025000020E130E004C014FD166020E132E017FF46
:1025100008C0F501608171818281938144E050E0BF
:1025200008C0F50180819181BC0180E090E042E02B
:1025300050E0A40EB51EA1010E948E13D82ED21811
:102540008FE7F82EF122F6FE0BC05EEFF522D914CC
:1025500038F4F4FE07C0F2FC05C08FEEF82202C08A
:102560001D2D01C0192DF4FE0DC0FE01ED0DF11D54
:102570008081803319F499EEF92208C01F5FF2FEC2
:1025800005C003C08F2D867809F01F5F0F2DF3FC67
:1025900014C0F0FE0FC01E1510F09D2C0BC09D2C1A
:1025A0009E0C911A1E2D06C080E290E0B3010E949D
:1025B00062131F5F1E15C0F304C01E1510F4E11A4C
:1025C00001C0EE2404FF0FC080E390E0B3010E943D
:1025D000621302FF1DC001FD03C088E790E00EC03A
:1025E00088E590E00BC0802F867891F001FF02C053
:1025F0008BE201C080E2F7FC8DE290E0B3010E9423
:10260000621306C080E390E0B3010E9462139A94C3
:10261000D914C0F3DA94F101ED0DF11D808190E041
:10262000B3010E946213DD20A9F706C080E290E0AA
:10263000B3010E946213EA94EE20C1F743CEF30186
:1026400066817781CB012B960FB6F894DEBF0FBE63
:10265000CDBFCF91DF911F910F91FF90EF90DF9051
:10266000CF90BF90AF909F908F907F906F905F9032
:102670004F903F902F900895FC010590615070405D
:102680000110D8F7809590958E0F9F1F0895FC013B
:102690006150704001900110D8F7809590958E0F91
:1026A0009F1F0895DC01FC01672F71917723E1F7EB
:1026B000329704C07C916D9370836291AE17BF070F
:1026C000C8F308950F931F93CF93DF938C01EB0111
:1026D0008B8181FF1BC082FF0DC02E813F818C81C9
:1026E0009D812817390764F4E881F9810193F98302
:1026F000E88306C0E885F985802F0995892B31F498
:102700008E819F8101969F838E8302C00FEF1FEF02
:10271000C801DF91CF911F910F910895FA01AA2767
:10272000283051F1203181F1E8946F936E7F6E5F14
:102730007F4F8F4F9F4FAF4FB1E03ED0B4E03CD0C2
:10274000670F781F891F9A1FA11D680F791F8A1FA5
:10275000911DA11D6A0F711D811D911DA11D20D00C
:1027600009F468943F912AE0269F11243019305DC6
:102770003193DEF6CF010895462F4770405D4193B7
:10278000B3E00FD0C9F7F6CF462F4F70405D4A3304
:1027900018F0495D31FD4052419302D0A9F7EACFCC
:1027A000B4E0A6959795879577956795BA95C9F7FB
:1027B00000976105710508959B01AC010A2E0694EE
:1027C0005795479537952795BA95C9F7620F731FA7
:1027D000841F951FA01D0895AA1BBB1B51E107C0B4
:1027E000AA1FBB1FA617B70710F0A61BB70B881FA1
:1027F000991F5A95A9F780959095BC01CD01089530
:04280000F894FFCF7A
:1028040041542B444641554C540041542B534C45A0
:1028140045500041540041542B4655256400415411
:102824002B5025640041542B43253033640041541C
:102834002B422564303000256325632563256325F9
:1028440063256325632563000A0D00537065656481
:102854003A20253033640044697374616E63653AC9
:0A28640020253033642020200000FE
:00000001FF
