:100000000C9446000C9465000C9465000C946500FB
:100010000C9465000C9465000C9465000C946500CC
:100020000C9465000C9465000C9465000C946500BC
:100030000C9465000C9465000C9465000C946500AC
:100040000C9465000C9465000C9465000C9465009C
:100050000C9465000C9465000C9465000C9465008C
:100060000C9465000C9465000C9465000C9465007C
:100070000C9465000C9465000C9465000C9465006C
:100080000C9465000C9465000C94650011241FBE4F
:10009000CFEFD0E4DEBFCDBF19E0A0E0B1E0E4E1F6
:1000A000FCE000E00BBF02C007900D92AC33B1073B
:1000B000D9F719E0ACE3B9E001C01D92A434B1074F
:1000C000E1F70E9432010C9408060C940000909312
:1000D000C5008093C400219A88E18093C1008EE01E
:1000E0008093C2000895982F8091C00085FFFCCFB7
:1000F0009093C6000895FC0107C08091C00085FF61
:10010000FCCF31969093C60090819923B1F7089562
:10011000982F8091C00085FFFCCF9093C60080E0AF
:1001200090E0089594B1906B94B991E59CBD8823BB
:1001300019F08CB5806202C08CB58F7D8CBD08959E
:10014000982F662319F08DB5816002C08DB58E7F22
:100150008DBD9EBD0DB407FEFDCF08951F93CF93B7
:10016000DF93EC01162F04C02196612F0E94A0009E
:1001700088818823C9F7DF91CF911F91089580E48A
:1001800085B98CBD08950DB407FEFDCF8EB50895D9
:1001900080933C0990913D09282F292720933E09FF
:1001A000922390934009282320933F0980933D098F
:1001B0000895382F10924109109242091092430974
:1001C00090914009292F93FF03C081E08093430958
:1001D00097FF05C036FF03C081E08093410926FFE9
:1001E00005C037FF03C081E08093420908951F9343
:1001F000182F0E94C800812F0E94D9001F910895D6
:1002000080937E00EAE7F0E0808187608083ACE73E
:10021000B0E08C9180648C938081806C80830895A1
:1002200090917C00907F90937C0090917C008770EF
:10023000892B80937C0080917A00806480937A007F
:1002400080917A0086FDFCCF209178003091790072
:10025000C9010895FC01EE0FFF1FE55CFE4F808190
:1002600091810895AF92BF92CF92DF92EF92FF9269
:100270000F931F93DF93CF93CDB7DEB761970FB680
:10028000F894DEBF0FBECDBF1AB88FEF84B987B91F
:1002900080EF81B98FE00E9400018CE00E949B02F8
:1002A000198A7E010894E11CF11C3EE1A32E31E085
:1002B000B32E2FE0C22E21E0D22E89B10E94F7008A
:1002C00080E00E9410018C0181E00E941001FC017D
:1002D0008989813081F0813018F0823071F74AC00D
:1002E00081E060E00E94580280E091E00E9481027B
:1002F0008091430962C0EE0FFF1FE55CFE4F208135
:100300003181ADB7BEB718970FB6F894BEBF0FBE18
:10031000ADBFEDB7FEB731961296FC92EE921197F3
:10032000D382C282C9016AE070E00E94F70275833D
:100330006483C9016AE070E00E94F7028683178235
:100340000E9421038DB79EB708960FB6F8949EBF02
:100350000FBE8DBF80E060E00E945802C7010E947E
:10036000810280914109882309F4A7CF0E94640289
:1003700092E029C000D000D000D0EDB7FEB7319692
:10038000ADB7BEB71296FC92EE921197B382A282DD
:10039000158304830E9421038DB79EB706960FB67E
:1003A000F8949EBF0FBE8DBF80E060E00E945802AF
:1003B000C7010E94810280914209882309F47DCF00
:1003C0000E94640291E0998B78CF662311F0159A10
:1003D00001C0159816983C9A3D9A3E9A3F9A4798C4
:1003E00046984598449887FD479A86FD469A85FD2C
:1003F000459A84FD449A179A00C0179847984698E2
:100400004598449883FD479A82FD469A81FD459A16
:1004100080FD449A179A00C01798449A459A469AC4
:10042000479A0895882311F0159A01C01598169AD5
:100430003C983D983E983F98179A00C0349B02C064
:1004400080E101C080E035998062369980643799F7
:100450008068179800C0179A00C034998160359958
:10046000826036998460379988601798089580E093
:100470000E94120287FDFBCF84E090E00197F1F724
:1004800080E00E94120208951F93182F0E943702E5
:10049000812F60E00E94E5011F9108951F93182F9E
:1004A0000E943702812F61E00E94E5011F910895AB
:1004B000662311F4805801C080540E9444020895BC
:1004C0000E94370290E0089581E00E94440208955E
:1004D00082E00E94440208951F93182F0E94370261
:1004E0001A3049F4803410F080E001C080E4805874
:1004F0000E94440204C0812F61E00E94E5011F9127
:100500000895CF93DF93EC0102C00E946C028991A1
:100510008823D9F7DF91CF910895CF93DF93EC0132
:1005200002C00E946C02FE01219684918823C9F7C3
:10053000DF91CF9108951F93182F0D9A0E9A0F9A5D
:100540003C9A3D9A3E9A3F9A80E09DE70197F1F7E9
:10055000459A449A179A00C0179880E097E201974D
:10056000F1F7179A00C0179880E890E0FC013197E6
:10057000F1F7179A00C01798FC013197F1F74498EA
:10058000179A00C017980197F1F788E20E94440279
:1005900088E00E9444020E94640286E00E944402B5
:1005A000812F0E9444021F9108950F931F93DF93A0
:1005B000CF93CDB7DEB764970FB6F894DEBF0FBE0A
:1005C000CDBF8E010F5F1F4FB8014AE050E00E947F
:1005D0000B03C8010E94810264960FB6F894DEBF37
:1005E0000FBECDBFCF91DF911F910F910895AA1B30
:1005F000BB1B51E107C0AA1FBB1FA617B70710F00E
:10060000A61BB70B881F991F5A95A9F7809590953F
:10061000BC01CD010895FB019F01423074F04532C9
:1006200064F4642F77270E94F702805D8A330CF010
:10063000895D8193CB010097A1F71082C9010C94C9
:100640006E050F931F93DF93CF93CDB7DEB72E9731
:100650000FB6F894DEBF0FBECDBF0D891E8986E0B0
:100660008C831A8309838FEF9FE79E838D839E017E
:10067000275E3F4FCE0101966F89788DA9010E94B8
:1006800052032F813885020F131FF80110822E9616
:100690000FB6F894DEBF0FBECDBFCF91DF911F9193
:1006A0000F9108952F923F924F925F926F927F9297
:1006B0008F929F92AF92BF92CF92DF92EF92FF9272
:1006C0000F931F93DF93CF93CDB7DEB72B970FB662
:1006D000F894DEBF0FBECDBF3C012B015A01FC01D7
:1006E00017821682838181FD03C06FEF7FEFC6C141
:1006F0009AE0892E1E010894211C311CF3012381EC
:10070000F20123FD859123FF81912F01882309F4B4
:10071000B2C1853239F423FD859123FF81912F01E8
:10072000853229F490E0B3010E947E05E7CF982F2F
:10073000FF24EE249924FFE1FF15D0F09B3269F0ED
:100740009C3228F4903259F0933291F40EC09D32CD
:1007500049F0903369F441E024C052E0F52A84E086
:10076000F82A28C098E0F92A25C0E0E1FE2A22C034
:10077000F7FC29C0892F80538A3070F4F6FE05C03B
:10078000989C902C1124980E15C0E89CE02C112404
:10079000E80EF0E2FF2A0EC09E3229F4F6FC6BC18F
:1007A00040E4F42A07C09C3619F450E8F52A02C048
:1007B000983649F4F20123FD959123FF91912F0181
:1007C000992309F0B8CF892F8554833018F08052CF
:1007D000833038F444E050E0A40EB51E5FE3598343
:1007E0000FC0933631F0933779F0933509F056C046
:1007F00020C0F5018081898342E050E0A40EB51E3F
:10080000610101E010E012C0F501C080D180F6FC6A
:1008100003C06FEF7FEF02C0692D70E042E050E04F
:10082000A40EB51EC6010E9463058C015FE7F52288
:1008300014C0F501C080D180F6FC03C06FEF7FEFDC
:1008400002C0692D70E042E050E0A40EB51EC60162
:100850000E9458058C0150E8F52AF3FE07C01AC023
:1008600080E290E0B3010E947E05EA948E2D90E034
:1008700008171907A8F30EC0F601F7FC8591F7FEDB
:1008800081916F0190E0B3010E947E05E110EA942E
:10089000015010400115110579F7EAC0943611F0A6
:1008A000993669F5F7FE08C0F50120813181428152
:1008B000538184E090E00AC0F501808191819C0120
:1008C000442737FD4095542F82E090E0A80EB91ED2
:1008D0009FE6F92257FF09C0509540953095219524
:1008E0003F4F4F4F5F4FE0E8FE2ACA01B901A10117
:1008F0002AE030E00E94AA05D82ED21840C09537D1
:1009000029F41F2D1F7E2AE030E01DC01F2D197F06
:100910009F3661F0903720F4983509F0ACC00FC0D5
:10092000903739F0983709F0A6C004C028E030E0CD
:100930000AC0106114FD146020E130E004C014FD11
:10094000166020E132E017FF08C0F5016081718177
:100950008281938144E050E008C0F501808191815B
:10096000BC0180E090E042E050E0A40EB51EA10181
:100970000E94AA05D82ED2188FE7F82EF122F6FE93
:100980000BC05EEFF522D91438F4F4FE07C0F2FC78
:1009900005C08FEEF82202C01D2D01C0192DF4FEF6
:1009A0000DC0FE01ED0DF11D8081803319F499EE2B
:1009B000F92208C01F5FF2FE05C003C08F2D8678A4
:1009C00009F01F5F0F2DF3FC14C0F0FE0FC01E15C1
:1009D00010F09D2C0BC09D2C9E0C911A1E2D06C054
:1009E00080E290E0B3010E947E051F5F1E15C0F3F8
:1009F00004C01E1510F4E11A01C0EE2404FF0FC05C
:100A000080E390E0B3010E947E0502FF1DC001FD5E
:100A100003C088E790E00EC088E590E00BC0802F0F
:100A2000867891F001FF02C08BE201C080E2F7FC02
:100A30008DE290E0B3010E947E0506C080E390E065
:100A4000B3010E947E059A94D914C0F3DA94F1019F
:100A5000ED0DF11D808190E0B3010E947E05DD2047
:100A6000A9F706C080E290E0B3010E947E05EA94F7
:100A7000EE20C1F743CEF30166817781CB012B963F
:100A80000FB6F894DEBF0FBECDBFCF91DF911F919F
:100A90000F91FF90EF90DF90CF90BF90AF909F901D
:100AA0008F907F906F905F904F903F902F90089520
:100AB000FC010590615070400110D8F78095909529
:100AC0008E0F9F1F0895FC0161507040019001102E
:100AD000D8F7809590958E0F9F1F0895DC01FC013B
:100AE000672F71917723E1F7329704C07C916D9362
:100AF00070836291AE17BF07C8F308950F931F93D9
:100B0000CF93DF938C01EB018B8181FF1BC082FFB0
:100B10000DC02E813F818C819D812817390764F497
:100B2000E881F9810193F983E88306C0E885F985B6
:100B3000802F0995892B31F48E819F8101969F83A7
:100B40008E8302C00FEF1FEFC801DF91CF911F917D
:100B50000F910895FA01AA27283051F1203181F12F
:100B6000E8946F936E7F6E5F7F4F8F4F9F4FAF4FB5
:100B7000B1E03ED0B4E03CD0670F781F891F9A1FC8
:100B8000A11D680F791F8A1F911DA11D6A0F711D7C
:100B9000811D911DA11D20D009F468943F912AE088
:100BA000269F11243019305D3193DEF6CF01089570
:100BB000462F4770405D4193B3E00FD0C9F7F6CFA1
:100BC000462F4F70405D4A3318F0495D31FD405269
:100BD000419302D0A9F7EACFB4E0A69597958795FF
:100BE00077956795BA95C9F70097610571050895DE
:100BF0009B01AC010A2E069457954795379527958A
:100C0000BA95C9F7620F731F841F951FA01D089521
:040C1000F894FFCF86
:100C140053494D504C452057454154484552005482
:100C2400656D703A20253033642C256443004C698B
:100C34006768743A2025303464414443000000005E
:100C4400020000000088000000000091FCBCFCE7EA
:100C5400FC07FD20FD36FD48FD58FD67FD74FD8051
:100C6400FD8CFD96FDA0FDA9FDB2FDBAFDC2FDC936
:100C7400FDD0FDD7FDDEFDE4FDEAFDF0FDF5FDFB55
:100C8400FD00FE05FE0AFE0FFE14FE19FE1DFE22E7
:100C9400FE26FE2AFE2EFE32FE36FE3AFE3EFE41C1
:100CA400FE45FE49FE4CFE50FE53FE56FE5AFE5DC6
:100CB400FE60FE63FE66FE69FE6CFE6FFE72FE75EC
:100CC400FE78FE7AFE7DFE80FE83FE85FE88FE8A27
:100CD400FE8DFE90FE92FE94FE97FE99FE9CFE9E73
:100CE400FEA0FEA3FEA5FEA7FEAAFEACFEAEFEB0CD
:100CF400FEB2FEB5FEB7FEB9FEBBFEBDFEBFFEC131
:100D0400FEC3FEC5FEC7FEC9FECBFECDFECFFED19F
:100D1400FED3FED5FED6FED8FEDAFEDCFEDEFEE015
:100D2400FEE1FEE3FEE5FEE7FEE8FEEAFEECFEEE93
:100D3400FEEFFEF1FEF3FEF4FEF6FEF8FEF9FEFB16
:100D4400FEFDFEFEFE00FF01FF03FF05FF06FF0898
:100D5400FF09FF0BFF0CFF0EFF10FF11FF13FF1421
:100D6400FF16FF17FF19FF1AFF1BFF1DFF1EFF20B1
:100D7400FF21FF23FF24FF26FF27FF28FF2AFF2B45
:100D8400FF2DFF2EFF2FFF31FF32FF33FF35FF36DC
:100D9400FF38FF39FF3AFF3CFF3DFF3EFF3FFF4175
:100DA400FF42FF43FF45FF46FF47FF49FF4AFF4B12
:100DB400FF4CFF4EFF4FFF50FF51FF53FF54FF55B1
:100DC400FF56FF58FF59FF5AFF5BFF5DFF5EFF5F51
:100DD400FF60FF61FF63FF64FF65FF66FF67FF69F4
:100DE400FF6AFF6BFF6CFF6DFF6EFF70FF71FF7298
:100DF400FF73FF74FF75FF77FF78FF79FF7AFF7B3E
:100E0400FF7CFF7DFF7FFF80FF81FF82FF83FF84E4
:100E1400FF85FF86FF87FF89FF8AFF8BFF8CFF8D8D
:100E2400FF8EFF8FFF90FF91FF92FF94FF95FF9637
:100E3400FF97FF98FF99FF9AFF9BFF9CFF9DFF9EE2
:100E4400FF9FFFA0FFA1FFA2FFA3FFA5FFA6FFA78F
:100E5400FFA8FFA9FFAAFFABFFACFFADFFAEFFAF3A
:100E6400FFB0FFB1FFB2FFB3FFB4FFB5FFB6FFB7EA
:100E7400FFB8FFB9FFBAFFBBFFBCFFBDFFBEFFBF9A
:100E8400FFC0FFC1FFC2FFC3FFC4FFC5FFC6FFC74A
:100E9400FFC8FFC9FFCAFFCBFFCCFFCDFFCEFFCFFA
:100EA400FFD0FFD1FFD2FFD3FFD4FFD5FFD6FFD7AA
:100EB400FFD8FFD9FFDAFFDBFFDCFFDDFFDEFFDF5A
:100EC400FFE0FFE1FFE2FFE3FFE4FFE4FFE5FFE60D
:100ED400FFE7FFE8FFE9FFEAFFEBFFECFFEDFFEEC2
:100EE400FFEFFFF0FFF1FFF2FFF3FFF4FFF5FFF672
:100EF400FFF7FFF8FFF8FFF9FFFAFFFBFFFCFFFD28
:100F0400FFFEFFFFFF0000010002000300040005D4
:100F140000060007000700080009000A000B000C87
:100F2400000D000E000F0010001100120013001439
:100F3400001400150016001700180019001A001BF1
:100F4400001C001D001E001F0020002000210022A4
:100F54000023002400250026002700280029002A59
:100F6400002B002B002C002D002E002F0030003110
:100F740000320033003400350036003600370038C4
:100F84000039003A003B003C003D003E003F004079
:100F94000041004100420043004400450046004730
:100FA40000480049004A004B004B004C004D004EE5
:100FB400004F005000510052005300540055005699
:100FC4000056005700580059005A005B005C005D51
:100FD400005E005F00600060006100620063006406
:100FE40000650066006700680069006A006B006BBA
:100FF400006C006D006E006F007000710072007371
:101004000074007500760077007700780079007A24
:10101400007B007C007D007E007F008000810082D8
:10102400008300830084008500860087008800898F
:10103400008A008B008C008D008E008F0090009140
:1010440000910092009300940095009600970098F8
:101054000099009A009B009C009D009E009F00A0A8
:1010640000A100A100A200A300A400A500A600A75F
:1010740000A800A900AA00AB00AC00AD00AE00AF10
:1010840000B000B100B200B300B400B500B600B6C1
:1010940000B700B800B900BA00BB00BC00BD00BE78
:1010A40000BF00C000C100C200C300C400C500C628
:1010B40000C700C800C900CA00CB00CC00CD00CED8
:1010C40000CF00D000D100D200D300D400D500D688
:1010D40000D700D800D900DA00DB00DC00DD00DE38
:1010E40000DF00E000E100E200E300E400E500E6E8
:1010F40000E700E800E900EA00EB00EC00ED00EE98
:1011040000EF00F000F100F200F300F400F500F647
:1011140000F700F900FA00FB00FC00FD00FE00FFF0
:101124000000010101020103010401050106010798
:1011340001080109010B010C010D010E010F011041
:1011440001110112011301140115011601180119ED
:10115400011A011B011C011D011E011F0120012197
:101164000123012401250126012701280129012A3F
:10117400012C012D012E012F0130013101320134E6
:1011840001350136013701380139013B013C013D8C
:10119400013E013F01400142014301440145014632
:1011A40001470149014A014B014C014D014F0150D6
:1011B4000151015201540155015601570158015A78
:1011C400015B015C015D015F016001610162016419
:1011D4000165016601670169016A016B016D016EB8
:1011E400016F017001720173017401760177017856
:1011F400017A017B017C017E017F018001820183F0
:101204000184018601870188018A018B018C018E8A
:10121400018F019101920193019501960198019921
:10122400019A019C019D019F01A001A201A301A4B7
:1012340001A601A701A901AA01AC01AD01AF01B04A
:1012440001B201B301B501B601B801B901BB01BCDA
:1012540001BE01BF01C101C201C401C601C701C968
:1012640001CA01CC01CD01CF01D101D201D401D6F3
:1012740001D701D901DA01DC01DE01DF01E101E37B
:1012840001E401E601E801EA01EB01ED01EF01F0FF
:1012940001F201F401F601F701F901FB01FD01FF7F
:1012A40001000202020402060208020A020B020DF5
:1012B400020F02110213021502170219021B021D6A
:1012C400021F02210222022402260228022A022DDF
:1012D400022F02310233023502370239023B023D4A
:1012E400023F0241024402460248024A024C024EB4
:1012F4000251025302550257025A025C025E026115
:10130400026302650268026A026D026F027102746E
:1013140002760279027B027E0280028302850288C1
:10132400028B028D0290029302950298029B029D09
:1013340002A002A302A602A902AB02AE02B102B449
:1013440002B702BA02BD02C002C302C602C902CC7D
:1013540002D002D302D602D902DC02E002E302E6A2
:1013640002EA02ED02F102F402F802FB02FF0202B9
:101374000306030A030E031103150319031D0321B6
:1013840003250329032D033103350339033E0342A7
:101394000346034B034F03540359035D036203677E
:1013A400036C03700375037A03800385038A038F38
:1013B4000395039A03A003A603AB03B103B703BDCC
:1013C40003C403CA03D003D703DD03E403EB03F22E
:1013D40003F903000408040F0417041F0427042F4F
:1013E4000438044004490452045B0465046F04791E
:1013F4000483048D049804A304AF04BB04C704D37A
:1014040004E004EE04FC040A05190528053905491D
:10141400055B056D0580059405A905BF05D705F095
:10142400050A062606430663068606AB06D306FFB0
:10143400062F076507A207E6073508920801098BFE
:0C144400093F0A3A0BC60CFC0F321300E3
:00000001FF
