:100000000C9434040C9449040C9449040C94490451
:100010000C9449040C9449040C9449040C9449042C
:100020000C9449040C9449040C9449040C9449041C
:100030000C9449040C9449040C9449040C9449040C
:100040000C9449040C9449040C9449040C944904FC
:100050000C9449040C9449040C9449040C944904EC
:100060000C9449040C944904ACFCD8FC04FD25FD17
:100070003FFD55FD68FD79FD87FD95FDA1FDADFDB9
:10008000B8FDC2FDCBFDD4FDDCFDE4FDECFDF3FDD0
:10009000FAFD01FE07FE0EFE14FE19FE1FFE24FEF1
:1000A0002AFE2FFE34FE39FE3DFE42FE47FE4BFE89
:1000B0004FFE54FE58FE5CFE60FE64FE67FE6BFE63
:1000C0006FFE72FE76FE79FE7DFE80FE83FE87FE69
:1000D0008AFE8DFE90FE93FE96FE99FE9CFE9FFE8C
:1000E000A2FEA5FEA7FEAAFEADFEB0FEB2FEB5FEC4
:1000F000B7FEBAFEBDFEBFFEC2FEC4FEC6FEC9FE0E
:10010000CBFECEFED0FED2FED5FED7FED9FEDBFE64
:10011000DDFEE0FEE2FEE4FEE6FEE8FEEAFEECFEC8
:10012000EEFEF1FEF3FEF5FEF7FEF9FEFBFEFCFE31
:10013000FEFE00FF02FF04FF06FF08FF0AFF0CFFA0
:100140000DFF0FFF11FF13FF15FF16FF18FF1AFF1A
:100150001CFF1DFF1FFF21FF23FF24FF26FF28FF99
:1001600029FF2BFF2DFF2EFF30FF31FF33FF35FF1F
:1001700036FF38FF39FF3BFF3DFF3EFF40FF41FFA9
:1001800043FF44FF46FF47FF49FF4AFF4CFF4DFF37
:100190004FFF50FF52FF53FF55FF56FF57FF59FFC8
:1001A0005AFF5CFF5DFF5FFF60FF61FF63FF64FF5D
:1001B00065FF67FF68FF6AFF6BFF6CFF6EFF6FFFF5
:1001C00070FF72FF73FF74FF76FF77FF78FF7AFF8F
:1001D0007BFF7CFF7EFF7FFF80FF81FF83FF84FF2B
:1001E00085FF86FF88FF89FF8AFF8BFF8DFF8EFFCB
:1001F0008FFF90FF92FF93FF94FF95FF97FF98FF6B
:1002000099FF9AFF9BFF9DFF9EFF9FFFA0FFA1FF0D
:10021000A3FFA4FFA5FFA6FFA7FFA8FFAAFFABFFB0
:10022000ACFFADFFAEFFAFFFB1FFB2FFB3FFB4FF56
:10023000B5FFB6FFB7FFB9FFBAFFBBFFBCFFBDFFFD
:10024000BEFFBFFFC0FFC2FFC3FFC4FFC5FFC6FFA5
:10025000C7FFC8FFC9FFCAFFCCFFCDFFCEFFCFFF4E
:10026000D0FFD1FFD2FFD3FFD4FFD5FFD6FFD7FFFA
:10027000D9FFDAFFDBFFDCFFDDFFDEFFDFFFE0FFA2
:10028000E1FFE2FFE3FFE4FFE5FFE6FFE7FFE8FF52
:10029000E9FFEAFFECFFEDFFEEFFEFFFF0FFF1FFFC
:1002A000F2FFF3FFF4FFF5FFF6FFF7FFF8FFF9FFAA
:1002B000FAFFFBFFFCFFFDFFFEFFFFFF0000010058
:1002C0000200030004000500060007000800090002
:1002D0000A000B000C000D000E000F0010001100B2
:1002E0001200130014001500160017001800190062
:1002F0001A001B001C001D001E001F002000210012
:1003000022002300240025002600270028002900C1
:100310002A002B002C002D002E002E002F00300074
:100320003100320033003400350036003700380029
:1003300039003A003B003C003D003E003F004000D9
:10034000410042004300440045004600470047008A
:10035000480049004A004B004C004D004E004F0041
:1003600050005100520053005400550056005700F1
:100370005800590059005A005B005C005D005E00A7
:100380005F00600061006200630064006500660059
:100390006700680069006A006A006B006C006D000D
:1003A0006E006F00700071007200730074007500C1
:1003B00076007700780079007A007A007B007C0074
:1003C0007D007E007F008000810082008300840029
:1003D000850086008700880089008A008A008B00DB
:1003E0008C008D008E008F00900091009200930091
:1003F0009400950096009700980099009A009B0041
:100400009B009C009D009E009F00A000A100A200F8
:10041000A300A400A500A600A700A800A900AA00A8
:10042000AB00AC00AD00AD00AE00AF00B000B1005D
:10043000B200B300B400B500B600B700B800B90010
:10044000BA00BB00BC00BD00BE00BF00C000C100C0
:10045000C200C300C300C400C500C600C700C80076
:10046000C900CA00CB00CC00CD00CE00CF00D00028
:10047000D100D200D300D400D500D600D700D800D8
:10048000D900DA00DB00DC00DD00DE00DF00E00088
:10049000E100E200E300E400E500E600E700E80038
:1004A000E800E900EA00EB00EC00ED00EE00EF00F0
:1004B000F000F100F200F300F400F500F600F700A0
:1004C000F800F900FA00FB00FC00FD00FE0000014E
:1004D00001010201030104010501060107010801F0
:1004E00009010A010B010C010D010E010F011001A0
:1004F0001101120113011401150116011701180150
:1005000019011A011B011C011D011E011F012001FF
:1005100022012301240125012601270128012901A7
:100520002A012B012C012D012E012F013001320156
:1005300033013401350136013701380139013A01FF
:100540003B013C013D013F014001410142014301AA
:10055000440145014601470149014A014B014C0153
:100560004D014E014F0150015101530154015501FC
:1005700056015701580159015B015C015D015E01A3
:100580005F0160016101630164016501660167014A
:1005900068016A016B016C016D016E0170017101EE
:1005A00072017301740176017701780179017A0192
:1005B0007C017D017E017F01800182018301840134
:1005C00085018701880189018A018C018D018E01D5
:1005D0008F01910192019301940196019701980175
:1005E00099019B019C019D019F01A001A101A30113
:1005F000A401A501A601A801A901AA01AC01AD01B0
:10060000AE01B001B101B201B401B501B601B8014A
:10061000B901BB01BC01BD01BF01C001C101C301E2
:10062000C401C601C701C801CA01CB01CD01CE0179
:10063000D001D101D201D401D501D701D801DA010D
:10064000DB01DD01DE01E001E101E301E401E6019E
:10065000E701E901EA01EC01ED01EF01F001F2012E
:10066000F301F501F601F801FA01FB01FD01FE01BC
:100670000002020203020502060208020A020B023D
:100680000D020F02100212021302150217021902C4
:100690001A021C021E021F02210223022502260248
:1006A00028022A022C022D022F02310233023402C8
:1006B000360238023A023C023E023F024102430245
:1006C0004502470249024B024D024F0251025202BB
:1006D0005402560258025A025C025E026002620232
:1006E0006402660268026B026D026F02710273029D
:1006F0007502770279027B027E0280028202840206
:10070000860289028B028D028F0292029402960267
:1007100099029B029D02A002A202A402A702A902C2
:10072000AC02AE02B102B302B602B802BB02BD0215
:10073000C002C202C502C802CA02CD02D002D20261
:10074000D502D802DA02DD02E002E302E602E902A3
:10075000EB02EE02F102F402F702FA02FD020003DC
:10076000030306030A030D031003130316031A03FE
:100770001D032003240327032A032E03310335031B
:1007800038033C033F03430347034B034E03520329
:1007900056035A035E03620366036A036E03720321
:1007A00076037A037F03830387038C039003950307
:1007B00099039E03A303A803AC03B103B603BB03D1
:1007C000C003C603CB03D003D503DB03E003E6037A
:1007D000EC03F203F803FE0304040A0410041704F4
:1007E0001D0424042A04310438043F0447044E0441
:1007F00056045D0465046D0475047E0486048F044C
:100800009804A104AB04B404BE04C804D304DD04FA
:10081000E804F304FF040B051705240531053E0524
:100820004C055B056A0579058A059A05AC05BE0588
:10083000D105E505FA05100627063F065906740698
:100840009106B006D206F5061C0746077407A707EF
:10085000DF071E086608B9081A098F09200ADD0A91
:10086000E50B870DF010591411241FBECFEFD8E00F
:10087000DEBFCDBF11E0A0E0B1E0EEE7F0E102C0E5
:1008800005900D92A630B107D9F70E94F8040C9498
:100890003D080C940000519A9093C5008093C400C9
:1008A00088E18093C1008EE08093C200089580911A
:1008B000C000881F8827881F0895982F8091C00046
:1008C00085FFFCCF9093C6000895FC0107C080917E
:1008D000C00085FFFCCF31969093C600908199238C
:1008E000B1F708958091C00087FFFCCF8091C600CA
:1008F00008959C01FC0190E004C081939F5F9035B6
:1009000041F08091C00087FFFCCF8091C6008D3000
:10091000A1F7F901E90FF11D1082822F089594B11A
:10092000906B94B991E59CBD882319F08CB58062D9
:1009300002C08CB58F7D8CBD0895982F662319F069
:100940008DB5816002C08DB58E7F8DBD9EBD0DB40D
:1009500007FEFDCF08951F93CF93DF93EC01162F71
:1009600004C02196612F0E949D0488818823C9F7C5
:10097000DF91CF911F91089580E485B98CBD0895D2
:100980000DB407FEFDCF8EB5089580937E00EAE793
:10099000F0E0808187608083ACE7B0E08C91806478
:1009A0008C938081806C8083089590917C00907FEF
:1009B00090937C0090917C008770892B80937C00C1
:1009C00080917A00806480937A0080917A0086FD1D
:1009D000FCCF2091780030917900C9010895FC0185
:1009E000EE0FFF1FE859FF4F25913491C90108957B
:1009F000BF92CF92DF92EF92FF920F931F93DF93FC
:100A0000CF93CDB7DEB72A970FB6F894DEBF0FBEEF
:100A1000CDBF17B88FEF84B982E08AB981E00E9418
:100A2000C50483E390E00E944B042E9A41E0C42E5B
:100A3000D12C3AE1B32E8E010F5F1F4F20E0E22E42
:100A400021E0F22E80E00E94D504AC0120E030E0ED
:100A5000C601022E02C0880F991F0A94E2F7842370
:100A60009523892B11F02E9A01C02E982F9A8B2D49
:100A70008A95F1F72F982F5F3F4F2A30310541F7C4
:100A8000FA01EE0FFF1FE859FF4F8591949100D0B6
:100A900000D000D0EDB7FEB73196ADB7BEB7129615
:100AA0001C930E931197F382E282958384830E94B4
:100AB00065058DB79EB706960FB6F8949EBF0FBE1C
:100AC0008DBFC8010E946504BDCFAEE0B0E0EBE68B
:100AD000F5E00C9414080D891E8986E08C831A8336
:100AE00009838FEF9FE79E838D839E01275E3F4F93
:100AF000CE0101966F89788DA9010E9489052F8109
:100B00003885020F131FF80110822E96E4E00C9432
:100B10003008ABE0B0E0EFE8F5E00C9406083C01EB
:100B20002B015A01FC0117821682838181FD03C0CB
:100B30006FEF7FEFC6C19AE0892E1E010894211C39
:100B4000311CF3012381F20123FD859123FF819163
:100B50002F01882309F4B2C1853239F423FD859130
:100B600023FF81912F01853229F490E0B3010E9487
:100B70007C07E7CF982FFF24EE249924FFE1FF158F
:100B8000D0F09B3269F09C3228F4903259F09332C5
:100B900091F40EC09D3249F0903369F441E024C0D5
:100BA00052E0F52A84E0F82A28C098E0F92A25C006
:100BB000E0E1FE2A22C0F7FC29C0892F80538A3049
:100BC00070F4F6FE05C0989C902C1124980E15C068
:100BD000E89CE02C1124E80EF0E2FF2A0EC09E32C1
:100BE00029F4F6FC6BC140E4F42A07C09C3619F4E2
:100BF00050E8F52A02C0983649F4F20123FD959198
:100C000023FF91912F01992309F0B8CF892F8554A3
:100C1000833018F08052833038F444E050E0A40E62
:100C2000B51E5FE359830FC0933631F0933779F0E7
:100C3000933509F056C020C0F5018081898342E0D8
:100C400050E0A40EB51E610101E010E012C0F501F4
:100C5000C080D180F6FC03C06FEF7FEF02C0692D2A
:100C600070E042E050E0A40EB51EC6010E9471077C
:100C70008C015FE7F52214C0F501C080D180F6FC3D
:100C800003C06FEF7FEF02C0692D70E042E050E0DB
:100C9000A40EB51EC6010E9466078C0150E8F52A15
:100CA000F3FE07C01AC080E290E0B3010E947C0707
:100CB000EA948E2D90E008171907A8F30EC0F601EC
:100CC000F7FC8591F7FE81916F0190E0B3010E94DE
:100CD0007C07E110EA94015010400115110579F7E5
:100CE000EAC0943611F0993669F5F7FE08C0F501AF
:100CF000208131814281538184E090E00AC0F50176
:100D0000808191819C01442737FD4095542F82E0DA
:100D100090E0A80EB91E9FE6F92257FF09C0509532
:100D20004095309521953F4F4F4F5F4FE0E8FE2AA9
:100D3000CA01B901A1012AE030E00E94A807D82E1B
:100D4000D21840C0953729F41F2D1F7E2AE030E0CD
:100D50001DC01F2D197F9F3661F0903720F4983504
:100D600009F0ACC00FC0903739F0983709F0A6C031
:100D700004C028E030E00AC0106114FD146020E1D6
:100D800030E004C014FD166020E132E017FF08C017
:100D9000F501608171818281938144E050E008C057
:100DA000F50180819181BC0180E090E042E050E05B
:100DB000A40EB51EA1010E94A807D82ED2188FE755
:100DC000F82EF122F6FE0BC05EEFF522D91438F4AE
:100DD000F4FE07C0F2FC05C08FEEF82202C01D2D04
:100DE00001C0192DF4FE0DC0FE01ED0DF11D808135
:100DF000803319F499EEF92208C01F5FF2FE05C096
:100E000003C08F2D867809F01F5F0F2DF3FC14C0EF
:100E1000F0FE0FC01E1510F09D2C0BC09D2C9E0CDB
:100E2000911A1E2D06C080E290E0B3010E947C075B
:100E30001F5F1E15C0F304C01E1510F4E11A01C097
:100E4000EE2404FF0FC080E390E0B3010E947C0712
:100E500002FF1DC001FD03C088E790E00EC088E5D9
:100E600090E00BC0802F867891F001FF02C08BE2EA
:100E700001C080E2F7FC8DE290E0B3010E947C07A4
:100E800006C080E390E0B3010E947C079A94D914D5
:100E9000C0F3DA94F101ED0DF11D808190E0B30112
:100EA0000E947C07DD20A9F706C080E290E0B30134
:100EB0000E947C07EA94EE20C1F743CEF3016681DD
:100EC0007781CB012B96E2E10C942208FC0105907E
:100ED000615070400110D8F7809590958E0F9F1F3C
:100EE0000895FC016150704001900110D8F7809581
:100EF00090958E0F9F1F08950F931F93CF93DF93AD
:100F00008C01EB018B8181FF1BC082FF0DC02E8104
:100F10003F818C819D812817390764F4E881F9812C
:100F20000193F983E88306C0E885F985802F099548
:100F3000892B31F48E819F8101969F838E8302C01D
:100F40000FEF1FEFC801DF91CF911F910F9108950F
:100F5000FA01AA27283051F1203181F1E8946F93EA
:100F60006E7F6E5F7F4F8F4F9F4FAF4FB1E03ED090
:100F7000B4E03CD0670F781F891F9A1FA11D680F2E
:100F8000791F8A1F911DA11D6A0F711D811D911D61
:100F9000A11D20D009F468943F912AE0269F1124D6
:100FA0003019305D3193DEF6CF010895462F47703A
:100FB000405D4193B3E00FD0C9F7F6CF462F4F7095
:100FC000405D4A3318F0495D31FD4052419302D0F3
:100FD000A9F7EACFB4E0A695979587957795679599
:100FE000BA95C9F700976105710508959B01AC0199
:100FF0000A2E06945795479537952795BA95C9F7C0
:10100000620F731F841F951FA01D08952F923F929A
:101010004F925F926F927F928F929F92AF92BF9208
:10102000CF92DF92EF92FF920F931F93CF93DF93B4
:10103000CDB7DEB7CA1BDB0B0FB6F894DEBF0FBE11
:10104000CDBF09942A88398848885F846E847D845E
:101050008C849B84AA84B984C884DF80EE80FD8060
:101060000C811B81AA81B981CE0FD11D0FB6F894D6
:0E107000DEBF0FBECDBFED010895F894FFCF97
:06107E00253033640D0073
:00000001FF
