:100000000C9446000C9465000C9465000C946500FB
:100010000C9465000C9465000C9465000C946500CC
:100020000C9465000C9465000C9465000C946500BC
:100030000C9465000C9465000C9465000C942E01E2
:100040000C9465000C9465000C9465000C9465009C
:100050000C9465000C9465000C9465000C9465008C
:100060000C9465000C9465000C9465000C9465007C
:100070000C9465000C9465000C9465000C9465006C
:100080000C9465000C9465000C94650011241FBE4F
:10009000CFEFD0E4DEBFCDBF12E0A0E0B1E0EEE9EB
:1000A000FCE000E00BBF02C007900D92A431B10745
:1000B000D9F712E0A4E1B2E001C01D92A432B10769
:1000C000E1F70E9482010C944D060C94000090937D
:1000D000C5008093C400219A88E18093C1008EE01E
:1000E0008093C2000895982F8091C00085FFFCCFB7
:1000F0009093C6000895FC0107C08091C00085FF61
:10010000FCCF31969093C60090819923B1F7089562
:10011000982F8091C00085FFFCCF9093C60080E0AF
:1001200090E0089594B1906B94B991E59CBD8823BB
:1001300019F08CB5806202C08CB58F7D8CBD08959E
:10014000982F662319F08DB5816002C08DB58E7F22
:100150008DBD9EBD0DB407FEFDCF08951F93CF93B7
:10016000DF93EC01162F04C02196612F0E94A0009E
:1001700088818823C9F7DF91CF911F91089580E48A
:1001800085B98CBD08950DB407FEFDCF8EB50895D9
:100190008093140290911502282F2927209316028C
:1001A000922390931802282320931702809315021C
:1001B0000895382F1092190210921A0210921B0201
:1001C00090911802292F93FF03C081E080931B02B6
:1001D00097FF05C036FF03C081E08093190226FF18
:1001E00005C037FF03C081E080931A0208951F9372
:1001F000182F0E94C800812F0E94D90080E29EE43F
:100200000197F1F71F91089580937E00EAE7F0E0EF
:10021000808187608083ACE7B0E08C9180648C93B0
:100220008081806C8083089590917C00907F909372
:100230007C0090917C008770892B80937C0080915A
:100240007A00806480937A0080917A0086FDFCCFEA
:100250002091780030917900C90108951F920F9282
:100260000FB60F920BB60F9211242F933F934F931B
:100270005F938F939F93AF93BF93EF93FF932091DF
:10028000200230912102409122025091230280915C
:100290001C0290911D02A0911E02B0911F02820FBC
:1002A000931FA41FB51F8093200290932102A09357
:1002B0002202B09323028091200290912102A0910A
:1002C0002202B09123028B2F9927AA27BB27E3E1B3
:1002D000F1E0E80FF91F808190E09093890080930E
:1002E0008800FF91EF91BF91AF919F918F915F91A6
:1002F0004F913F912F910F900BBE0F900FBE0F901B
:100300001F901895EF92FF920F931F93DF93CF9357
:10031000CDB7DEB760970FB6F894DEBF0FBECDBF86
:100320008FE38AB98FEF84B987B980EF81B98CE008
:100330000E94E00281EA8093800089E0809381003E
:1003400081E080936F00109289001092880080E80D
:1003500090E090938B0080938A0010921C02109280
:100360001D0210921E0210921F0278948E010F5FE0
:100370001F4F40E0E42E41E0F42E89B10E94F700C7
:1003800080911A028823A1F080911C0290911D0295
:10039000A0911E02B0911F0280509040A041B04039
:1003A00080931C0290931D02A0931E02B0931F0223
:1003B000809119028823A1F080911C0290911D0266
:1003C000A0911E02B0911F0280509040A04FBF4FDD
:1003D00080931C0290931D02A0931E02B0931F02F3
:1003E00080911C0290911D02A0911E02B0911F02EB
:1003F0002DB73EB7285030400FB6F8943EBF0FBE21
:100400002DBF2F5F3F4FEDB7FEB712830183F90178
:10041000F382E2823FE0B695A795979587953A9546
:10042000D1F7A070B07084839583A683B7830E94B0
:1004300052032DB73EB7285F3F4F0FB6F8943EBF2B
:100440000FBE2DBF80E060E00E949D02C8010E94A7
:10045000C60293CF662311F0159A01C0159816981D
:100460003C9A3D9A3E9A3F9A4798469845984498B8
:1004700087FD479A86FD469A85FD459A84FD449AF4
:10048000179A00C01798479846984598449883FD56
:10049000479A82FD469A81FD459A80FD449A179AB3
:1004A00000C01798449A459A469A479A0895882317
:1004B00011F0159A01C01598169A3C983D983E98EF
:1004C0003F98179A00C0349B02C080E101C080E0D1
:1004D000359980623699806437998068179800C092
:1004E000179A00C03499816035998260369984608A
:1004F000379988601798089580E00E94570287FD19
:10050000FBCF88E090E00197F1F780E00E9457026E
:1005100008951F93182F0E947C02812F60E00E9493
:100520002A021F9108951F93182F0E947C02812F89
:1005300061E00E942A021F910895662311F48058F9
:1005400001C080540E94890208950E947C0290E0BC
:10055000089581E00E948902089582E00E94890244
:1005600008951F93182F0E947C021A3049F480349A
:1005700010F080E001C080E480580E94890204C02D
:10058000812F61E00E942A021F910895CF93DF938B
:10059000EC0102C00E94B10289918823D9F7DF9152
:1005A000CF910895CF93DF93EC0102C00E94B10276
:1005B000FE01219684918823C9F7DF91CF91089598
:1005C0001F93182F0D9A0E9A0F9A3C9A3D9A3E9AB5
:1005D0003F9A80E09AEF0197F1F7459A449A179A6B
:1005E00000C0179880E09EE40197F1F7179A00C0C9
:1005F000179880E091E0FC013197F1F7179A00C05D
:100600001798FC013197F1F74498179A00C0179892
:100610000197F1F788E20E94890288E00E9489022E
:100620000E94A90286E00E948902812F0E9489020D
:100630001F9108950F931F93DF93CF93CDB7DEB72C
:1006400064970FB6F894DEBF0FBECDBF8E010F5F6B
:100650001F4FB8014AE050E00E943C03C8010E94CD
:10066000C60264960FB6F894DEBF0FBECDBFCF9121
:10067000DF911F910F910895FB019F01423074F0AB
:10068000453264F4642F77270E943906805D8A33EF
:100690000CF0895D8193CB010097A1F71082C9010D
:1006A0000C949F050F931F93DF93CF93CDB7DEB7C5
:1006B0002E970FB6F894DEBF0FBECDBF0D891E89F1
:1006C00086E08C831A8309838FEF9FE79E838D8357
:1006D0009E01275E3F4FCE0101966F89788DA9015B
:1006E0000E9483032F813885020F131FF8011082A7
:1006F0002E960FB6F894DEBF0FBECDBFCF91DF911F
:100700001F910F9108952F923F924F925F926F9297
:100710007F928F929F92AF92BF92CF92DF92EF9291
:10072000FF920F931F93DF93CF93CDB7DEB72B9735
:100730000FB6F894DEBF0FBECDBF3C012B015A01AE
:10074000FC0117821682838181FD03C06FEF7FEF6A
:10075000C6C19AE0892E1E010894211C311CF301A8
:100760002381F20123FD859123FF81912F018823AD
:1007700009F4B2C1853239F423FD859123FF8191BB
:100780002F01853229F490E0B3010E94AF05E7CF35
:10079000982FFF24EE249924FFE1FF15D0F09B321F
:1007A00069F09C3228F4903259F0933291F40EC0E3
:1007B0009D3249F0903369F441E024C052E0F52ABB
:1007C00084E0F82A28C098E0F92A25C0E0E1FE2A52
:1007D00022C0F7FC29C0892F80538A3070F4F6FEBE
:1007E00005C0989C902C1124980E15C0E89CE02C14
:1007F0001124E80EF0E2FF2A0EC09E3229F4F6FC26
:100800006BC140E4F42A07C09C3619F450E8F52A7D
:1008100002C0983649F4F20123FD959123FF91918E
:100820002F01992309F0B8CF892F8554833018F010
:100830008052833038F444E050E0A40EB51E5FE3EC
:1008400059830FC0933631F0933779F0933509F01F
:1008500056C020C0F5018081898342E050E0A40E9B
:10086000B51E610101E010E012C0F501C080D18029
:10087000F6FC03C06FEF7FEF02C0692D70E042E02D
:1008800050E0A40EB51EC6010E9494058C015FE7DE
:10089000F52214C0F501C080D180F6FC03C06FEFD3
:1008A0007FEF02C0692D70E042E050E0A40EB51E5B
:1008B000C6010E9489058C0150E8F52AF3FE07C0A5
:1008C0001AC080E290E0B3010E94AF05EA948E2D39
:1008D00090E008171907A8F30EC0F601F7FC859100
:1008E000F7FE81916F0190E0B3010E94AF05E11026
:1008F000EA94015010400115110579F7EAC09436C9
:1009000011F0993669F5F7FE08C0F50120813181B3
:100910004281538184E090E00AC0F5018081918199
:100920009C01442737FD4095542F82E090E0A80EAB
:10093000B91E9FE6F92257FF09C0509540953095A2
:1009400021953F4F4F4F5F4FE0E8FE2ACA01B901A2
:10095000A1012AE030E00E94DB05D82ED21840C069
:10096000953729F41F2D1F7E2AE030E01DC01F2D72
:10097000197F9F3661F0903720F4983509F0ACC0AC
:100980000FC0903739F0983709F0A6C004C028E0AE
:1009900030E00AC0106114FD146020E130E004C0B2
:1009A00014FD166020E132E017FF08C0F5016081F8
:1009B00071818281938144E050E008C0F50180811B
:1009C0009181BC0180E090E042E050E0A40EB51EB1
:1009D000A1010E94DB05D82ED2188FE7F82EF12254
:1009E000F6FE0BC05EEFF522D91438F4F4FE07C012
:1009F000F2FC05C08FEEF82202C01D2D01C0192D9A
:100A0000F4FE0DC0FE01ED0DF11D8081803319F45F
:100A100099EEF92208C01F5FF2FE05C003C08F2DBA
:100A2000867809F01F5F0F2DF3FC14C0F0FE0FC095
:100A30001E1510F09D2C0BC09D2C9E0C911A1E2D86
:100A400006C080E290E0B3010E94AF051F5F1E1553
:100A5000C0F304C01E1510F4E11A01C0EE2404FF17
:100A60000FC080E390E0B3010E94AF0502FF1DC0FC
:100A700001FD03C088E790E00EC088E590E00BC060
:100A8000802F867891F001FF02C08BE201C080E2E6
:100A9000F7FC8DE290E0B3010E94AF0506C080E351
:100AA00090E0B3010E94AF059A94D914C0F3DA9490
:100AB000F101ED0DF11D808190E0B3010E94AF05C1
:100AC000DD20A9F706C080E290E0B3010E94AF05E7
:100AD000EA94EE20C1F743CEF30166817781CB0122
:100AE0002B960FB6F894DEBF0FBECDBFCF91DF912E
:100AF0001F910F91FF90EF90DF90CF90BF90AF903C
:100B00009F908F907F906F905F904F903F902F902D
:100B10000895FC010590615070400110D8F7809550
:100B200090958E0F9F1F0895FC01615070400190B9
:100B30000110D8F7809590958E0F9F1F0895DC01C6
:100B4000FC01672F71917723E1F7329704C07C9104
:100B50006D9370836291AE17BF07C8F308950F932A
:100B60001F93CF93DF938C01EB018B8181FF1BC01F
:100B700082FF0DC02E813F818C819D81281739070E
:100B800064F4E881F9810193F983E88306C0E8857C
:100B9000F985802F0995892B31F48E819F810196EB
:100BA0009F838E8302C00FEF1FEFC801DF91CF91AB
:100BB0001F910F910895FA01AA27283051F1203191
:100BC00081F1E8946F936E7F6E5F7F4F8F4F9F4FE1
:100BD000AF4FB1E03ED0B4E03CD0670F781F891F23
:100BE0009A1FA11D680F791F8A1F911DA11D6A0FF1
:100BF000711D811D911DA11D20D009F468943F91A4
:100C00002AE0269F11243019305D3193DEF6CF01A2
:100C10000895462F4770405D4193B3E00FD0C9F768
:100C2000F6CF462F4F70405D4A3318F0495D31FDD5
:100C30004052419302D0A9F7EACFB4E0A695979528
:100C4000879577956795BA95C9F7009761057105FE
:100C500008959B01AC010A2E069457954795379548
:100C60002795BA95C9F7620F731F841F951FA01DA2
:100C70000895AA1BBB1B51E107C0AA1FBB1FA617E3
:100C8000B70710F0A61BB70B881F991F5A95A9F735
:0E0C900080959095BC01CD010895F894FFCF9A
:100C9E0025303464000000000200000000880000CF
:100CAE00000000808386898C909396999C9FA2A5C4
:100CBE00A8ABAEB1B3B6B9BCBFC1C4C7C9CCCED157
:100CCE00D3D5D8DADCDEE0E2E4E6E8EAEBEDEFF0ED
:100CDE00F1F3F4F5F6F8F9FAFAFBFCFDFDFEFEFE73
:100CEE00FFFFFFFFFFFFFFFEFEFEFDFDFCFBFAFA1E
:100CFE00F9F8F6F5F4F3F1F0EFEDEBEAE8E6E4E2FD
:100D0E00E0DEDCDAD8D5D3D1CECCC9C7C4C1BFBCE6
:100D1E00B9B6B3B1AEABA8A5A29F9C999693908C91
:100D2E00898683807D7A7774706D6A6764615E5B95
:100D3E005855524F4D4A4744413F3C393734322F74
:100D4E002D2B28262422201E1C1A181615131110BE
:100D5E000F0D0C0B0A080706060504030302020218
:100D6E00010101010101010202020303040506064D
:100D7E0007080A0B0C0D0F1011131516181A1C1E4E
:100D8E0020222426282B2D2F323437393C3F414444
:100D9E00474A4D4F5255585B5E6164676A6D707479
:040DAE00777A7D00D3
:00000001FF
