:100000000C9446000C9465000C9465000C946500FB
:100010000C9465000C9465000C9465000C946500CC
:100020000C9465000C9465000C9465000C946500BC
:100030000C9465000C9465000C9465000C942E01E2
:100040000C9465000C9465000C9465000C9465009C
:100050000C9465000C9465000C9465000C9465008C
:100060000C9465000C9465000C9465000C9465007C
:100070000C9465000C9465000C9465000C9465006C
:100080000C9465000C9465000C94650011241FBE4F
:10009000CFEFD0E4DEBFCDBF12E0A0E0B1E0E0ECF6
:1000A000F5E000E00BBF02C007900D92AE30B10743
:1000B000D9F712E0AEE0B2E001C01D92A931B1075C
:1000C000E1F70E945E010C94DE020C940000909314
:1000D000C5008093C400219A88E18093C1008EE01E
:1000E0008093C2000895982F8091C00085FFFCCFB7
:1000F0009093C6000895FC0107C08091C00085FF61
:10010000FCCF31969093C60090819923B1F7089562
:10011000982F8091C00085FFFCCF9093C60080E0AF
:1001200090E0089594B1906B94B991E59CBD8823BB
:1001300019F08CB5806202C08CB58F7D8CBD08959E
:10014000982F662319F08DB5816002C08DB58E7F22
:100150008DBD9EBD0DB407FEFDCF08951F93CF93B7
:10016000DF93EC01162F04C02196612F0E94A0009E
:1001700088818823C9F7DF91CF911F91089580E48A
:1001800085B98CBD08950DB407FEFDCF8EB50895D9
:1001900080930E0290910F02282F2927209310029E
:1001A00092239093120228232093110280930F022E
:1001B0000895382F10921302109214021092150213
:1001C00090911202292F93FF03C081E080931502C2
:1001D00097FF05C036FF03C081E08093130226FF1E
:1001E00005C037FF03C081E08093140208951F9378
:1001F000182F0E94C800812F0E94D90080E29EE43F
:100200000197F1F71F91089580937E00EAE7F0E0EF
:10021000808187608083ACE7B0E08C9180648C93B0
:100220008081806C8083089590917C00907F909372
:100230007C0090917C008770892B80937C0080915A
:100240007A00806480937A0080917A0086FDFCCFEA
:100250002091780030917900C90108951F920F9282
:100260000FB60F920BB60F9211248F939F93EF93BB
:10027000FF9380911702909118028F5F809317026D
:100280008150891780F010921702E0911602EF5FFB
:10029000E0931602F0E0E25FFE4F808190E09093E1
:1002A000890080938800FF91EF919F918F910F902B
:1002B0000BBE0F900FBE0F901F90189578948FE390
:1002C0008AB98FEF84B987B980EF81B98CE00E9439
:1002D000480281EA8093800089E08093810081E078
:1002E00080936F00109289001092880080E890E05F
:1002F00090938B0080938A0089B10E94F7008091CF
:100300001402882329F080911802815080931802EA
:1003100080911302882381F3809118028F5F80936C
:100320001802EACF662311F0159A01C015981698A5
:100330003C9A3D9A3E9A3F9A4798469845984498E9
:1003400087FD479A86FD469A85FD459A84FD449A25
:10035000179A00C01798479846984598449883FD87
:10036000479A82FD469A81FD459A80FD449A179AE4
:1003700000C01798449A459A469A479A0895882348
:1003800011F0159A01C01598169A3C983D983E9820
:100390003F98179A00C0349B02C080E101C080E002
:1003A000359980623699806437998068179800C0C3
:1003B000179A00C0349981603599826036998460BB
:1003C000379988601798089580E00E94BF0187FDE3
:1003D000FBCF88E090E00197F1F780E00E94BF0139
:1003E00008951F93182F0E94E401812F60E00E945E
:1003F00092011F9108951F93182F0E94E401812FED
:1004000061E00E9492011F910895662311F48058C3
:1004100001C080540E94F10108950E94E40190E01F
:10042000089581E00E94F101089582E00E94F101A7
:1004300008951F93182F0E94E4011A3049F4803464
:1004400010F080E001C080E480580E94F10104C0F7
:10045000812F61E00E9492011F910895CF93DF9355
:10046000EC0102C00E94190289918823D9F7DF911B
:10047000CF910895CF93DF93EC0102C00E9419023F
:10048000FE01219684918823C9F7DF91CF910895C9
:100490001F93182F0D9A0E9A0F9A3C9A3D9A3E9AE6
:1004A0003F9A80E09AEF0197F1F7459A449A179A9C
:1004B00000C0179880E09EE40197F1F7179A00C0FA
:1004C000179880E091E0FC013197F1F7179A00C08E
:1004D0001798FC013197F1F74498179A00C01798C4
:1004E0000197F1F788E20E94F10188E00E94F10192
:1004F0000E94110286E00E94F101812F0E94F10109
:100500001F9108950F931F93DF93CF93CDB7DEB75D
:1005100064970FB6F894DEBF0FBECDBF8E010F5F9C
:100520001F4FB8014AE050E00E94A402C8010E9497
:100530002E0264960FB6F894DEBF0FBECDBFCF91EA
:10054000DF911F910F910895FB019F01423074F0DC
:10055000453264F4642F77270E94CA02805D8A3393
:100560000CF0895D8193CB010097A1F71082C9013E
:100570000C94BA02DC01FC01672F71917723E1F73B
:10058000329704C07C916D9370836291AE17BF0760
:10059000C8F30895AA1BBB1B51E107C0AA1FBB1FCC
:1005A000A617B70710F0A61BB70B881F991F5A95FF
:1005B000A9F780959095BC01CD010895F894FFCFDF
:1005C000000000020000000088000000000080839E
:1005D00086898C909396999C9FA2A5A8ABAEB1B347
:1005E000B6B9BCBFC1C4C7C9CCCED1D3D5D8DADC6B
:1005F000DEE0E2E4E6E8EAEBEDEFF0F1F3F4F5F645
:10060000F8F9FAFAFBFCFDFDFEFEFEFFFFFFFFFF1F
:10061000FFFFFEFEFEFDFDFCFBFAFAF9F8F6F5F42D
:10062000F3F1F0EFEDEBEAE8E6E4E2E0DEDCDAD865
:10063000D5D3D1CECCC9C7C4C1BFBCB9B6B3B1AE96
:10064000ABA8A5A29F9C999693908C898683807D68
:100650007A7774706D6A6764615E5B5855524F4D6E
:100660004A4744413F3C393734322F2D2B2826242A
:1006700022201E1C1A1816151311100F0D0C0B0A30
:100680000807060605040303020202010101010135
:10069000010102020203030405060607080A0B0C07
:1006A0000D0F1011131516181A1C1E2022242628AF
:1006B0002B2D2F323437393C3F4144474A4D4F525E
:0E06C00055585B5E6164676A6D7074777A7D71
:00000001FF
