:100000000C9446000C945D000C945D000C945D0013
:100010000C945D000C945D000C945D000C945D00EC
:100020000C945D000C945D000C945D000C945D00DC
:100030000C945D000C945D000C945D000C945D00CC
:100040000C945D000C945D000C945D000C945D00BC
:100050000C945D000C945D000C945D000C945D00AC
:100060000C945D000C945D000C945D000C945D009C
:100070000C945D000C945D000C945D000C945D008C
:100080000C945D000C945D000C945D0011241FBE67
:10009000CFEFD0E4DEBFCDBF11E0A0E0B1E0E0E5FE
:1000A000F4E000E00BBF02C007900D92A030B10752
:1000B000D9F70E948C000C9426020C94000084B1A5
:1000C0008B6184B984B5806A84BD84B5816084BD48
:1000D00085B5816085BD0895882359F0299A8FEFF1
:1000E000689FC00111246CE97FEF0E94D901615023
:1000F00001C0299868BD442361F0289A8FEF289F9A
:10010000C00111246CE97FEF0E94D901615067BDE5
:100110000895299827BD0895CF93DF930E945F002B
:10012000C0E9D1E080E062E340E022E30E946C009D
:1001300080E395E7FE013197F1F70197D9F781E068
:1001400062E340E022E30E946C0080E197E2FE015E
:100150003197F1F70197D9F780E062E340E022E3BD
:100160000E946C0080E395E7FE013197F1F701975B
:10017000D9F780E062E341E022E30E946C0080E175
:1001800097E2FE013197F1F70197D9F7CBCF6623BC
:1001900011F0159A01C0159816983C9A3D9A3E9A0E
:1001A0003F9A479846984598449887FD479A86FD18
:1001B000469A85FD459A84FD449A179A00C017987F
:1001C000479846984598449883FD479A82FD469AF9
:1001D00081FD459A80FD449A179A00C01798449A69
:1001E000459A469A479A0895882311F0159A01C0B6
:1001F0001598169A3C983D983E983F98179A00C0DB
:10020000349B02C080E101C080E03599806236995C
:10021000806437998068179800C0179A00C0349995
:100220008160359982603699846037998860179823
:10023000089580E00E94F40087FDFBCF88E090E005
:100240000197F1F780E00E94F40008951F93182FA2
:100250000E941901812F60E00E94C7001F9108953C
:100260001F93182F0E941901812F61E00E94C7007F
:100270001F910895662311F4805801C080540E9494
:10028000260108950E94190190E0089581E00E94DE
:100290002601089582E00E94260108951F93182FD9
:1002A0000E9419011A3049F4803410F080E001C036
:1002B00080E480580E94260104C0812F61E00E94E2
:1002C000C7001F910895CF93DF93EC0102C00E94F5
:1002D0004E0189918823D9F7DF91CF910895CF936B
:1002E000DF93EC0102C00E944E01FE012196849131
:1002F0008823C9F7DF91CF9108951F93182F0D9A86
:100300000E9A0F9A3C9A3D9A3E9A3F9A80E09AEF55
:100310000197F1F7459A449A179A00C0179880E020
:100320009EE40197F1F7179A00C0179880E091E0DA
:10033000FC013197F1F7179A00C01798FC0131972B
:10034000F1F74498179A00C017980197F1F788E2DF
:100350000E94260188E00E9426010E94460186E054
:100360000E942601812F0E9426011F9108950F935C
:100370001F93DF93CF93CDB7DEB764970FB6F89492
:10038000DEBF0FBECDBF8E010F5F1F4FB8014AE029
:1003900050E00E940002C8010E94630164960FB6FB
:1003A000F894DEBF0FBECDBFCF91DF911F910F91AB
:1003B000089597FB092E07260AD077FD04D00CD0AC
:1003C00006D000201AF4709561957F4F0895F6F7D6
:1003D000909581959F4F0895AA1BBB1B51E107C0C3
:1003E000AA1FBB1FA617B70710F0A61BB70B881FC5
:1003F000991F5A95A9F780959095BC01CD01089554
:10040000FB019F01423074F0453264F4642F77277A
:100410000E94EC01805D8A330CF0895D8193CB01F1
:100420000097A1F71082C9010C941602DC01FC01AF
:10043000672F71917723E1F7329704C07C916D9318
:1004400070836291AE17BF07C8F30895F894FFCF89
:00000001FF
