:100000000C9446000C945D000C945D000C945D0013
:100010000C945D000C945D000C945D000C945D00EC
:100020000C945D000C945D000C945D000C945D00DC
:100030000C945D000C945D000C945D000C945D00CC
:100040000C945D000C945D000C945D000C945D00BC
:100050000C945D000C945D000C945D000C945D00AC
:100060000C945D000C945D000C945D000C945D009C
:100070000C945D000C945D000C945D000C945D008C
:100080000C945D000C945D000C945D0011241FBE67
:10009000CFEFD0E4DEBFCDBF11E0A0E0B1E0E0E8FB
:1000A000F3E000E00BBF02C007900D92AC30B10747
:1000B000D9F70E945F000C94BE010C94000082E00E
:1000C0008AB98FEF84B987B980EF81B98CE00E943B
:1000D000280180E060E00E94E50080E091E00E945D
:1000E0000E01F7CF662311F0159A01C015981698E6
:1000F0003C9A3D9A3E9A3F9A47984698459844982C
:1001000087FD479A86FD469A85FD459A84FD449A67
:10011000179A00C01798479846984598449883FDC9
:10012000479A82FD469A81FD459A80FD449A179A26
:1001300000C01798449A459A469A479A089588238A
:1001400011F0159A01C01598169A3C983D983E9862
:100150003F98179A00C0349B02C080E101C080E044
:10016000359980623699806437998068179800C005
:10017000179A00C0349981603599826036998460FD
:10018000379988601798089580E00E949F0087FD46
:10019000FBCF88E090E00197F1F780E00E949F009C
:1001A00008951F93182F0E94C400812F60E00E94C1
:1001B00072001F9108951F93182F0E94C400812F71
:1001C00061E00E9472001F910895662311F4805827
:1001D00001C080540E94D10008950E94C40090E0A4
:1001E000089581E00E94D100089582E00E94D1002C
:1001F00008951F93182F0E94C4001A3049F48034C8
:1002000010F080E001C080E480580E94D10004C05A
:10021000812F61E00E9472001F910895CF93DF93B8
:10022000EC0102C00E94F90089918823D9F7DF917F
:10023000CF910895CF93DF93EC0102C00E94F900A3
:10024000FE01219684918823C9F7DF91CF9108950B
:100250001F93182F0D9A0E9A0F9A3C9A3D9A3E9A28
:100260003F9A80E09AEF0197F1F7459A449A179ADE
:1002700000C0179880E09EE40197F1F7179A00C03C
:10028000179880E091E0FC013197F1F7179A00C0D0
:100290001798FC013197F1F74498179A00C0179806
:1002A0000197F1F788E20E94D10088E00E94D10016
:1002B0000E94F10086E00E94D100812F0E94D100AF
:1002C0001F9108950F931F93DF93CF93CDB7DEB7A0
:1002D00064970FB6F894DEBF0FBECDBF8E010F5FDF
:1002E0001F4FB8014AE050E00E948401C8010E94FB
:1002F0000E0164960FB6F894DEBF0FBECDBFCF914E
:10030000DF911F910F910895FB019F01423074F01E
:10031000453264F4642F77270E94AA01805D8A33F6
:100320000CF0895D8193CB010097A1F71082C90180
:100330000C949A01DC01FC01672F71917723E1F79E
:10034000329704C07C916D9370836291AE17BF07A2
:10035000C8F30895AA1BBB1B51E107C0AA1FBB1F0E
:10036000A617B70710F0A61BB70B881F991F5A9541
:10037000A9F780959095BC01CD010895F894FFCF21
:0C03800048656C6C6F20576F726C640055
:00000001FF
