:100000000C942A000C9447000C9447000C94470071
:100010000C9447000C9447000C9447000C94470044
:100020000C9447000C9447000C9447000C94470034
:100030000C9447000C9447000C9447000C94470024
:100040000C9447000C9447000C9447000C94470014
:100050000C94470011241FBECFE5D8E0DEBFCDBF12
:1000600010E0A0E6B0E0E6EBFAE002C005900D92E9
:10007000A837B107D9F710E0A8E7B0E001C01D929A
:10008000A038B107E1F70E9481000C9459050C9447
:1000900000008093780090917900282F29272093E1
:1000A0007A00922390937C00282320937B008093F6
:1000B00079000895282F10927D0010927E001092F2
:1000C0007F0080917C00982F82FF03C081E08093A5
:1000D0007F0090FF05C021FF03C081E080937D0079
:1000E00091FF05C020FF03C081E080937E0008954A
:1000F0001F93182F0E944900812F0E945A001F91C0
:1001000008952F923F924F925F926F927F928F92BB
:100110009F92AF92BF92CF92DF92EF92FF921F9386
:10012000DF93CF93CDB7DEB760970FB6F894DEBFFD
:100130000FBECDBF1ABA17BA8FEF84BB11BA88BBF6
:100140008CE00E94EC01AF9A10E13E010894611C22
:10015000711C90E6492E90E0592E86B30E947800DB
:1001600080E060E00E94A901212E3324D101909605
:100170008C919097282F332727FD30952227330F16
:10018000221F3327205D3F4F90968C9186FD04C03F
:10019000F0E38F2E912C03C0E1E38E2E912CF10120
:1001A00080A185FD04C070E3A72EB12C03C061E3DC
:1001B000A62EB12CD10190968C9184FD04C050E301
:1001C000C52ED12C03C041E3C42ED12CF10180A156
:1001D00083FD04C090E3E92EF12C03C081E3E82EF7
:1001E000F12CD10190968C9182FD03C060E370E008
:1001F00002C061E370E0F10180A181FD03C040E332
:1002000050E002C041E350E0D10190968C9180FD16
:1002100003C080E390E002C081E390E0EDB7FEB759
:1002200076970FB6F894FEBF0FBEEDBF3196ADB70F
:10023000BEB712967C926E9211975382428235829B
:1002400024823783268391868086B386A286D586CC
:10025000C486F786E686718B608B538B428B958BB9
:10026000848B0E945D02EDB7FEB776960FB6F894C8
:10027000FEBF0FBEEDBFC3010E94D20180917D0081
:10028000882321F0193110F41D5F07C080917E0092
:10029000882319F0113108F01350B29902C0AF98B9
:1002A00001C0AF9A85B359CF282F662311F0AE9ABB
:1002B00001C0AE98AD9884B38F6084BB95B3907F36
:1002C000822F82958F70892B85BBAC9A00C0AC9829
:1002D0002F70292B25BBAC9A00C0AC989F6095BBB2
:1002E0000895882311F0AE9A01C0AE98AD9A84B3F8
:1002F000807F84BBAC9A00C093B3AC9800C0AC9A2A
:1003000000C083B38F709295907FAC98892B08952D
:1003100080E00E94710187FDFBCF88E090E00197AB
:10032000F1F780E00E94710108951F93182F0E9439
:100330008801812F60E00E9454011F9108951F934E
:10034000182F0E948801812F61E00E9454011F91A3
:100350000895662311F4805801C080540E949501CD
:1003600008950E94880190E0089581E00E9495011F
:10037000089582E00E94950108951F93182F0E940E
:1003800088011A3049F4803410F080E001C080E424
:1003900080580E94950104C0812F61E00E945401A1
:1003A0001F910895CF93DF93EC0102C00E94BD011D
:1003B00089918823D9F7DF91CF910895CF93DF9367
:1003C000EC0102C00E94BD01FE01219684918823A8
:1003D000C9F7DF91CF9108951F93182F84B38F60D1
:1003E00084BBA69AA59AA49A80E09AEF0197F1F7A8
:1003F000A99AA89AAC9A00C0AC9880E09EE40197B4
:10040000F1F7AC9A00C0AC9880E091E0FC01319724
:10041000F1F7AC9A00C0AC98FC013197F1F7A898BD
:10042000AC9A00C0AC980197F1F788E20E94950160
:1004300088E00E9495010E94B50186E00E94950126
:10044000812F0E9495011F9108950F931F93DF93B1
:10045000CF93CDB7DEB764970FB6F894DEBF0FBE6B
:10046000CDBF8E010F5F1F4FB8014AE050E00E94E0
:100470004702C8010E94D20164960FB6F894DEBF0D
:100480000FBECDBFCF91DF911F910F910895FB015A
:100490009F01423074F0453264F4642F77270E9444
:1004A0000E05805D8A330CF0895D8193CB01009746
:1004B000A1F71082C9010C947404AEE0B0E0E3E649
:1004C000F2E00C9430050D891E8986E08C831A8336
:1004D00009838FEF9FE79E838D839E01275E3F4FA9
:1004E000CE0101966F89788DA9010E9481022F812A
:1004F0003885020F131FF80110822E96E4E00C9449
:100500004C05ABE0B0E0E7E8F2E00C9422053C01DA
:100510002B015A01FC0117821682838181FD03C0E1
:100520006FEF7FEFC6C19AE0892E1E010894211C4F
:10053000311CF3012381F20123FD859123FF819179
:100540002F01882309F4B2C1853239F423FD859146
:1005500023FF81912F01853229F490E0B3010E949D
:100560008404E7CF982FFF24EE249924FFE1FF15A0
:10057000D0F09B3269F09C3228F4903259F09332DB
:1005800091F40EC09D3249F0903369F441E024C0EB
:1005900052E0F52A84E0F82A28C098E0F92A25C01C
:1005A000E0E1FE2A22C0F7FC29C0892F80538A305F
:1005B00070F4F6FE05C0989C902C1124980E15C07E
:1005C000E89CE02C1124E80EF0E2FF2A0EC09E32D7
:1005D00029F4F6FC6BC140E4F42A07C09C3619F4F8
:1005E00050E8F52A02C0983649F4F20123FD9591AE
:1005F00023FF91912F01992309F0B8CF892F8554BA
:10060000833018F08052833038F444E050E0A40E78
:10061000B51E5FE359830FC0933631F0933779F0FD
:10062000933509F056C020C0F5018081898342E0EE
:1006300050E0A40EB51E610101E010E012C0F5010A
:10064000C080D180F6FC03C06FEF7FEF02C0692D40
:1006500070E042E050E0A40EB51EC6010E9469049D
:100660008C015FE7F52214C0F501C080D180F6FC53
:1006700003C06FEF7FEF02C0692D70E042E050E0F1
:10068000A40EB51EC6010E945E048C0150E8F52A36
:10069000F3FE07C01AC080E290E0B3010E94840418
:1006A000EA948E2D90E008171907A8F30EC0F60102
:1006B000F7FC8591F7FE81916F0190E0B3010E94F4
:1006C0008404E110EA94015010400115110579F7F6
:1006D000EAC0943611F0993669F5F7FE08C0F501C5
:1006E000208131814281538184E090E00AC0F5018C
:1006F000808191819C01442737FD4095542F82E0F1
:1007000090E0A80EB91E9FE6F92257FF09C0509548
:100710004095309521953F4F4F4F5F4FE0E8FE2ABF
:10072000CA01B901A1012AE030E00E94B004D82E2C
:10073000D21840C0953729F41F2D1F7E2AE030E0E3
:100740001DC01F2D197F9F3661F0903720F498351A
:1007500009F0ACC00FC0903739F0983709F0A6C047
:1007600004C028E030E00AC0106114FD146020E1EC
:1007700030E004C014FD166020E132E017FF08C02D
:10078000F501608171818281938144E050E008C06D
:10079000F50180819181BC0180E090E042E050E071
:1007A000A40EB51EA1010E94B004D82ED2188FE766
:1007B000F82EF122F6FE0BC05EEFF522D91438F4C4
:1007C000F4FE07C0F2FC05C08FEEF82202C01D2D1A
:1007D00001C0192DF4FE0DC0FE01ED0DF11D80814B
:1007E000803319F499EEF92208C01F5FF2FE05C0AC
:1007F00003C08F2D867809F01F5F0F2DF3FC14C006
:10080000F0FE0FC01E1510F09D2C0BC09D2C9E0CF1
:10081000911A1E2D06C080E290E0B3010E9484046C
:100820001F5F1E15C0F304C01E1510F4E11A01C0AD
:10083000EE2404FF0FC080E390E0B3010E94840423
:1008400002FF1DC001FD03C088E790E00EC088E5EF
:1008500090E00BC0802F867891F001FF02C08BE200
:1008600001C080E2F7FC8DE290E0B3010E948404B5
:1008700006C080E390E0B3010E9484049A94D914E6
:10088000C0F3DA94F101ED0DF11D808190E0B30128
:100890000E948404DD20A9F706C080E290E0B30145
:1008A0000E948404EA94EE20C1F743CEF3016681EE
:1008B0007781CB012B96E2E10C943E05FC0105907B
:1008C000615070400110D8F7809590958E0F9F1F52
:1008D0000895FC016150704001900110D8F7809597
:1008E00090958E0F9F1F0895DC01FC01672F719179
:1008F0007723E1F7329704C07C916D937083629106
:10090000AE17BF07C8F308950F931F93CF93DF93DC
:100910008C01EB018B8181FF1BC082FF0DC02E81FA
:100920003F818C819D812817390764F4E881F98122
:100930000193F983E88306C0E885F985802F09953E
:10094000892B31F48E819F8101969F838E8302C013
:100950000FEF1FEFC801DF91CF911F910F91089505
:10096000FA01AA27283051F1203181F1E8946F93E0
:100970006E7F6E5F7F4F8F4F9F4FAF4FB1E03ED086
:10098000B4E03CD0670F781F891F9A1FA11D680F24
:10099000791F8A1F911DA11D6A0F711D811D911D57
:1009A000A11D20D009F468943F912AE0269F1124CC
:1009B0003019305D3193DEF6CF010895462F477030
:1009C000405D4193B3E00FD0C9F7F6CF462F4F708B
:1009D000405D4A3318F0495D31FD4052419302D0E9
:1009E000A9F7EACFB4E0A69597958795779567958F
:1009F000BA95C9F700976105710508959B01AC018F
:100A00000A2E06945795479537952795BA95C9F7B5
:100A1000620F731F841F951FA01D0895AA1BBB1B87
:100A200051E107C0AA1FBB1FA617B70710F0A61BEE
:100A3000B70B881F991F5A95A9F780959095BC010F
:100A4000CD0108952F923F924F925F926F927F92C5
:100A50008F929F92AF92BF92CF92DF92EF92FF92CE
:100A60000F931F93CF93DF93CDB7DEB7CA1BDB0B7A
:100A70000FB6F894DEBF0FBECDBF09942A8839881F
:100A800048885F846E847D848C849B84AA84B98426
:100A9000C884DF80EE80FD800C811B81AA81B98132
:100AA000CE0FD11D0FB6F894DEBF0FBECDBFED0146
:060AB0000895F894FFCF49
:100AB60020307825783A202563256325632563252C
:080AC60063256325632563002D
:00000001FF
