:100000000C9446000C9465000C9465000C946500FB
:100010000C9465000C9465000C9465000C946500CC
:100020000C9465000C9465000C9465000C946500BC
:100030000C9465000C9465000C9465000C946500AC
:100040000C9465000C9465000C9465000C9465009C
:100050000C9465000C9465000C9465000C9465008C
:100060000C9465000C9465000C9465000C9465007C
:100070000C9465000C9465000C9465000C9465006C
:100080000C9465000C9465000C94650011241FBE4F
:10009000CFEFD0E4DEBFCDBF11E0A0E0B1E0E6E1FC
:1000A000FEE000E00BBF02C007900D92A432B10742
:1000B000D9F711E0A4E2B1E001C01D92AC32B10762
:1000C000E1F70E94C9000C9409070C94000080938A
:1000D000240190912501282F29272093260192237E
:1000E00090932801282320932701809325010895C8
:1000F000382F1092290110922A0110922B01909111
:100100002801292F93FF03C081E080932B0197FFE3
:1001100005C036FF03C081E08093290126FF05C09A
:1001200037FF03C081E080932A0108951F93182FA1
:100130000E946700812F0E9478001F91089580938C
:100140007E00EAE7F0E0808187608083ACE7B0E082
:100150008C9180688C938081806C808308959091CD
:100160007C00907F90937C0090917C008770892B1D
:1001700080937C0080917A00806480937A008091E3
:100180007A0086FDFCCF2091780030917900C9017A
:1001900008952F923F925F926F927F928F929F92DB
:1001A000AF92BF92CF92DF92EF92FF920F931F9385
:1001B000DF93CF93CDB7DEB764970FB6F894DEBF69
:1001C0000FBECDBF8FE38AB98FEF84B987B980EFB7
:1001D00081B919821A821B821C828CE00E94400322
:1001E00083E00E949F0083EA8093800089E08093EF
:1001F0008100EE24FF2466247724CC24DD245524BA
:1002000025E0222E312C2C0E3D1E89B10E94960035
:100210004B9B0EC080912901882319F053941092B2
:10022000290180912A01882319F05A9410922A01F9
:100230008AE090E0A0E0B0E089839A83AB83BC833E
:1002400000E010E020C081E00E94AF00A0E0B0E03C
:10025000BC01CD0128EE33E040E050E00E949C0359
:1002600024E933E040E050E00E94CF03020F131F67
:1002700089819A81AB81BC810197A109B1098983E8
:100280009A83AB83BC8389819A81AB81BC810097BF
:10029000A105B105C1F6C8016AE070E00E94BB0388
:1002A0004B0180E00E94AF00A0E0B0E0BC01CD01B6
:1002B00020E137E240E050E00E949C032EEF37E05F
:1002C00040E050E00E94CF035901AA0CBB1CA20ED3
:1002D000B31EAA0CBB1C91E0591619F1591640F037
:1002E000A2E05A16D1F1B3E05B1609F00DC14EC081
:1002F00080912901882341F0E8EEEE16E3E0FE0646
:1003000018F40894E11CF11C80912A01882309F457
:1003100066C0E114F10409F4F9C00894E108F10899
:100320005EC080912901882349F0F5E8EF16F3E0DB
:10033000FF0620F484E690E0E80EF91E80912A0181
:10034000882309F44CC094E6E916F10408F447C088
:10035000ACE9BFEFEA0EFB1E42C080912901882361
:1003600049F0B0E3CB16B5E7DB0620F4EAE0F0E0B5
:10037000CE0EDF1E80912A01882311F1C114D10411
:10038000F9F086EF9FEFC80ED91E1AC0809129019F
:10039000882349F099E4C91691E7D90620F4A8EE1C
:1003A000B3E0CA0EDB1E80912A01882349F0B8EE23
:1003B000CB16B3E0DB0620F0E8E1FCEFCE0EDF1E4B
:1003C000B60180E090E028EE33E040E050E00E948B
:1003D0009C03950140E050E00E94CF0379018E1408
:1003E0009F0440F4FFEF6F16F3E07F0618F40894C3
:1003F000611C711CE814F90430F46114710419F0E3
:10040000089461087108E114F10411F4662477245A
:10041000609288007092890060928A0070928B00CE
:100420008DB79EB70C970FB6F8949EBF0FBE8DBFC9
:10043000EDB7FEB73196ADB7BEB712963C922E928D
:10044000119780E091E093838283F582E482D782E2
:10045000C68271866086528613860E942204ADB7DA
:10046000BEB71C960FB6F894BEBF0FBEADBF80E0FE
:1004700060E00E94FD02C1010E942603EDB7FEB7B5
:100480003A970FB6F894FEBF0FBEEDBF0DB71EB77B
:100490000F5F1F4F32822182E4E1F1E0D801139611
:1004A000FC93EE93129715969C928E921497179642
:1004B000BC92AE921697C50164E670E00E94BB0341
:1004C00080E090E0940140E050E00E949C032AE02C
:1004D00030E040E050E00E94CF03D80119963C93F1
:1004E0002E9318970E942204EDB7FEB73A960FB6E6
:1004F000F894FEBF0FBEEDBF80E061E00E94FD02F8
:10050000C1010E94260381CECC24DD24EE24FF24E9
:10051000552470CF662311F0159A01C015981698CE
:100520003C9A3D9A3E9A3F9A4798469845984498F7
:1005300087FD479A86FD469A85FD459A84FD449A33
:10054000179A00C01798479846984598449883FD95
:10055000479A82FD469A81FD459A80FD449A179AF2
:1005600000C01798449A459A469A479A0895882356
:1005700011F0159A01C01598169A3C983D983E982E
:100580003F98179A00C0349B02C080E101C080E010
:10059000359980623699806437998068179800C0D1
:1005A000179A00C0349981603599826036998460C9
:1005B000379988601798089580E00E94B70287FDF8
:1005C000FBCF88E090E00197F1F780E00E94B7024E
:1005D00008951F93182F0E94DC02812F60E00E9473
:1005E0008A021F9108951F93182F0E94DC02812F09
:1005F00061E00E948A021F910895662311F48058D9
:1006000001C080540E94E90208950E94DC0290E03B
:10061000089581E00E94E902089582E00E94E902C3
:1006200008951F93182F0E94DC021A3049F4803479
:1006300010F080E001C080E480580E94E90204C00C
:10064000812F61E00E948A021F910895CF93DF936A
:10065000EC0102C00E94110389918823D9F7DF9130
:10066000CF910895CF93DF93EC0102C00E94110354
:10067000FE01219684918823C9F7DF91CF910895D7
:100680001F93182F0D9A0E9A0F9A3C9A3D9A3E9AF4
:100690003F9A80E09AEF0197F1F7459A449A179AAA
:1006A00000C0179880E09EE40197F1F7179A00C008
:1006B000179880E091E0FC013197F1F7179A00C09C
:1006C0001798FC013197F1F74498179A00C01798D2
:1006D0000197F1F788E20E94E90288E00E94E902AE
:1006E0000E94090386E00E94E902812F0E94E9022C
:1006F0001F9108950F931F93DF93CF93CDB7DEB76C
:1007000064970FB6F894DEBF0FBECDBF8E010F5FAA
:100710001F4FB8014AE050E00E940C04C8010E943B
:10072000260364960FB6F894DEBF0FBECDBFCF91FF
:10073000DF911F910F910895629FD001739FF00187
:10074000829FE00DF11D649FE00DF11D929FF00D61
:10075000839FF00D749FF00D659FF00D9927729F98
:10076000B00DE11DF91F639FB00DE11DF91FBD0123
:10077000CF0111240895AA1BBB1B51E107C0AA1F7A
:10078000BB1FA617B70710F0A61BB70B881F991F32
:100790005A95A9F780959095BC01CD01089597FBD6
:1007A000092E05260ED057FD04D014D00AD0001C07
:1007B00038F450954095309521953F4F4F4F5F4FFE
:1007C0000895F6F790958095709561957F4F8F4FBE
:1007D0009F4F0895A1E21A2EAA1BBB1BFD010DC05D
:1007E000AA1FBB1FEE1FFF1FA217B307E407F507E1
:1007F00020F0A21BB30BE40BF50B661F771F881FBD
:10080000991F1A9469F760957095809590959B0152
:10081000AC01BD01CF010895FB019F01423074F08E
:10082000453264F4642F77270E94BB03805D8A33CE
:100830000CF0895D8193CB010097A1F71082C9016B
:100840000C946F060F931F93DF93CF93CDB7DEB752
:100850002E970FB6F894DEBF0FBECDBF0D891E894F
:1008600086E08C831A8309838FEF9FE79E838D83B5
:100870009E01275E3F4FCE0101966F89788DA901B9
:100880000E9453042F813885020F131FF801108234
:100890002E960FB6F894DEBF0FBECDBFCF91DF917D
:1008A0001F910F9108952F923F924F925F926F92F6
:1008B0007F928F929F92AF92BF92CF92DF92EF92F0
:1008C000FF920F931F93DF93CF93CDB7DEB72B9794
:1008D0000FB6F894DEBF0FBECDBF3C012B015A010D
:1008E000FC0117821682838181FD03C06FEF7FEFC9
:1008F000C6C19AE0892E1E010894211C311CF30107
:100900002381F20123FD859123FF81912F0188230B
:1009100009F4B2C1853239F423FD859123FF819119
:100920002F01853229F490E0B3010E947F06E7CFC2
:10093000982FFF24EE249924FFE1FF15D0F09B327D
:1009400069F09C3228F4903259F0933291F40EC041
:100950009D3249F0903369F441E024C052E0F52A19
:1009600084E0F82A28C098E0F92A25C0E0E1FE2AB0
:1009700022C0F7FC29C0892F80538A3070F4F6FE1C
:1009800005C0989C902C1124980E15C0E89CE02C72
:100990001124E80EF0E2FF2A0EC09E3229F4F6FC84
:1009A0006BC140E4F42A07C09C3619F450E8F52ADC
:1009B00002C0983649F4F20123FD959123FF9191ED
:1009C0002F01992309F0B8CF892F8554833018F06F
:1009D0008052833038F444E050E0A40EB51E5FE34B
:1009E00059830FC0933631F0933779F0933509F07E
:1009F00056C020C0F5018081898342E050E0A40EFA
:100A0000B51E610101E010E012C0F501C080D18087
:100A1000F6FC03C06FEF7FEF02C0692D70E042E08B
:100A200050E0A40EB51EC6010E9464068C015FE76B
:100A3000F52214C0F501C080D180F6FC03C06FEF31
:100A40007FEF02C0692D70E042E050E0A40EB51EB9
:100A5000C6010E9459068C0150E8F52AF3FE07C032
:100A60001AC080E290E0B3010E947F06EA948E2DC6
:100A700090E008171907A8F30EC0F601F7FC85915E
:100A8000F7FE81916F0190E0B3010E947F06E110B3
:100A9000EA94015010400115110579F7EAC0943627
:100AA00011F0993669F5F7FE08C0F5012081318112
:100AB0004281538184E090E00AC0F50180819181F8
:100AC0009C01442737FD4095542F82E090E0A80E0A
:100AD000B91E9FE6F92257FF09C050954095309501
:100AE00021953F4F4F4F5F4FE0E8FE2ACA01B90101
:100AF000A1012AE030E00E94AB06D82ED21840C0F7
:100B0000953729F41F2D1F7E2AE030E01DC01F2DD0
:100B1000197F9F3661F0903720F4983509F0ACC00A
:100B20000FC0903739F0983709F0A6C004C028E00C
:100B300030E00AC0106114FD146020E130E004C010
:100B400014FD166020E132E017FF08C0F501608156
:100B500071818281938144E050E008C0F501808179
:100B60009181BC0180E090E042E050E0A40EB51E0F
:100B7000A1010E94AB06D82ED2188FE7F82EF122E1
:100B8000F6FE0BC05EEFF522D91438F4F4FE07C070
:100B9000F2FC05C08FEEF82202C01D2D01C0192DF8
:100BA000F4FE0DC0FE01ED0DF11D8081803319F4BE
:100BB00099EEF92208C01F5FF2FE05C003C08F2D19
:100BC000867809F01F5F0F2DF3FC14C0F0FE0FC0F4
:100BD0001E1510F09D2C0BC09D2C9E0C911A1E2DE5
:100BE00006C080E290E0B3010E947F061F5F1E15E1
:100BF000C0F304C01E1510F4E11A01C0EE2404FF76
:100C00000FC080E390E0B3010E947F0602FF1DC089
:100C100001FD03C088E790E00EC088E590E00BC0BE
:100C2000802F867891F001FF02C08BE201C080E244
:100C3000F7FC8DE290E0B3010E947F0606C080E3DE
:100C400090E0B3010E947F069A94D914C0F3DA941D
:100C5000F101ED0DF11D808190E0B3010E947F064E
:100C6000DD20A9F706C080E290E0B3010E947F0674
:100C7000EA94EE20C1F743CEF30166817781CB0180
:100C80002B960FB6F894DEBF0FBECDBFCF91DF918C
:100C90001F910F91FF90EF90DF90CF90BF90AF909A
:100CA0009F908F907F906F905F904F903F902F908C
:100CB0000895FC010590615070400110D8F78095AF
:100CC00090958E0F9F1F0895FC0161507040019018
:100CD0000110D8F7809590958E0F9F1F0895DC0125
:100CE000FC01672F71917723E1F7329704C07C9163
:100CF0006D9370836291AE17BF07C8F308950F9389
:100D00001F93CF93DF938C01EB018B8181FF1BC07D
:100D100082FF0DC02E813F818C819D81281739076C
:100D200064F4E881F9810193F983E88306C0E885DA
:100D3000F985802F0995892B31F48E819F81019649
:100D40009F838E8302C00FEF1FEFC801DF91CF9109
:100D50001F910F910895FA01AA27283051F12031EF
:100D600081F1E8946F936E7F6E5F7F4F8F4F9F4F3F
:100D7000AF4FB1E03ED0B4E03CD0670F781F891F81
:100D80009A1FA11D680F791F8A1F911DA11D6A0F4F
:100D9000711D811D911DA11D20D009F468943F9102
:100DA0002AE0269F11243019305D3193DEF6CF0101
:100DB0000895462F4770405D4193B3E00FD0C9F7C7
:100DC000F6CF462F4F70405D4A3318F0495D31FD34
:100DD0004052419302D0A9F7EACFB4E0A695979587
:100DE000879577956795BA95C9F70097610571055D
:100DF00008959B01AC010A2E0694579547953795A7
:100E00002795BA95C9F7620F731F841F951FA01D00
:060E10000895F894FFCFE5
:100E16002530346420253034642025303464202580
:100E26003031640025303464202530356420253087
:040E3600356400001F
:00000001FF
