:100000000C9446000C9465000C9465000C946500FB
:100010000C9465000C9465000C9465000C946500CC
:100020000C9465000C9465000C9465000C946500BC
:100030000C9465000C9465000C9465000C946500AC
:100040000C9421010C9465000C9465000C946500DF
:100050000C9465000C9465000C9465000C9465008C
:100060000C9465000C9465000C9465000C9465007C
:100070000C9465000C9465000C9465000C9465006C
:100080000C9465000C9465000C94650011241FBE4F
:10009000CFEFD0E4DEBFCDBF11E0A0E0B1E0E2E8F9
:1000A000F4E100E00BBF02C007900D92AC3BB1073A
:1000B000D9F711E0ACEBB1E001C01D92AF3CB10744
:1000C000E1F70E9431030C943F0A0C9400009093D6
:1000D000C5008093C400519A88E18093C1008EE0EE
:1000E0008093C20008958091C000881F8827881FD0
:1000F0000895982F8091C00085FFFCCF9093C60093
:100100000895FC0107C08091C00085FFFCCF3196A7
:100110009093C60090819923B1F708958091C00013
:1001200087FFFCCF8091C60008959C01FC0190E000
:1001300004C081939F5F903541F08091C00087FF9C
:10014000FCCF8091C6008D30A1F7F901E90FF11DB8
:100150001082822F089502C08091C6008091C00055
:1001600087FDFACF089594B1906B94B991E59CBD49
:10017000882319F08CB5806202C08CB58F7D8CBD50
:100180000895982F662319F08DB5816002C08DB552
:100190008E7F8DBD9EBD0DB407FEFDCF08951F93CC
:1001A000CF93DF93EC01162F04C02196612F0E949C
:1001B000C10088818823C9F7DF91CF911F910895ED
:1001C00080E485B98CBD08950DB407FEFDCF8EB5D2
:1001D00008958093BC019091BD01282F2927209379
:1001E000BE0192239093C00128232093BF018093E6
:1001F000BD010895382F1092C1011092C2011092D2
:10020000C3019091C001292F93FF03C081E0809327
:10021000C30197FF05C036FF03C081E08093C10191
:1002200026FF05C037FF03C081E08093C201089517
:100230001F93182F0E94E900812F0E94FA001F913E
:1002400008951F920F920FB60F9211242F933F9390
:100250004F935F936F937F938F939F93AF93BF93CE
:100260008091C401882309F480C18091C7019091D5
:10027000C801A091C901B091CA018097A105B1053B
:1002800008F073C18091C7019091C801A091C90184
:10029000B091CA018091C7019091C801A091C90194
:1002A000B091CA010397A105B10510F4299A01C0C4
:1002B000299885B18091C7019091C801A091C90189
:1002C000B091CA018091C7019091C801A091C90164
:1002D000B091CA010397A105B10510F42D9801C092
:1002E0002D9A85B18091C7019091C801A091C90153
:1002F000B091CA010E97A105B10560F08091C701C8
:100300009091C801A091C901B091CA014097A1057F
:10031000B105C8F06091CD017091CE012091C70167
:100320003091C8014091C9015091CA018DE090E01F
:10033000821B930B02C0769567958A95E2F760FF62
:1003400002C02A9A01C02A9885B18091C701909174
:10035000C801A091C901B091CA010E97A105B105CC
:1003600060F08091C7019091C801A091C901B0913E
:10037000CA014097A105B105C8F06091CD01709107
:10038000CE012091C7013091C8014091C90150911F
:10039000CA018DE090E0821B930B02C076956795B1
:1003A0008A95E2F760FF02C02E9801C02E9A85B1AF
:1003B0008091C7019091C801A091C901B091CA0173
:1003C0000F97A105B105C8F46091CB017091CC01E4
:1003D0002091C7013091C8014091C9015091CA01D3
:1003E0008EE090E0821B930B02C0769567958A950C
:1003F000E2F760FF02C02B9A01C02B9885B1809173
:10040000C7019091C801A091C901B091CA010F978D
:10041000A105B105C8F46091CB017091CC01209188
:10042000C7013091C8014091C9015091CA018EE0C5
:1004300090E0821B930B02C0769567958A95E2F750
:1004400060FF02C02F9801C02F9A85B18AE48A9577
:10045000F1F78091C7019091C801A091C901B091B5
:10046000CA0181709070882371F08091C7019091CA
:10047000C801A091C901B091CA014A97A105B1056F
:1004800010F4289801C0289A85B18091C7019091F5
:10049000C801A091C901B091CA01817090708823F0
:1004A00071F08091C7019091C801A091C901B091EC
:1004B000CA014A97A105B10510F42C9A01C02C98E5
:1004C00085B18091C7019091C801A091C901B091F7
:1004D000CA014C97A105B10581F08091C7019091A7
:1004E000C801A091C901B091CA014E97A105B105FB
:1004F00031F48091BB01813011F4419A01C04198DF
:1005000088B18091C7019091C801A091C901B091B3
:10051000CA014C97A105B10581F08091C701909166
:10052000C801A091C901B091CA014E97A105B105BA
:1005300031F48091BB01813011F4429801C0429A9C
:1005400088B18091C7019091C801A091C901B09173
:10055000CA010196A11DB11D8093C7019093C801E6
:10056000A093C901B093CA010CC080EF85B9109265
:10057000C7011092C8011092C9011092CA011092CD
:10058000C401BF91AF919F918F917F916F915F91C6
:100590004F913F912F910F900FBE0F901F90189584
:1005A000EF92FF920F9330E02F713070220F331FC4
:1005B00090E08F739070982F882750E05695542FB5
:1005C0004427579547955070482B592B422B532B56
:1005D000FF242FE1E222FF24EE0CFF1CE02FF0E0CD
:1005E000F695FE2FEE27F795E795F070E82BF92B9F
:1005F000EE29FF2970E021E030E0CA01022E02C09E
:10060000969587950A94E2F780FD7F5F2F5F3F4FB5
:100610002F30310591F770FD41605093CC0140932C
:10062000CB0140E021E030E0CF01022E02C09695E0
:1006300087950A94E2F780FD4F5F2F5F3F4F2F3081
:10064000310591F740FDE160F093CE01E093CD01DB
:100650006093BB0181E08093C4010F91FF90EF9004
:1006600008952F923F924F925F927F928F929F9226
:10067000AF92BF92CF92DF92EF92FF920F931F93B0
:10068000DF93CF93CDB7DEB761970FB6F894DEBF97
:100690000FBECDBF82E08AB98FEF84B987B980EFF2
:1006A00081B984B5826084BD85B5856085BD809142
:1006B0006E00826080936E0017BC16BC78948CE04C
:1006C0000E94CB06AA2477248824BB249924FF24E3
:1006D00010E082E0898B6E010894C11CD11CBDE939
:1006E0002B2EB1E03B2EA2E44A2EA1E05A2E89B176
:1006F0000E941801133009F4BAC1143038F41130D3
:1007000009F439C1123008F073C10AC0153009F478
:1007100019C2153008F4D6C1163009F079C23BC2AF
:100720009989933009F464C0943030F4913079F0B1
:10073000923009F06DC21FC0A989A53009F4BAC072
:10074000A53008F480C0A63009F062C2DFC080E0A6
:1007500060E00E94880680E091E00E94B1068091EE
:10076000C301882311F011E053C28091C101882395
:1007700009F04CC24DC280E060E00E9488068DE026
:1007800091E00E94B10680E061E00E94880600D0FE
:1007900000D000D0EDB7FEB73196ADB7BEB7129618
:1007A000DC92CE92119788E191E093838283A482B8
:1007B00015820E944407ADB7BEB716960FB6F894DF
:1007C000BEBF0FBEADBFC6010E94B1068091C3017E
:1007D000882311F012E01CC28091C201882311F01D
:1007E000B1E012C28091C101882309F00CC210C28D
:1007F00080E060E00E9488068FE191E00E94B106EF
:1008000080E061E00E948806882021F0C6016BE24A
:1008100071E003C0C60161E371E00E942707C601D1
:100820000E94B1068091C301882311F013E0F0C14A
:100830008091C201882309F0E9C18091C101882318
:1008400009F0DEC1E5C180E060E00E94880687E330
:1008500091E00E94B10680E061E00E94880600D02D
:1008600000D000D0EDB7FEB73196ADB7BEB7129647
:10087000DC92CE92119753824282B48215820E94FA
:1008800044078DB79EB706960FB6F8949EBF0FBE6D
:100890008DBFC6010E94B1068091C301882311F06B
:1008A00014E0B6C18091C201882309F0ACC18091E7
:1008B000C1015DC080E060E00E9488068CE491E0A8
:1008C0000E94B10680E061E00E948806992021F034
:1008D000C6016BE271E003C0C60161E371E00E94F2
:1008E0002707C6010E94B1068091C301882311F039
:1008F00015E08EC18091C201882309F081C18091E9
:10090000C101882309F484C196E078C180E060E0E9
:100910000E94880688E591E00E94B10680E061E0CF
:100920000E94880600D000D000D0EDB7FEB7319607
:10093000ADB7BEB71296DC92CE9211975382428227
:10094000F48215820E9444078DB79EB706960FB6B3
:10095000F8949EBF0FBE8DBFC6010E94B106809164
:10096000C301882311F016E053C18091C20188238E
:1009700009F44EC142C18091C301882311F010E0F7
:1009800010C08091C201882321F0772011F07A9461
:1009900008C08091C101882321F0772011F47724C9
:1009A000739480E060E00E94880683E691E00E94F4
:1009B000B10680E061E00E948806772021F0C60140
:1009C0006BE271E003C0C60161E371E00E9427079A
:1009D000C6010E94B1068A2D672D482D2B2D092DA9
:1009E000EF2C0E94D00280E49CE90197F1F710C13E
:1009F0008091C301882311F010E010C08091C201E2
:100A0000882321F0AA2011F0AA9408C08091C10186
:100A1000882321F09EE39A1508F0A39480E060E01B
:100A20000E94880683E791E00E94B10680E061E0C1
:100A30000E94880600D000D000D0EDB7FEB73196F6
:100A4000ADB7BEB71296DC92CE9211978FE791E0C8
:100A500093838283A48215820E944407ADB7BEB7F8
:100A600016960FB6F894BEBF0FBEADBF67C080919B
:100A7000C301882311F010E010C08091C2018823C7
:100A800021F0882011F08A9408C08091C101882348
:100A900021F0882011F48824839480E060E00E9493
:100AA000880684E891E00E94B10680E061E00E943F
:100AB0008806882009F06BC0C60161E371E00E94DE
:100AC00027073CC08091C301882311F010E010C0BB
:100AD0008091C201882321F0BB2011F0BA9408C094
:100AE0008091C101882321F0BEE1BB1508F0B394C9
:100AF00080E060E00E94880681E991E00E94B106F2
:100B000080E061E00E94880600D000D000D0EDB700
:100B1000FEB73196ADB7BEB71296DC92CE92119762
:100B200033822282B48215820E9444078DB79EB719
:100B300006960FB6F8949EBF0FBE8DBFC6010E94E9
:100B4000B10666C08091C301882311F010E010C087
:100B50008091C201882321F0992011F09A9408C055
:100B60008091C101882321F0992011F49924939454
:100B700080E060E00E94880682EA91E00E94B1066F
:100B800080E061E00E948806992009F495CFC601B3
:100B90006BE271E094CF8091C301882311F010E0E3
:100BA00010C08091C201882321F0FF2011F0FA9437
:100BB00008C08091C101882321F09EE19F1508F0B3
:100BC000F39480E060E00E9488068FEA91E00E9442
:100BD000B10680E061E00E94880600D000D000D01D
:100BE000EDB7FEB73196ADB7BEB71296DC92CE9296
:100BF000119733822282F48296CF95E0998B08C0B8
:100C0000A4E0A98B05C0B3E0B98B02C082E0898B58
:100C10008091C2019091C301892B9091C101892BD0
:100C200009F465CD0E94940662CD662311F0159AF1
:100C300001C0159816983C9A3D9A3E9A3F9A47985B
:100C400046984598449887FD479A86FD469A85FDC3
:100C5000459A84FD449A179A00C017984798469879
:100C60004598449883FD479A82FD469A81FD459AAE
:100C700080FD449A179A00C01798449A459A469A5C
:100C8000479A0895882311F0159A01C01598169A6D
:100C90003C983D983E983F98179A00C0349B02C0FC
:100CA00080E101C080E0359980623699806437998F
:100CB0008068179800C0179A00C0349981603599F0
:100CC000826036998460379988601798089580E02B
:100CD0000E94420687FDFBCF88E090E00197F1F784
:100CE00080E00E94420608951F93182F0E94670615
:100CF000812F60E00E9415061F9108951F93182F01
:100D00000E946706812F61E00E9415061F910895D9
:100D1000662311F4805801C080540E94740608951F
:100D20000E94670690E0089581E00E94740608958D
:100D300082E00E94740608951F93182F0E94670690
:100D40001A3049F4803410F080E001C080E480580B
:100D50000E94740604C0812F61E00E9415061F9155
:100D60000895CF93DF93EC0102C00E949C06899105
:100D70008823D9F7DF91CF910895CF93DF93EC01CA
:100D800002C00E949C06FE01219684918823C9F727
:100D9000DF91CF9108951F93182F0D9A0E9A0F9AF5
:100DA0003C9A3D9A3E9A3F9A80E09AEF0197F1F77C
:100DB000459A449A179A00C0179880E09EE40197DC
:100DC000F1F7179A00C0179880E091E0FC01319785
:100DD000F1F7179A00C01798FC013197F1F7449882
:100DE000179A00C017980197F1F788E20E947406DD
:100DF00088E00E9474060E94940686E00E947406B1
:100E0000812F0E9474061F9108950F931F93DF9303
:100E1000CF93CDB7DEB764970FB6F894DEBF0FBEA1
:100E2000CDBF8E010F5F1F4FB8014AE050E00E9416
:100E30002E07C8010E94B10664960FB6F894DEBF73
:100E40000FBECDBFCF91DF911F910F910895FB0190
:100E5000DC0101900D920020E1F70895FB019F0154
:100E6000423074F0453264F4642F77270E942B0AD5
:100E7000805D8A330CF0895D8193CB010097A1F7E7
:100E80001082C9010C9491090F931F93DF93CF93A4
:100E9000CDB7DEB72E970FB6F894DEBF0FBECDBF2D
:100EA0000D891E8986E08C831A8309838FEF9FE763
:100EB0009E838D839E01275E3F4FCE0101966F89F1
:100EC000788DA9010E9475072F813885020F131FA5
:100ED000F80110822E960FB6F894DEBF0FBECDBF7C
:100EE000CF91DF911F910F9108952F923F924F92D2
:100EF0005F926F927F928F929F92AF92BF92CF92AA
:100F0000DF92EF92FF920F931F93DF93CF93CDB7B2
:100F1000DEB72B970FB6F894DEBF0FBECDBF3C01F6
:100F20002B015A01FC0117821682838181FD03C0C7
:100F30006FEF7FEFC6C19AE0892E1E010894211C35
:100F4000311CF3012381F20123FD859123FF81915F
:100F50002F01882309F4B2C1853239F423FD85912C
:100F600023FF81912F01853229F490E0B3010E9483
:100F7000A109E7CF982FFF24EE249924FFE1FF1564
:100F8000D0F09B3269F09C3228F4903259F09332C1
:100F900091F40EC09D3249F0903369F441E024C0D1
:100FA00052E0F52A84E0F82A28C098E0F92A25C002
:100FB000E0E1FE2A22C0F7FC29C0892F80538A3045
:100FC00070F4F6FE05C0989C902C1124980E15C064
:100FD000E89CE02C1124E80EF0E2FF2A0EC09E32BD
:100FE00029F4F6FC6BC140E4F42A07C09C3619F4DE
:100FF00050E8F52A02C0983649F4F20123FD959194
:1010000023FF91912F01992309F0B8CF892F85549F
:10101000833018F08052833038F444E050E0A40E5E
:10102000B51E5FE359830FC0933631F0933779F0E3
:10103000933509F056C020C0F5018081898342E0D4
:1010400050E0A40EB51E610101E010E012C0F501F0
:10105000C080D180F6FC03C06FEF7FEF02C0692D26
:1010600070E042E050E0A40EB51EC6010E94860961
:101070008C015FE7F52214C0F501C080D180F6FC39
:1010800003C06FEF7FEF02C0692D70E042E050E0D7
:10109000A40EB51EC6010E947B098C0150E8F52AFA
:1010A000F3FE07C01AC080E290E0B3010E94A109DC
:1010B000EA948E2D90E008171907A8F30EC0F601E8
:1010C000F7FC8591F7FE81916F0190E0B3010E94DA
:1010D000A109E110EA94015010400115110579F7BA
:1010E000EAC0943611F0993669F5F7FE08C0F501AB
:1010F000208131814281538184E090E00AC0F50172
:10110000808191819C01442737FD4095542F82E0D6
:1011100090E0A80EB91E9FE6F92257FF09C050952E
:101120004095309521953F4F4F4F5F4FE0E8FE2AA5
:10113000CA01B901A1012AE030E00E94CD09D82EF0
:10114000D21840C0953729F41F2D1F7E2AE030E0C9
:101150001DC01F2D197F9F3661F0903720F4983500
:1011600009F0ACC00FC0903739F0983709F0A6C02D
:1011700004C028E030E00AC0106114FD146020E1D2
:1011800030E004C014FD166020E132E017FF08C013
:10119000F501608171818281938144E050E008C053
:1011A000F50180819181BC0180E090E042E050E057
:1011B000A40EB51EA1010E94CD09D82ED2188FE72A
:1011C000F82EF122F6FE0BC05EEFF522D91438F4AA
:1011D000F4FE07C0F2FC05C08FEEF82202C01D2D00
:1011E00001C0192DF4FE0DC0FE01ED0DF11D808131
:1011F000803319F499EEF92208C01F5FF2FE05C092
:1012000003C08F2D867809F01F5F0F2DF3FC14C0EB
:10121000F0FE0FC01E1510F09D2C0BC09D2C9E0CD7
:10122000911A1E2D06C080E290E0B3010E94A10930
:101230001F5F1E15C0F304C01E1510F4E11A01C093
:10124000EE2404FF0FC080E390E0B3010E94A109E7
:1012500002FF1DC001FD03C088E790E00EC088E5D5
:1012600090E00BC0802F867891F001FF02C08BE2E6
:1012700001C080E2F7FC8DE290E0B3010E94A10979
:1012800006C080E390E0B3010E94A1099A94D914AA
:10129000C0F3DA94F101ED0DF11D808190E0B3010E
:1012A0000E94A109DD20A9F706C080E290E0B30109
:1012B0000E94A109EA94EE20C1F743CEF3016681B2
:1012C0007781CB012B960FB6F894DEBF0FBECDBF52
:1012D000CF91DF911F910F91FF90EF90DF90CF9012
:1012E000BF90AF909F908F907F906F905F904F9046
:1012F0003F902F900895FC010590615070400110BF
:10130000D8F7809590958E0F9F1F0895FC0161502E
:10131000704001900110D8F7809590958E0F9F1F17
:101320000895DC01FC01672F71917723E1F7329773
:1013300004C07C916D9370836291AE17BF07C8F3B0
:1013400008950F931F93CF93DF938C01EB018B8153
:1013500081FF1BC082FF0DC02E813F818C819D814A
:101360002817390764F4E881F9810193F983E88348
:1013700006C0E885F985802F0995892B31F48E8187
:101380009F8101969F838E8302C00FEF1FEFC801DC
:10139000DF91CF911F910F910895FA01AA2728306C
:1013A00051F1203181F1E8946F936E7F6E5F7F4F32
:1013B0008F4F9F4FAF4FB1E03ED0B4E03CD0670FAE
:1013C000781F891F9A1FA11D680F791F8A1F911D01
:1013D000A11D6A0F711D811D911DA11D20D009F451
:1013E00068943F912AE0269F11243019305D319393
:1013F000DEF6CF010895462F4770405D4193B3E07C
:101400000FD0C9F7F6CF462F4F70405D4A3318F022
:10141000495D31FD4052419302D0A9F7EACFB4E0D3
:10142000A6959795879577956795BA95C9F700978B
:101430006105710508959B01AC010A2E069457952C
:10144000479537952795BA95C9F7620F731F841F83
:10145000951FA01D0895AA1BBB1B51E107C0AA1F21
:10146000BB1FA617B70710F0A61BB70B881F991F45
:101470005A95A9F780959095BC01CD010895F894EF
:02148000FFCF9C
:101482005472616E736D697420202020004164647F
:101492007265737320202000253033642020004DB4
:1014A200656D6F72792041202020004D312020206F
:1014B200004D3220202000506861736520412020B9
:1014C2002000253032642020202020004D656D6FE1
:1014D20072792042202020005068617365204220EA
:1014E2002020005472616E736D697474696E672096
:1014F200202000416464726573733A202020002525
:10150200303364004D656D6F727920413A2020209E
:1015120000506861736520413A2020200025303256
:1015220064004D656D6F727920423A202020005090
:0C1532006861736520423A20202000010F
:00000001FF
