:100000000C9446000C9465000C9465000C946500FB
:100010000C9465000C9465000C9465000C946500CC
:100020000C9465000C9465000C9465000C946500BC
:100030000C9465000C9465000C9465000C946500AC
:100040000C9465000C9465000C9465000C9465009C
:100050000C9465000C9465000C9465000C9465008C
:100060000C9465000C9465000C9465000C9465007C
:100070000C9465000C9465000C9465000C9465006C
:100080000C9465000C9465000C94650011241FBE4F
:10009000CFEFD0E4DEBFCDBF11E0A0E0B1E0EAEAEF
:1000A000FEE000E00BBF02C007900D92A434B10740
:1000B000D9F711E0A4E4B1E001C01D92AC34B1075E
:1000C000E1F70E94CC020C9453070C94000080933B
:1000D0007E00EAE7F0E0808187608083ACE7B0E0F3
:1000E0008C9180648C938081806C80830895909142
:1000F0007C00907F90937C0090917C008770892B8E
:1001000080937C0080917A00806480937A00809153
:100110007A0086FDFCCF2091780030917900C901EA
:1001200008958093440190914501282F2927209319
:1001300046019223909348012823209347018093FE
:1001400045010895282F1092490110924A011092FA
:100150004B0180914801982F82FF03C081E080937A
:100160004B0190FF05C021FF03C081E0809349014E
:1001700091FF05C020FF03C081E080934A010895EC
:100180001F93182F0E949100812F0E94A2001F919F
:10019000089584B1886784B984B5816A84BD85B5C2
:1001A000816085BD08952095442311F02D9801C0EC
:1001B0002D9A27BD6095882311F02E9801C02E9AA4
:1001C00068BD0895482F262F0E94D300089580E02F
:1001D00060E040E020E00E94D3000895282F81E0F5
:1001E000622F40E00E94D3000895282F80E0622F04
:1001F00041E00E94D30008959093C5008093C4000D
:10020000519A88E18093C1008EE08093C2000895E6
:100210008091C000881F8827881F0895982F80919B
:10022000C00085FFFCCF9093C6000895FC0107C075
:100230008091C00085FFFCCF31969093C6009081DD
:100240009923B1F708958091C00087FFFCCF80917A
:10025000C60008959C01FC0190E004C081939F5F5B
:10026000903541F08091C00087FFFCCF8091C6009F
:100270008D30A1F7F901E90FF11D1082822F089549
:1002800002C08091C6008091C00087FDFACF08951A
:1002900094B1906B94B991E59CBD882319F08CB50D
:1002A000806202C08CB58F7D8CBD0895982F662327
:1002B00019F08DB5816002C08DB58E7F8DBD9EBD5C
:1002C0000DB407FEFDCF08951F93CF93DF93EC018C
:1002D000162F04C02196612F0E9456018881882321
:1002E000C9F7DF91CF911F91089580E485B98CBD46
:1002F00008950DB407FEFDCF8EB508952F9820E91F
:1003000031E040E951E0FA013197F1F721503040F6
:10031000D1F70E9416012F9A80ED97E020E931E095
:10032000F9013197F1F70197D9F7089580E091E04D
:100330000E947E0108958AE091E00E947E01089566
:1003400083E191E00E947E01089584E191E00E94A2
:100350007E010895089A009A089581E082B985E3A4
:100360008A95F1F712B860E070E080E090E011C08B
:100370006F5F7F4F8F4F9F4F20E0019B08C0603F12
:1003800035E5730730E0830730E0930788F32223D5
:1003900011F021E0F2CF27E330E040E050E00E948E
:1003A0002004CA01B90108950F931F93DF93CF93DF
:1003B000CDB7DEB728970FB6F894DEBF0FBECDBF1E
:1003C00000D000D000D0EDB7FEB731968E010F5FA0
:1003D0001F4FADB7BEB712961C930E93119727E12E
:1003E00031E033832283992787FD90959583848319
:1003F0000E9458048DB79EB706960FB6F8949EBF1C
:100400000FBE8DBFC8010E947E0128960FB6F894DA
:10041000DEBF0FBECDBFCF91DF911F910F91089529
:100420000F931F93DF93CF9300D000D00F92CDB7DF
:10043000DEB700D000D000D0EDB7FEB731968E0108
:100440000F5F1F4FADB7BEB712961C930E93119757
:100450002FE131E033832283992787FD909595839F
:1004600084830E9458048DB79EB706960FB6F89401
:100470009EBF0FBE8DBFC8010E947E010F900F90DE
:100480000F900F900F90CF91DF911F910F910895D2
:100490000F931F93DF93CF9300D000D00F92CDB76F
:1004A000DEB700D000D000D0EDB7FEB731968E0198
:1004B0000F5F1F4FADB7BEB712961C930E931197E7
:1004C00026E231E033832283992787FD9095958337
:1004D00084830E9458048DB79EB706960FB6F89491
:1004E0009EBF0FBE8DBFC8010E947E010F900F906E
:1004F0000F900F900F90CF91DF911F910F91089562
:100500000F931F93DF93CF93CDB7DEB727970FB627
:10051000F894DEBF0FBECDBF00D000D000D0EDB745
:10052000FEB731968E010F5F1F4FADB7BEB7129663
:100530001C930E9311972FE231E033832283992786
:1005400087FD9095958384830E9458048DB79EB74C
:1005500006960FB6F8949EBF0FBE8DBFC8010E94CD
:100560007E0127960FB6F894DEBF0FBECDBFCF91A8
:10057000DF911F910F9108950F931F93162F042F52
:10058000279A0E948002812F0E944802802F0E9499
:1005900010021F910F910895CF92DF92EF92FF9278
:1005A0001F93DF93CF93CDB7DEB760970FB6F89464
:1005B000DEBF0FBECDBF11B88FEF87B9549A87E069
:1005C00085B98CE00E94C503479A0E94C90010E0DB
:1005D0007E010894E11CF11C88E3C82E81E0D82E2E
:1005E00083B10E94C00080914901882321F01F3F00
:1005F00011F01F5F0CC080914A01882321F0112364
:1006000011F0115004C080914B01811110E080E085
:10061000612F0E94E20000D000D000D0EDB7FEB7FD
:100620003196ADB7BEB71296FC92EE921197D38277
:10063000C282148315820E9458048DB79EB7069615
:100640000FB6F8949EBF0FBE8DBF80E060E00E94A1
:100650008203C7010E94AB03C3CF282F662311F08A
:10066000469A01C04698459887B18F6087B998B17E
:10067000907F822F82958F70892B88B9449A00C011
:1006800044982F70292B28B9449A00C044989F6041
:1006900098B90895882311F0469A01C04698459A62
:1006A00087B1807F87B9449A00C096B1449800C052
:1006B000449A00C086B18F709295907F4498892BA0
:1006C000089580E00E944A0387FDFBCF88E090E018
:1006D0000197F1F780E00E944A0308951F93182FB5
:1006E0000E946103812F60E00E942D031F910895F5
:1006F0001F93182F0E946103812F61E00E942D0338
:100700001F910895662311F4805801C080540E94FF
:100710006E0308950E94610390E0089581E00E94B5
:100720006E03089582E00E946E0308951F93182FB0
:100730000E9461031A3049F4803410F080E001C057
:1007400080E480580E946E0304C0812F61E00E9403
:100750002D031F910895CF93DF93EC0102C00E94F7
:10076000960389918823D9F7DF91CF910895CF938C
:10077000DF93EC0102C00E949603FE012196849152
:100780008823C9F7DF91CF9108951F93182F87B160
:100790008F6087B93E9A3D9A3C9A80E09AEF019724
:1007A000F1F7419A409A449A00C0449880E09EE450
:1007B0000197F1F7449A00C0449880E091E0FC0171
:1007C0003197F1F7449A00C04498FC013197F1F752
:1007D0004098449A00C044980197F1F788E20E943B
:1007E0006E0388E00E946E030E948E0386E00E94E2
:1007F0006E03812F0E946E031F9108950F931F9324
:10080000DF93CF93CDB7DEB764970FB6F894DEBF12
:100810000FBECDBF8E010F5F1F4FB8014AE050E001
:100820000E944204C8010E94AB0364960FB6F8947C
:10083000DEBF0FBECDBFCF91DF911F910F91089505
:10084000A1E21A2EAA1BBB1BFD010DC0AA1FBB1FD4
:10085000EE1FFF1FA217B307E407F50720F0A21B46
:10086000B30BE40BF50B661F771F881F991F1A94B3
:1008700069F760957095809590959B01AC01BD01DD
:10088000CF010895FB019F01423074F0453264F4BA
:10089000642F77270E943F07805D8A330CF0895DC3
:1008A0008193CB010097A1F71082C9010C94A50692
:1008B0000F931F93DF93CF93CDB7DEB72E970FB66D
:1008C000F894DEBF0FBECDBF0D891E8986E08C83F4
:1008D0001A8309838FEF9FE79E838D839E01275E96
:1008E0003F4FCE0101966F89788DA9010E9489043E
:1008F0002F813885020F131FF80110822E960FB634
:10090000F894DEBF0FBECDBFCF91DF911F910F9145
:1009100008952F923F924F925F926F927F928F92A3
:100920009F92AF92BF92CF92DF92EF92FF920F937E
:100930001F93DF93CF93CDB7DEB72B970FB6F89405
:10094000DEBF0FBECDBF3C012B015A01FC01178257
:100950001682838181FD03C06FEF7FEFC6C19AE0ED
:10096000892E1E010894211C311CF3012381F20100
:1009700023FD859123FF81912F01882309F4B2C1C2
:10098000853239F423FD859123FF81912F01853232
:1009900029F490E0B3010E94B506E7CF982FFF2419
:1009A000EE249924FFE1FF15D0F09B3269F09C32D0
:1009B00028F4903259F0933291F40EC09D3249F0F0
:1009C000903369F441E024C052E0F52A84E0F82A2B
:1009D00028C098E0F92A25C0E0E1FE2A22C0F7FCF1
:1009E00029C0892F80538A3070F4F6FE05C0989C88
:1009F000902C1124980E15C0E89CE02C1124E80ED0
:100A0000F0E2FF2A0EC09E3229F4F6FC6BC140E4EE
:100A1000F42A07C09C3619F450E8F52A02C098362B
:100A200049F4F20123FD959123FF91912F01992320
:100A300009F0B8CF892F8554833018F08052833065
:100A400038F444E050E0A40EB51E5FE359830FC0B4
:100A5000933631F0933779F0933509F056C020C0C2
:100A6000F5018081898342E050E0A40EB51E61014A
:100A700001E010E012C0F501C080D180F6FC03C097
:100A80006FEF7FEF02C0692D70E042E050E0A40EEE
:100A9000B51EC6010E949A068C015FE7F52214C0BC
:100AA000F501C080D180F6FC03C06FEF7FEF02C07C
:100AB000692D70E042E050E0A40EB51EC6010E9410
:100AC0008F068C0150E8F52AF3FE07C01AC080E2B9
:100AD00090E0B3010E94B506EA948E2D90E00817CD
:100AE0001907A8F30EC0F601F7FC8591F7FE819176
:100AF0006F0190E0B3010E94B506E110EA94015045
:100B000010400115110579F7EAC0943611F09936B5
:100B100069F5F7FE08C0F5012081318142815381DA
:100B200084E090E00AC0F501808191819C01442716
:100B300037FD4095542F82E090E0A80EB91E9FE645
:100B4000F92257FF09C050954095309521953F4FA8
:100B50004F4F5F4FE0E8FE2ACA01B901A1012AE028
:100B600030E00E94E106D82ED21840C0953729F413
:100B70001F2D1F7E2AE030E01DC01F2D197F9F36DC
:100B800061F0903720F4983509F0ACC00FC0903771
:100B900039F0983709F0A6C004C028E030E00AC058
:100BA000106114FD146020E130E004C014FD1660F3
:100BB00020E132E017FF08C0F50160817181828178
:100BC000938144E050E008C0F50180819181BC012F
:100BD00080E090E042E050E0A40EB51EA1010E942A
:100BE000E106D82ED2188FE7F82EF122F6FE0BC0C0
:100BF0005EEFF522D91438F4F4FE07C0F2FC05C00C
:100C00008FEEF82202C01D2D01C0192DF4FE0DC07B
:100C1000FE01ED0DF11D8081803319F499EEF9226A
:100C200008C01F5FF2FE05C003C08F2D867809F053
:100C30001F5F0F2DF3FC14C0F0FE0FC01E1510F047
:100C40009D2C0BC09D2C9E0C911A1E2D06C080E27F
:100C500090E0B3010E94B5061F5F1E15C0F304C0EB
:100C60001E1510F4E11A01C0EE2404FF0FC080E34A
:100C700090E0B3010E94B50602FF1DC001FD03C054
:100C800088E790E00EC088E590E00BC0802F867862
:100C900091F001FF02C08BE201C080E2F7FC8DE21F
:100CA00090E0B3010E94B50606C080E390E0B30176
:100CB0000E94B5069A94D914C0F3DA94F101ED0DAF
:100CC000F11D808190E0B3010E94B506DD20A9F7F7
:100CD00006C080E290E0B3010E94B506EA94EE20DF
:100CE000C1F743CEF30166817781CB012B960FB616
:100CF000F894DEBF0FBECDBFCF91DF911F910F9152
:100D0000FF90EF90DF90CF90BF90AF909F908F902B
:100D10007F906F905F904F903F902F900895FC01CF
:100D20000590615070400110D8F7809590958E0F16
:100D30009F1F0895FC016150704001900110D8F789
:100D4000809590958E0F9F1F0895DC01FC01672F01
:100D500071917723E1F7329704C07C916D93708392
:100D60006291AE17BF07C8F308950F931F93CF93F7
:100D7000DF938C01EB018B8181FF1BC082FF0DC0D3
:100D80002E813F818C819D812817390764F4E88189
:100D9000F9810193F983E88306C0E885F985802FFE
:100DA0000995892B31F48E819F8101969F838E83D3
:100DB00002C00FEF1FEFC801DF91CF911F910F917C
:100DC0000895FA01AA27283051F1203181F1E894E1
:100DD0006F936E7F6E5F7F4F8F4F9F4FAF4FB1E02E
:100DE0003ED0B4E03CD0670F781F891F9A1FA11D29
:100DF000680F791F8A1F911DA11D6A0F711D811D2A
:100E0000911DA11D20D009F468943F912AE0269FEE
:100E100011243019305D3193DEF6CF010895462F4D
:100E20004770405D4193B3E00FD0C9F7F6CF462F2E
:100E30004F70405D4A3318F0495D31FD4052419397
:100E400002D0A9F7EACFB4E0A69597958795779554
:100E50006795BA95C9F700976105710508959B01DB
:100E6000AC010A2E06945795479537952795BA9564
:100E7000C9F7620F731F841F951FA01D0895AA1B39
:100E8000BB1B51E107C0AA1FBB1FA617B70710F075
:100E9000A61BB70B881F991F5A95A9F780959095A7
:0A0EA000BC01CD010895F894FFCFC6
:100EAA0041542B444641554C540041542B534C4514
:100EBA004550000041540041542B465525640041D9
:100ECA00542B5025640041542B4325303364004190
:100EDA00542B42256430300053706565643A2025EE
:040EEA00303364003D
:00000001FF
