:100000000C9446000C9465000C9465000C946500FB
:100010000C9465000C9465000C9465000C946500CC
:100020000C9465000C9465000C9465000C946500BC
:100030000C9465000C9465000C9465000C946500AC
:100040000C9465000C9465000C9465000C9465009C
:100050000C9465000C9465000C9465000C9465008C
:100060000C9465000C9465000C9465000C9465007C
:100070000C9465000C9465000C9465000C9465006C
:100080000C9465000C9465000C94650011241FBE4F
:10009000CFEFD0E4DEBFCDBF11E0A0E0B1E0E4ECF3
:1000A000F3E000E00BBF02C007900D92AC30B10747
:1000B000D9F711E0ACE0B1E001C01D92A431B10765
:1000C000E1F70E949F000C94E0010C9400008093E3
:1000D0000C0190910D01282F292720930E019223C6
:1000E00090931001282320930F0180930D01089510
:1000F000282F109211011092120110921301809179
:100100001001982F82FF03C081E08093130190FFBC
:1001100005C021FF03C081E08093110191FF05C05C
:1001200020FF03C081E08093120108951F93182FD0
:100130000E946700812F0E9478001F9108958FEF21
:1001400087B987E085B9479A8CE00E944B0185B159
:100150000E94960080E060E00E94080180E091E04B
:100160000E943101F4CF282F662311F0469A01C076
:100170004698459887B18F6087B998B1907F822F54
:1001800082958F70892B88B9449A00C044982F704B
:10019000292B28B9449A00C044989F6098B90895C3
:1001A000882311F0469A01C04698459A87B1807F0E
:1001B00087B9449A00C096B1449800C0449A00C0E0
:1001C00086B18F709295907F4498892B089580E036
:1001D0000E94D00087FDFBCF88E090E00197F1F707
:1001E00080E00E94D00008951F93182F0E94E7001E
:1001F000812F60E00E94B3001F9108951F93182F74
:100200000E94E700812F61E00E94B3001F910895D2
:10021000662311F4805801C080540E94F4000895B0
:100220000E94E70090E0089581E00E94F4000895A4
:1002300082E00E94F40008951F93182F0E94E700A7
:100240001A3049F4803410F080E001C080E4805816
:100250000E94F40004C0812F61E00E94B3001F914E
:100260000895CF93DF93EC0102C00E941C01899195
:100270008823D9F7DF91CF910895CF93DF93EC01D5
:1002800002C00E941C01FE01219684918823C9F7B7
:10029000DF91CF9108951F93182F87B18F6087B991
:1002A0003E9A3D9A3C9A80E09AEF0197F1F7419A85
:1002B000409A449A00C0449880E09EE40197F1F788
:1002C000449A00C0449880E091E0FC013197F1F736
:1002D000449A00C04498FC013197F1F74098449A41
:1002E00000C044980197F1F788E20E94F40088E08A
:1002F0000E94F4000E94140186E00E94F400812F05
:100300000E94F4001F9108950F931F93DF93CF93E2
:10031000CDB7DEB764970FB6F894DEBF0FBECDBF82
:100320008E010F5F1F4FB8014AE050E00E94A60106
:10033000C8010E94310164960FB6F894DEBF0FBE6B
:10034000CDBFCF91DF911F910F910895FB019F01C8
:10035000423074F0453264F4642F77270E94CC0158
:10036000805D8A330CF0895D8193CB010097A1F702
:100370001082C9010C94BC01DC01FC01672F719152
:100380007723E1F7329704C07C916D93708362917B
:10039000AE17BF07C8F30895AA1BBB1B51E107C0E6
:1003A000AA1FBB1FA617B70710F0A61BB70B881F05
:1003B000991F5A95A9F780959095BC01CD01089594
:0403C000F894FFCFDF
:0C03C40048656C6C6F20576F726C640011
:00000001FF
