:100000000C9446000C9465000C9465000C946500FB
:100010000C9465000C9465000C9465000C946500CC
:100020000C9465000C9465000C9465000C946500BC
:100030000C9465000C9465000C9465000C946500AC
:100040000C9465000C9465000C9465000C9465009C
:100050000C9465000C9465000C9465000C9465008C
:100060000C9465000C9465000C9465000C9465007C
:100070000C9465000C9465000C9465000C9465006C
:100080000C9465000C9465000C94650011241FBE4F
:10009000CFEFD0E4DEBFCDBF11E0A0E0B1E0EEE7EE
:1000A000FBE000E00BBF02C007900D92A632B10743
:1000B000D9F711E0A6E2B1E001C01D92AE32B1075E
:1000C000E1F70E940D010C94BD050C940000909383
:1000D000C5008093C400219A88E18093C1008EE01E
:1000E0008093C20008958091C000881F8827881FD0
:1000F0000895982F8091C00085FFFCCF9093C60093
:100100000895FC0107C08091C00085FFFCCF3196A7
:100110009093C60090819923B1F708958091C00013
:1001200087FFFCCF8091C6000895982F8091C00072
:1001300085FFFCCF9093C60080E090E0089594B1D5
:10014000906B94B991E59CBD882319F08CB58062C1
:1001500002C08CB58F7D8CBD0895982F662319F051
:100160008DB5816002C08DB58E7F8DBD9EBD0DB4F5
:1001700007FEFDCF08951F93CF93DF93EC01162F59
:1001800004C02196612F0E94AD0088818823C9F7A1
:10019000DF91CF911F91089580E485B98CBD0895BA
:1001A0000DB407FEFDCF8EB5089580932601909182
:1001B0002701282F292720932801922390932A0191
:1001C000282320932901809327010895382F109226
:1001D0002B0110922C0110922D0190912A01292FB0
:1001E00093FF03C081E080932D0197FF05C036FF88
:1001F00003C081E080932B0126FF05C037FF03C0B9
:1002000081E080932C0108951F93182F0E94D50040
:10021000812F0E94E6001F9108958F929F92AF92C6
:10022000BF92DF92EF92FF920F931F93DF93CF93D2
:10023000CDB7DEB760970FB6F894DEBF0FBECDBF67
:1002400082E08AB98FEF84B987B980EF81B987E6F8
:1002500090E09093C5008093C400219A88E1809338
:10026000C1008EE08093C20080E091E00E94810096
:100270008CE00E945002DD245E010894A11CB11C98
:1002800083E1882E81E0982EEE24FF24870189B136
:100290000E9404010894E11CF11C011D111D8DB781
:1002A0009EB708970FB6F8949EBF0FBE8DBFEDB7EF
:1002B000FEB73196ADB7BEB71296BC92AE9211970B
:1002C00093828282E482F582068317830E94C202AF
:1002D0008DB79EB708960FB6F8949EBF0FBE8DBF20
:1002E000C5010E9481008091C00087FFD0CF80911E
:1002F000C00087FFFCCF1091C6009FE09D15B0F0B5
:10030000183049F4DA948D2D60E00E940D0280E2ED
:100310000E942102B9CF1D3049F08D2D60E00E946E
:100320000D02812F0E942102D394AECF0E941902A8
:10033000DD24AACF662311F0159A01C015981698EE
:100340003C9A3D9A3E9A3F9A4798469845984498D9
:1003500087FD479A86FD469A85FD459A84FD449A15
:10036000179A00C01798479846984598449883FD77
:10037000479A82FD469A81FD459A80FD449A179AD4
:1003800000C01798449A459A469A479A0895882338
:1003900011F0159A01C01598169A3C983D983E9810
:1003A0003F98179A00C0349B02C080E101C080E0F2
:1003B000359980623699806437998068179800C0B3
:1003C000179A00C0349981603599826036998460AB
:1003D000379988601798089580E00E94C70187FDCB
:1003E000FBCF88E090E00197F1F780E00E94C70121
:1003F00008951F93182F0E94EC01812F60E00E9446
:100400009A011F9108951F93182F0E94EC01812FCC
:1004100061E00E949A011F910895662311F48058AB
:1004200001C080540E94F90108950E94EC0190E0FF
:10043000089581E00E94F901089582E00E94F90187
:1004400008951F93182F0E94EC011A3049F480344C
:1004500010F080E001C080E480580E94F90104C0DF
:10046000812F61E00E949A011F910895CF93DF933D
:10047000EC0102C00E94210289918823D9F7DF9103
:10048000CF910895CF93DF93EC0102C00E94210227
:10049000FE01219684918823C9F7DF91CF910895B9
:1004A0001F93182F0D9A0E9A0F9A3C9A3D9A3E9AD6
:1004B0003F9A80E09AEF0197F1F7459A449A179A8C
:1004C00000C0179880E09EE40197F1F7179A00C0EA
:1004D000179880E091E0FC013197F1F7179A00C07E
:1004E0001798FC013197F1F74498179A00C01798B4
:1004F0000197F1F788E20E94F90188E00E94F90172
:100500000E94190286E00E94F901812F0E94F901E0
:100510001F9108950F931F93DF93CF93CDB7DEB74D
:1005200064970FB6F894DEBF0FBECDBF8E010F5F8C
:100530001F4FB8014AE050E00E94AC02C8010E947F
:10054000360264960FB6F894DEBF0FBECDBFCF91D2
:10055000DF911F910F910895FB019F01423074F0CC
:10056000453264F4642F77270E94A905805D8A33A1
:100570000CF0895D8193CB010097A1F71082C9012E
:100580000C940F050F931F93DF93CF93CDB7DEB776
:100590002E970FB6F894DEBF0FBECDBF0D891E8912
:1005A00086E08C831A8309838FEF9FE79E838D8378
:1005B0009E01275E3F4FCE0101966F89788DA9017C
:1005C0000E94F3022F813885020F131FF801108259
:1005D0002E960FB6F894DEBF0FBECDBFCF91DF9140
:1005E0001F910F9108952F923F924F925F926F92B9
:1005F0007F928F929F92AF92BF92CF92DF92EF92B3
:10060000FF920F931F93DF93CF93CDB7DEB72B9756
:100610000FB6F894DEBF0FBECDBF3C012B015A01CF
:10062000FC0117821682838181FD03C06FEF7FEF8B
:10063000C6C19AE0892E1E010894211C311CF301C9
:100640002381F20123FD859123FF81912F018823CE
:1006500009F4B2C1853239F423FD859123FF8191DC
:100660002F01853229F490E0B3010E941F05E7CFE6
:10067000982FFF24EE249924FFE1FF15D0F09B3240
:1006800069F09C3228F4903259F0933291F40EC004
:100690009D3249F0903369F441E024C052E0F52ADC
:1006A00084E0F82A28C098E0F92A25C0E0E1FE2A73
:1006B00022C0F7FC29C0892F80538A3070F4F6FEDF
:1006C00005C0989C902C1124980E15C0E89CE02C35
:1006D0001124E80EF0E2FF2A0EC09E3229F4F6FC47
:1006E0006BC140E4F42A07C09C3619F450E8F52A9F
:1006F00002C0983649F4F20123FD959123FF9191B0
:100700002F01992309F0B8CF892F8554833018F031
:100710008052833038F444E050E0A40EB51E5FE30D
:1007200059830FC0933631F0933779F0933509F040
:1007300056C020C0F5018081898342E050E0A40EBC
:10074000B51E610101E010E012C0F501C080D1804A
:10075000F6FC03C06FEF7FEF02C0692D70E042E04E
:1007600050E0A40EB51EC6010E9404058C015FE78F
:10077000F52214C0F501C080D180F6FC03C06FEFF4
:100780007FEF02C0692D70E042E050E0A40EB51E7C
:10079000C6010E94F9048C0150E8F52AF3FE07C057
:1007A0001AC080E290E0B3010E941F05EA948E2DEA
:1007B00090E008171907A8F30EC0F601F7FC859121
:1007C000F7FE81916F0190E0B3010E941F05E110D7
:1007D000EA94015010400115110579F7EAC09436EA
:1007E00011F0993669F5F7FE08C0F50120813181D5
:1007F0004281538184E090E00AC0F50180819181BB
:100800009C01442737FD4095542F82E090E0A80ECC
:10081000B91E9FE6F92257FF09C0509540953095C3
:1008200021953F4F4F4F5F4FE0E8FE2ACA01B901C3
:10083000A1012AE030E00E944B05D82ED21840C01A
:10084000953729F41F2D1F7E2AE030E01DC01F2D93
:10085000197F9F3661F0903720F4983509F0ACC0CD
:100860000FC0903739F0983709F0A6C004C028E0CF
:1008700030E00AC0106114FD146020E130E004C0D3
:1008800014FD166020E132E017FF08C0F501608119
:1008900071818281938144E050E008C0F50180813C
:1008A0009181BC0180E090E042E050E0A40EB51ED2
:1008B000A1010E944B05D82ED2188FE7F82EF12205
:1008C000F6FE0BC05EEFF522D91438F4F4FE07C033
:1008D000F2FC05C08FEEF82202C01D2D01C0192DBB
:1008E000F4FE0DC0FE01ED0DF11D8081803319F481
:1008F00099EEF92208C01F5FF2FE05C003C08F2DDC
:10090000867809F01F5F0F2DF3FC14C0F0FE0FC0B6
:100910001E1510F09D2C0BC09D2C9E0C911A1E2DA7
:1009200006C080E290E0B3010E941F051F5F1E1504
:10093000C0F304C01E1510F4E11A01C0EE2404FF38
:100940000FC080E390E0B3010E941F0502FF1DC0AD
:1009500001FD03C088E790E00EC088E590E00BC081
:10096000802F867891F001FF02C08BE201C080E207
:10097000F7FC8DE290E0B3010E941F0506C080E302
:1009800090E0B3010E941F059A94D914C0F3DA9441
:10099000F101ED0DF11D808190E0B3010E941F0572
:1009A000DD20A9F706C080E290E0B3010E941F0598
:1009B000EA94EE20C1F743CEF30166817781CB0143
:1009C0002B960FB6F894DEBF0FBECDBFCF91DF914F
:1009D0001F910F91FF90EF90DF90CF90BF90AF905D
:1009E0009F908F907F906F905F904F903F902F904F
:1009F0000895FC010590615070400110D8F7809572
:100A000090958E0F9F1F0895FC01615070400190DA
:100A10000110D8F7809590958E0F9F1F0895DC01E7
:100A2000FC01672F71917723E1F7329704C07C9125
:100A30006D9370836291AE17BF07C8F308950F934B
:100A40001F93CF93DF938C01EB018B8181FF1BC040
:100A500082FF0DC02E813F818C819D81281739072F
:100A600064F4E881F9810193F983E88306C0E8859D
:100A7000F985802F0995892B31F48E819F8101960C
:100A80009F838E8302C00FEF1FEFC801DF91CF91CC
:100A90001F910F910895FA01AA27283051F12031B2
:100AA00081F1E8946F936E7F6E5F7F4F8F4F9F4F02
:100AB000AF4FB1E03ED0B4E03CD0670F781F891F44
:100AC0009A1FA11D680F791F8A1F911DA11D6A0F12
:100AD000711D811D911DA11D20D009F468943F91C5
:100AE0002AE0269F11243019305D3193DEF6CF01C4
:100AF0000895462F4770405D4193B3E00FD0C9F78A
:100B0000F6CF462F4F70405D4A3318F0495D31FDF6
:100B10004052419302D0A9F7EACFB4E0A695979549
:100B2000879577956795BA95C9F70097610571051F
:100B300008959B01AC010A2E069457954795379569
:100B40002795BA95C9F7620F731F841F951FA01DC3
:100B50000895AA1BBB1B51E107C0AA1FBB1FA61704
:100B6000B70710F0A61BB70B881F991F5A95A9F756
:0E0B700080959095BC01CD010895F894FFCFBB
:100B7E000A0D5374617274757020636F6D706C65BD
:100B8E007465000A0D2564000000000200000000DC
:060B9E00950000000000BC
:00000001FF
